:020000040800F2
:1000000070080020010100085D0100085F01000880
:1000100063010008670100086B0100080000000090
:100020000000000000000000000000006F01000858
:10003000710100080000000073010008750100084C
:100040001B0100081B0100081B01000835180008EF
:100050001B0100081B0100081B0100081B01000810
:100060001B0100081B0100081B0100081B01000800
:100070001B0100081B0100081B0100081B010008F0
:100080001B0100081B0100081B0100081B010008E0
:100090001B0100081B0100081B0100081B010008D0
:1000A0001B0100081B0100081B0100081B010008C0
:1000B0001B0100081B0100081B0100081B010008B0
:1000C0001B0100081B0100081B0100081B010008A0
:1000D0001B0100081B0100081B0100081B01000890
:1000E0001B0100081B0100081B010008DFF80CD0F1
:1000F00002F0FCFC004800472501000870080020C1
:100100000648804706480047FEE7FEE7FEE7FEE7B1
:10011000FEE7FEE7FEE7FEE7FEE7FEE71D1100084B
:10012000ED00000801F0CAF801F07FFE074B08A2BD
:100130000A210F2001F008FF01F0F5FA01F0DAFCC6
:1001400001F06CF801F091FA00BFFEE72E000020EC
:10015000205265616C2054696D650000704700BFD6
:10016000FEE700BFFEE700BFFEE700BFFEE7704707
:10017000704770470448008820B103480088401E3B
:100180000149088070470000000000203149014308
:10019000314A1160704770B5002100230F22C478E6
:1001A0000CB32D4C246804F4E064C4F5E064210A27
:1001B000C1F10403CA40447804FA03F1847814407E
:1001C00021430901254C0678A155047804F01F0548
:1001D0000124AC4005786D114FF0E02606EB850553
:1001E000C5F8004109E0047804F01F050124AC4083
:1001F0001B4D0678761145F8264070BD194A0A4015
:100200000243154B1B1F1A60704739B1124A121D69
:1002100012680243104B1B1D1A6006E00E4A121DA5
:10022000126882430C4B1B1D1A607047042808D1CA
:100230004FF0E021096941F004014FF0E022116123
:1002400007E04FF0E021096921F004014FF0E022BE
:10025000116170470000FA050CED00E000E400E0D9
:1002600080E100E080FFFF1F10B5012000F00EFCD0
:10027000002000F00BFC10BD2A4908607047294996
:10028000091F08607047274984310860704701469C
:100290000020254A10884FF67F4210400843224A2A
:1002A00010807047014600201F4A10884FF6807268
:1002B000104008431C4A1080704708B50022009285
:1002C000194A2C3A0092009A02440092009A116056
:1002D00008BD08B501460020009013482C38009056
:1002E0000098084400900098008808BD0D489C3094
:1002F0000068C0B270470C480830008840F0010028
:1003000009490831088070470648A0300068C0B22B
:10031000704705480830008840F002000249083163
:100320000880704704860D422C6C004010B50446CE
:10033000CA48844208D10121042000F08DFB00212D
:10034000042000F089FB46E0C548844208D1012121
:10035000082000F081FB0021082000F07DFB3AE03E
:10036000C048844208D10121102000F075FB002113
:10037000102000F071FB2EE0BB48844208D101211F
:10038000202000F069FB0021202000F065FB22E026
:10039000B648844208D10121402000F05DFB0021D5
:1003A000402000F059FB16E0B148844208D10121F9
:1003B000802000F051FB0021802000F04DFB0AE07E
:1003C000AC48844207D10121801500F045FB002193
:1003D000A01500F041FB10BD10B50121084600F04A
:1003E0003BFB0021012000F037FB10BD2DE9F0415F
:1003F000024600250026002000230024002791F853
:1004000003C00CF00F0591F803C01CF0100F03D0CF
:1004100091F802C04CEA050591F800C0BCF1000F4C
:1004200031D0146800202BE04FF0010C0CFA00F3DF
:10043000B1F800C00CEA03069E4220D183004FF0C1
:100440000F0C0CFA03F7BC4305FA03FC4CEA040456
:1004500091F803C0BCF1280F06D14FF0010C0CFA43
:1004600000FCC2F814C00AE091F803C0BCF1480FC8
:1004700005D14FF0010C0CFA00FCC2F810C0401C72
:100480000828D1D31460B1F800C0BCF1FF0F34DDEF
:10049000546800202EE000F1080C4FF0010808FA23
:1004A0000CF3B1F800C00CEA03069E4221D1830090
:1004B0004FF00F0C0CFA03F7BC4305FA03FC4CEAAF
:1004C000040491F803C0BCF1280F05D100F1080C19
:1004D00008FA0CF8C2F8148091F803C0BCF1480F78
:1004E00007D100F1080C4FF0010808FA0CF8C2F827
:1004F0001080401C0828CED35460BDE8F0814FF630
:10050000FF710180022181700421C1707047024691
:10051000002093680B4201D0012000E000207047CA
:100520000146886880B2704702460020D3680B42BB
:1005300001D0012000E0002070470146C86880B269
:10054000704701617047416170470AB1016100E085
:1005500041617047C16070474FF480320A43826145
:100560008161826182698269704702460020424B44
:1005700018684FF68073184040EA021008433E4B5B
:10058000186070473D49C8617047F0B50A460023BE
:1005900000240021002500F00046B6F1004F02D1F2
:1005A000354EF16901E0344E7168C0F3034583B202
:1005B00000F44016B6F5401F08D121F070612E4EB0
:1005C000766826F070662C4F7E6012E000F480168C
:1005D000B6F5801F06D1032606FA05F4A14341F0C3
:1005E000706106E0460D360103FA06F6B14341F0AC
:1005F000706122B1460D360103FA06F6314300F070
:100600000046B6F1004F02D11B4EF16101E01A4ED7
:100610007160F0BD30B500228B071C0F0F2303FA69
:1006200004F2154B08338C1053F824309343124CCA
:1006300008348D1044F8253023468C1053F82430AC
:100640008C07240F00FA04F423430B4C08348D105C
:1006500044F8253030BD0A49086070470008014061
:10066000000C01400010014000140140001801403E
:10067000001C014000200140000001400000204219
:10068000DC00204210B50121080700F0F2F900213A
:100690004FF0805000F0EDF910BD29490862704715
:1006A00027490861704701460020264A106820F05B
:1006B000E00008431060704723490860704710B598
:1006C000024600201F4B186820F0030010431860FA
:1006D0001E4B1B6843F004031C4C2360012901D10D
:1006E00030BF00E020BF194B1B6823F00403174CF8
:1006F000236010BD1348006840F0040011490860F1
:100700000846006840F0020008601048006840F0A9
:1007100004000E49086000BF00BF30BF70470146AB
:100720000020084A52680A4201D0012000E000205F
:1007300070470449096841EA8001024A1160704724
:1007400000000E4200700040A0000E4210ED00E0DC
:10075000DD48006840F00100DB4908600846406859
:10076000DA490840D849486008460068D849084036
:10077000D54908600846006820F4802008600846D3
:10078000406820F4FE0048604FF41F008860704706
:10079000CD49096821F48031CB4A116011460968BE
:1007A00021F480211160B0F5803F03D0B0F5802F97
:1007B0000ED106E0C449096841F48031C24A116093
:1007C00007E0C149096841F4A021BF4A116000E077
:1007D00000BF00BF704710B5014600220023002073
:1007E0004A11012A02D1B84C236806E0022A02D13C
:1007F000B54C236A01E0B44C636A01F01F02012486
:1008000094401C4201D0012000E0002010BD38B50A
:10081000002000900024002500BF3120FFF7DBFFFF
:1008200005460098401C00900098B0F5A06F01D0DC
:10083000002DF2D03120FFF7CEFF08B1012400E0F7
:100840000024204638BD014600209F4A106820F051
:10085000F80040EAC100106070479E490860704788
:1008600002460020984B586820F47C1042EA0103AD
:100870001843954B58607047964908667047014683
:100880000020914A506820F00300084350607047F0
:100890008D48406800F00C007047014600208A4AED
:1008A000506820F0F0000843506070470146002077
:1008B000854A506820F4E060084350607047014664
:1008C0000020814A506820F4605040EAC100506026
:1008D000704729B17C4A527A02437B4B5A7204E03A
:1008E000794A527A8243784B5A7270477A49086043
:1008F000704701460020744A506820F44040084385
:10090000506070470021754A11706F4A82F82010BC
:10091000012802D0042808D103E001216F4A117098
:1009200004E005216D4A117000E000BF00BF704770
:100930006B49086070476449096A0143624A116261
:100940007047674944390860704730B5002100227C
:10095000002400235C4D6D6805F00C0121B10429D1
:1009600005D0082923D105E05E4D056022E05D4DEC
:1009700005601FE0544D6D6805F47012524D6D68AE
:1009800005F48034022505EB92421CB9564D5543BF
:1009900005600BE04C4D6D6815F4003F03D0524DDF
:1009A0005543056002E04F4D5543056002E04D4D53
:1009B000056000BF00BF444D6D6805F0F0010909F6
:1009C0004A4D6B5C0568DD4045603F4D6D6805F440
:1009D000E061090A454D6B5C4568DD4085603A4D34
:1009E0006D6805F46051C90A404D6B5C4568DD4097
:1009F000C560354D6D6805F44041890B3C4D6B5C1D
:100A0000C568B5FBF3F5056130BD29B12E4A5269C1
:100A100002432D4B5A6104E02B4A526982432A4B10
:100A20005A61704729B1284A92690243264B9A615C
:100A300004E0254A92698243234B9A61704729B1A9
:100A4000214AD2690243204BDA6104E01E4AD2698E
:100A500082431D4BDA61704729B11B4AD2680243B9
:100A6000194BDA6004E0184AD2688243164BDA6008
:100A7000704729B1144A12690243134B1A6104E00A
:100A8000114A12698243104B1A6170471449403968
:100A9000086070470F49C86470470B49C8717047B8
:100AA0000948406A40F08070074948627047014633
:100AB0000020054A92680A4201D0012000E000208F
:100AC0007047014988727047001002400000FFF82B
:100AD000FFFFF6FE00004242D800424220100240D2
:100AE0008004424200127A0000093D00020000200A
:100AF0001200002029B14F4A128802434D4B1A8040
:100B000004E04C4A128882434A4B1A807047494895
:100B1000001D008840F010004649091D08807047FC
:100B20004448001D00884FF6EF7108404149091DF7
:100B30000880704700213F481C300188001F008852
:100B400041EA0040704700B50246FFF7E0FF100C95
:100B5000384918310880091D0A80FFF7E1FF00BD00
:100B600000B50246FFF7D3FFC2F303403149083115
:100B70000880091D0A80FFF7D3FF00BD00B50246BB
:100B8000FFF7C5FF100C2B4920310880091D0A8092
:100B9000FFF7C6FF00BD002026491031098809076C
:100BA000080B2449143109880843704700BF2148C5
:100BB000001D008810F0200FF9D070471D48001D5F
:100BC00000884FF6F77108401A49091D088000BFD8
:100BD0001848001D008810F0080FF9D07047014632
:100BE0000020144A121D12880A4201D0012000E0A0
:100BF000002070470F49091D098881430D4A121DC5
:100C000011807047014600200A4A121D12880A40CE
:100C1000D0B2084A12880A4202D008B1012000E08E
:100C2000002070470349091D09888143014A121DAC
:100C3000118070470028004010B50446FB488442EC
:100C400009D101218803FFF707FF00214FF48040FD
:100C5000FFF702FF32E0F648844209D1012148043F
:100C6000FFF707FF00214FF40030FFF702FF25E0F8
:100C7000F048844209D101218804FFF7FAFE0021DF
:100C80004FF48020FFF7F5FE18E0EB48844209D1CD
:100C90000121C804FFF7EDFE00214FF40020FFF70B
:100CA000E8FE0BE0E548844208D101210805FFF782
:100CB000E0FE00214FF48010FFF7DBFE10BD2DE9B0
:100CC000F04786B005460E460024A24600BFA14666
:100CD0000027B08900B100BF2F462C8A4CF6FF7068
:100CE0000440F08804432C82AC894EF6F310044093
:100CF000B08831890843718908430443AC81AC8AC8
:100D00004FF6FF400440B0890443AC8201A8FFF7CE
:100D10001CFEC648874202D1DDF810A001E0DDF8D4
:100D20000CA0A88910F4004F08D00AEBCA0000EB11
:100D30000A1031684900B0FBF1F807E00AEBCA007D
:100D400000EB0A1031688900B0FBF1F86420B8FBB1
:100D5000F0F004012009642101FB1089A88910F436
:100D6000004F08D0322000EBC900B0FBF1F000F0DA
:100D70000700044308E0322000EB09106421B0FBB7
:100D8000F1F000F00F0004432C8106B0BDE8F087BD
:100D90004FF41651016000218180C18001810C2136
:100DA000418100218181704710B502460020108AE0
:100DB0004FF2FF0318400B884C8823438C88234351
:100DC000CC8823431843108210BD0021018041804C
:100DD0008180C180704721B1828942F400528281B2
:100DE00004E082894DF6FF731A4082817047F0B5A6
:100DF00003460024002600250020A1F510676A3F65
:100E000000D100BF1846C1F3421401F01F060127AC
:100E100007FA06F5012C01D10C3004E0022C01D1B7
:100E2000103000E014301AB107682F43076002E069
:100E30000768AF430760F0BD1AB1838A0B43838212
:100E400002E0838A8B4383827047028A4FF6F073F5
:100E50001A400282028A0A430282704782894FF254
:100E6000FF731A40828182890A438281704721B1CF
:100E7000828942F00202828104E082894FF6FD738A
:100E80001A4082817047028A4FF6DF731A4002824D
:100E9000028A0A430282704721B1028A42F48042E8
:100EA000028204E0028A4BF6FF731A400282704706
:100EB000C1F308028280704701468888C0F30800A9
:100EC0007047818941F0010181817047028BD2B264
:100ED0000283028B42EA012202837047028B02F4F2
:100EE0007F420283028B0A430283704721B1828AC8
:100EF00042F02002828204E0828A4FF6DF731A40B9
:100F00008282704721B1828A42F01002828204E01C
:100F1000828A4FF6EF731A408282704721B1828A2B
:100F200042F00802828204E0828A4FF6F7731A4088
:100F30008282704721B1828942F40042828103E0BB
:100F40008289C2F30E028281704721B1828A42F403
:100F50000062828204E0828A4FF2FF731A4082822A
:100F60007047828A4FF6FB731A408282828A0A4354
:100F70008282704721B1828A42F00202828204E0BA
:100F8000828A4FF6FD731A40828270470246002023
:100F9000B1F5007F00D100BF13880B4201D00120C2
:100FA00000E00020704701F40072B2F5007F00D12C
:100FB00000BFCA430280704770B502460024002378
:100FC00000250020A1F510666A3E00D100BFC1F3E4
:100FD000421501F01F03012606FA03F3012D02D189
:100FE0009689334006E0022D02D1168A334001E093
:100FF000968A33400C12012606FA04F4168834400F
:1010000013B10CB1012000E0002070BD10B500222A
:101010000023A1F510646A3C00D100BF0A1201242C
:101020009440A3B2DC43048010BD000000380140AE
:101030000044004000480040004C00400050004088
:101040000CB50020019000906B48006840F480309F
:101050006949086000BF6848006800F400300090EB
:101060000198401C0190009818B90198B0F5A06F44
:10107000F1D16148006810F4003F02D001200090D7
:1010800001E0002000900098012842D15B480068F0
:1010900040F01000594908600846006820F003003D
:1010A00008600846006840F0020008605248406846
:1010B000514948600846406848600846406840F426
:1010C000806048600846406820F47C10486008460C
:1010D000406840F4E81048600846006840F08070BE
:1010E000086000BF4448006810F0007FFAD0424812
:1010F000406820F00300404948600846406840F0DE
:101100000200486000BF3C48406800F00C0008281E
:10111000F9D10CBD10B5FFF793FF10BD10B53648DF
:10112000006840F0010034490860084640683449CE
:1011300008403149486008460068324908402E4955
:1011400008600846006820F480200860084640686F
:1011500020F4FE0048604FF41F008860FFF7DAFFBC
:101160004FF000602849086010BD10B50021002034
:101170000022214B5B6803F00C0121B1042906D049
:10118000082928D107E0214B214C236027E01F4B81
:101190001F4C236023E0184B5B6803F47010164B60
:1011A0005B6803F48032022303EB904022B9194BB1
:1011B0004343174C23600DE00F4B5B6813F4003F73
:1011C00004D0144B4343124C236003E00F4B4343C2
:1011D0000F4C236003E00D4B0D4C236000BF00BF9C
:1011E000054B5B68C3F303130B4CE15C084B1B68B6
:1011F000CB40074C236010BD00100240002002408D
:101200000000FFF8FFFFF6FE08ED00E000127A0094
:101210001800002000093D001C00002008B5012135
:101220001820FFF7FFFB4FF40050ADF8000010202E
:101230008DF8030003208DF8020069461D48FFF772
:10124000D5F80120ADF8000010208DF80300032030
:101250008DF8020069461848FFF7C8F80220ADF87B
:10126000000010208DF8030003208DF8020069466D
:101270001148FFF7BBF808BD012806D10D49C96820
:1012800081F400510B4AD16012E0022808D10A49CA
:101290000C31096881F00101074A0C32116007E046
:1012A00005490C31096881F00201034A0C321160D2
:1012B0007047000000100140000C014030B500BF35
:1012C0001F4800681F4AB0FBF2F1B1F1807F01D3E3
:1012D00001201DE021F07F40401E4FF0E0225061D0
:1012E00050170F22002807DA13071D0E164B00F0C7
:1012F0000F04241F1D5503E013071C0E134B1C5431
:1013000000BF00204FF0E022906107201061002014
:101310000028D5D130BD0E49088000BF0C4909888E
:101320000029FBD1704700B5024603E04FF47A7004
:10133000FFF7F1FF1000A2F101018AB2F6D100BD62
:101340001800002040420F0018ED00E000E400E02B
:101350000000002073B5054601A801F021FB0446FA
:10136000606900F26C7060612C222146284601F011
:101370003DF97CBD0FB410B50798A0F26C700790D2
:1013800002A801F0E3F810BC5DF814FB10B5FFF7FC
:10139000D1FB10BD30B58BB00446FFF7CBFB054643
:1013A00029466846FFF7D6FF2C226946204601F001
:1013B0001DF90BB030BD10B50446FFF7F7FB204612
:1013C000FFF7C1FBFFF7F2FB10BD0FB410B588B0FB
:1013D0001C220EA9684601F009F90AA80FC8FFF7F8
:1013E000C9FF0446FFF7E7FF08B010BC5DF814FB27
:1013F00008B54FF4C060FEF7C9FE03208DF8000069
:1014000001208DF8010000208DF8020001208DF8E8
:1014100003006846FEF7BFFE08BD10B501214FF07E
:10142000C050FFF70CFB0120FFF737F9FEF71CFF58
:101430000120FFF767FA00BF4120FFF7CCF9002831
:10144000FAD04FF48070FFF776FA0120FFF779FAAF
:10145000FFF7B4FBFFF7AAFB01210846FFF74AFBA1
:10146000FFF7A4FB47F6FF70FFF77AFBFFF79EFB41
:1014700010BD2DE9FF4105460E4617460024002009
:10148000009001900290039026E000BF2021F048D8
:10149000FFF77CFD0028F9D0ED48FFF70DFD214650
:1014A000621C94B24DF82100601E5DF820000D28EA
:1014B00002D1601E84B20FE0601E5DF8200030286B
:1014C00004D3601E5DF82000392804D9E1A001F0A2
:1014D0001FFB601E84B200BFBC42D6DB022F09D1C5
:1014E000019830380099303901EB810100EB41005F
:1014F00084B218E0039830380299303901EB810149
:1015000000EB41010198303800EBC00202EB001003
:1015100001EB80010098303800EB4002C2EBC010B4
:1015200001EBC00084B2B44201D8AC4208D23246CA
:101530002946D3A001F0ECFA002004B0BDE8F08108
:101540002046FAE700B593B02C2108A801F067F80F
:10155000D74801F0DDFAD7A001F0DAFA07E004225B
:1015600040F2F57140F2B270FFF783FF0D9040F248
:10157000F5710D988842F2DC40F2B2710D98884204
:10158000EDDBD6A00D9901F0C3FAD9A001F0C0FAA5
:1015900006E002220C210120FFF76BFF401E0C9099
:1015A0000C980C28F5DC0C980128F2DBDAA00C99D9
:1015B00001F0AEFADDA001F0ABFA05E002221F2136
:1015C0000120FFF756FF0B900B981F28F6DC0B98B5
:1015D0000128F3DBDEA00B9901F09AFAE0A001F0FC
:1015E00097FA05E0022217210120FFF742FF0A9037
:1015F0000A981728F6DC0A980128F3DBE1A00A997B
:1016000001F086FAE4A001F083FA05E002223B2112
:101610000120FFF72EFF099009983B28F6DC099876
:101620000128F3DBE6A0099901F072FAE9A001F0C4
:101630006FFA05E002223B210120FFF71AFF089014
:1016400008983B28F6DC08980128F3DBEBA0089902
:1016500001F05EFA1C220CA9684600F0C7FF08A83A
:101660000FC8FFF7B2FE13B000BD10B50420FEF79F
:1016700030FEA0F52541A5390FD0E5A001F048FACC
:10168000FFF7CBFEFFF75EFFE9A001F041FA4AF257
:10169000A5510420FEF711FE19E07B20FFF79BF80F
:1016A00018B1E9A001F034FA06E07A20FFF793F8C8
:1016B00010B1EDA001F02CFAF3A001F029FAFFF728
:1016C0007DFA01210846FFF715FAFFF76FFAFFF7D9
:1016D0008FFEFFF7E5F910BD00B593B02C2108A8E7
:1016E00000F09DFF0120FEF7D8FFFFF75FFA40F6FC
:1016F00016000D9000200C900B900A900990089015
:101700001C220CA9684600F071FF08A80FC8FFF75B
:101710005CFEFFF74BFA0020FEF7BFFF644801F0C4
:10172000F7F913B000BD10B5DF4BE0A219210A2074
:1017300000F00AFCDC4BE1A228210A2000F004FCA6
:1017400010BD00B58FB004A8FFF724FEDDE9052128
:101750000498CDE900120290DDE90730421CDBA0BD
:10176000099901F0D5F9D04B19210A20099A00F006
:1017700013FE0898401C01280ED1079801280BD1B0
:10178000069848B9059838B9049828B9C64BD8A224
:101790001921372000F0D8FB0898421CC24B1921B0
:1017A000372000F0F9FD079801280BD1069848B9B9
:1017B000059838B9049828B9BB4BCDA219214E2001
:1017C00000F0C2FBB84B19214E20079A00F0E4FD4F
:1017D000069848B9059838B9049828B9B24BC4A2FC
:1017E00028210A2000F0B0FBAF4B28210A20069ADE
:1017F00000F0D2FD059838B9049828B9AA4BBCA2CC
:101800002821252000F0A0FBA74B28212520059AA0
:1018100000F0C2FD049828B9A34BB5A228213F20AF
:1018200000F092FBA04B28213F20049A00F0B4FD69
:101830000FB000BD10B50120FFF7E4F938B1012069
:10184000FFF7F0F90120FFF717FDFFF77AFF10BD52
:1018500000380140506C6561736520656E74657277
:101860002076616C6964206E756D626572206265B8
:10187000747765656E203020616E6420390D0A0032
:10188000506C6561736520656E7465722076616C5D
:101890006964206E756D6265722062657477656536
:1018A0006E20256420616E642025640D0A0000000E
:1018B0009C2E0008506C6561736520536574205937
:1018C00065617273206265747765656E20313937A2
:1018D0003020746F20323033370D0A005365742086
:1018E00059656172733A202025640D0A00000000DA
:1018F000506C6561736520536574204D6F6E74681C
:1019000073206265747765656E20303120746F20B6
:1019100031320D0A00000000536574204D6F6E7463
:1019200068733A202025640D0A000000506C656140
:101930007365205365742044617973206265747700
:1019400065656E20303120746F2033310D0A000040
:1019500053657420446179733A202025640D0A0090
:10196000506C656173652053657420486F757273A0
:10197000206265747765656E20303120746F203287
:10198000330D0A0053657420486F7572733A202036
:1019900025640D0A00000000506C656173652053DA
:1019A0006574204D696E7574657320626574776522
:1019B000656E20303120746F2035390D0A0000002B
:1019C000536574204D696E757465733A20202564E3
:1019D0000D0A0000506C65617365205365742053D7
:1019E00065636F6E6473206265747765656E203021
:1019F0003120746F2035390D0A00000053657420C2
:101A00005365636F6E64733A202025640D0A0000ED
:101A1000525443206E6F742079657420636F6E6634
:101A20006967757265642E2E2E2E0D0A0000000067
:101A300052544320636F6E666967757265642E2E1B
:101A40002E2E0D0A00000000506F776572204F6E39
:101A5000205265736574206F636375727265642EBE
:101A60002E2E2E0D0A00000045787465726E616C92
:101A7000205265736574206F636375727265642E9E
:101A80002E2E2E0D0A0000004E6F206E656564201C
:101A9000746F20636F6E6669677572652052544378
:101AA0002E2E2E2E0D0A00002E0000202020202099
:101AB000C4EA2020D4C22020C8D500002020CAB10A
:101AC0002020B7D62020C3EB0000000054696D65CC
:101AD0003A2025642D25642D2564202020253032D0
:101AE000643A253032643A25303264200D0A000011
:101AF0002020000000B585B0012144F20400FEF76B
:101B000091FF4FF40070ADF8100018208DF813000D
:101B100003208DF8120004A92448FEF767FC4FF457
:101B20008060ADF8100004208DF8130003208DF8BC
:101B3000120004A91D48FEF759FC4FF416500090FE
:101B40000020ADF80400ADF80600ADF80800ADF8CF
:101B50000C000C20ADF80A0069461548FFF7AFF8F5
:101B600040211348FFF71FFA012240F22551104887
:101B7000FFF73DF9012240F227710D48FFF737F9D1
:101B800001210B48FFF727F905B000BD70B50446E9
:101B90000D46E1B20648FFF78BF900BF402104482B
:101BA000FFF7F4F90028F9D0204670BD0008014085
:101BB0000038014000E0401E0028FCD1704710B5FD
:101BC0000A461023FB4C236020232360012A03D103
:101BD0008023241F236002E08023F64C236020230F
:101BE000F44C241F2360002114E010F0800F04D077
:101BF0008023F04C241F236002E08023ED4C2360FF
:101C00002023EC4C23604306180E2023241F23605E
:101C10004B1CD9B20829E8DB1023E64C241F2360B3
:101C200010BD30B500241CE004F1B001C8B20021A1
:101C3000FFF7C5FF00210846FFF7C1FF0021102074
:101C4000FFF7BDFF002508E0DB4901EBC411485D4B
:101C50000121FFF7B4FF681CC5B2802DF4DB601CC6
:101C6000C4B2082CE0DB30BD08B501210420FEF72A
:101C7000D9FE1020ADF8000003208DF802001020DE
:101C80008DF803006946CB481438FEF7AFFB2020DF
:101C9000ADF8000003208DF8020010208DF803003D
:101CA0006946C4481438FEF7A1FB4020ADF8000097
:101CB00003208DF8020010208DF803006946BD480E
:101CC0001438FEF793FB8020ADF8000003208DF858
:101CD000020010208DF803006946B6481438FEF75C
:101CE00085FB1020B349091F086008BD10B5FFF738
:101CF000BBFFB248FFF75EFF0021AE20FFF75FFF9A
:101D000000210846FFF75BFF00211020FFF757FF77
:101D100000214020FFF753FF00218120FFF74FFFF4
:101D20000021CF20FFF74BFF0021A120FFF747FF45
:101D30000021A620FFF743FF0021A820FFF73FFF67
:101D400000213F20FFF73BFF0021D320FFF737FFA3
:101D500000210846FFF733FF0021D520FFF72FFFB2
:101D600000218020FFF72BFF0021D920FFF727FF5C
:101D70000021F120FFF723FF0021DA20FFF71FFFEA
:101D800000211220FFF71BFF0021DB20FFF717FFC8
:101D900000214020FFF713FF00218D20FFF70FFFE8
:101DA00000211420FFF70BFF0021AF20FFF707FFF2
:101DB00010BD30B500241CE004F1B001C8B2002110
:101DC000FFF7FDFE00210846FFF7F9FE0021102075
:101DD000FFF7F5FE002508E0774901EBC411485DE7
:101DE0000121FFF7ECFE681CC5B2802DF4DB601CFE
:101DF000C4B2082CE0DB30BD70B5064600240BE011
:101E0000002505E06C4800EBC4104655681CC5B2BF
:101E1000802DF7DB601CC4B2082CF1DB6848007829
:101E2000012801D1FFF7C5FF70BD10B5FFF75EFFB8
:101E30000020FFF7E1FF0020624908800120488070
:101E400000208880C88001205F49088048800020E9
:101E500088800120C88010BD00B500218D20FFF7CB
:101E6000AEFE00211420FFF7AAFE0021AF20FFF7ED
:101E7000A6FE00BD00B500218D20FFF7A0FE0021C9
:101E80001020FFF79CFE0021AE20FFF798FE00BD5A
:101E900000204B490870704710B501204849087070
:101EA000FFF787FF10BD2DE9FF4380460C469146A2
:101EB00046A103C9CDE9020146A103C9CDE900014C
:101EC0002046E11704EB5171C1F3C707C8F17F0049
:101ED000C6B2394800EBC710855DB9F1000F0AD1D1
:101EE0002046E11704EB5171C910A4EBC1011DF8A4
:101EF00001100D4009E02046E11704EB5171C910B3
:101F0000A4EBC10102AA515C0D432B4800EBC710A2
:101F100085552B480078012814D107F1B001C8B2CB
:101F20000021FFF74CFE06F00F000021FFF747FEEF
:101F3000102101EB16100021FFF741FE0121284678
:101F4000FFF73DFEBDE8FF832DE9FF4F9BB09046B4
:101F50009946B9F80000012807D10C2005900C27FC
:101F600018241E4802901E4E06E0102005901027EF
:101F700020241C4802901C4EAFE098F800001A90F4
:101F80001A98802832DA019404EBD4704FEA600C7E
:101F900000941A9B029803FB0C0104EBD4704210CE
:101FA00007A800F023FB384607EBD071C1F34701C7
:101FB00006914DE01408014044000020FFFF0F008F
:101FC0002C000020360000202E0000200102040812
:101FD00010204080FEFDFBF7EFDFBF7FE02E000802
:101FE000D4440008D43400087646000808F1010003
:101FF000804600781990199800B973E04FF0000AF4
:1020000023E0A01C0AFB00F50AF1010000F0FF0A22
:10201000715D1A9881420BD1681C315C199881421C
:1020200006D1AD1C7119224607A800F0DFFA0DE0B9
:10203000705DFF2809D1681C305CFF2805D1FF22A4
:10204000214607A800F0E4FA00E0DAE700BF0697AF
:102050001C9803904FF0000A32E01B9804904FF058
:10206000000B22E00698400090FBF7F000FB0AF01E
:1020700000EBDB0007A9085C0BF00702802111418F
:10208000084206D099F80220DDE90310FFF70BFFA4
:1020900005E099F80420DDE90310FFF704FF049838
:1020A000401C80B204900BF1010B06988345D9D3F4
:1020B0000398401C80B203900AF1010000F0FF0A6F
:1020C00005988245C9DBB9F80610069801441B98AB
:1020D000084480B21B9008F1010898F8000000281D
:1020E0007FF44BAF00BF1FB0BDE8F08F70B5024664
:1020F0000846CE1701EB5676C6F3C704C2F17F003F
:10210000C5B2FB4800EBC410435DCE1701EB567619
:10211000F610A1EBC6061E4201D0012070BD0020C2
:10212000FCE72DE9F04F86B004460D4616461F46E3
:10213000294620460F9AFFF7B6FEB44204D1BD42AD
:1021400002D106B0BDE8F08F00200190A64202DB6C
:10215000A6EB040801E0A4EB0608AF4202DBA7EB04
:10216000050901E0A5EB0709C8450CDA0121019139
:1021700020462C46054630463E4607461FFA88F064
:10218000C846814600BFA64201DD012001E04FF0B4
:10219000FF300590AF4201DD012001E04FF0FF303C
:1021A0000490A24600954FEA49000390A9EB08006D
:1021B000400002900398A0EB080B1EE0BBF1000F5B
:1021C00002DA0398834405E00499009808440090DB
:1021D00002988344019838B11FFA8AF1009A90B2AC
:1021E0000F9AFFF760FE06E0009A91B21FFA8AF09C
:1021F0000F9AFFF758FE05988244B245DED100BF22
:102200009FE72DE9F84105460E46174698460024FB
:102210000FE004F1010CCDF8008036F81C3035F8E1
:102220001C2036F8141035F81400FFF77AFF601CF4
:1022300084B2781EA042ECDCBDE8F8812DE9F841BB
:1022400004460D4616461F46DDF81C80E019401E68
:1022500082B22B4629462046CDF80080FFF761FF69
:10226000A819401E83B2E019401E82B2A819401E70
:1022700081B22046CDF80080FFF753FFA819401E19
:1022800083B2224629462046CDF80080FFF749FF59
:10229000A9198BB2E119491E8AB2E119491E88B207
:1022A0002946CDF80080FFF73CFFBDE8F8812DE915
:1022B000F04706460F4690469A460320A0EB480991
:1022C0000024454646E07A1991B2321990B252463E
:1022D000FFF7E9FD7A1B91B2321990B25246FFF72F
:1022E000E2FD7A1991B2321B90B25246FFF7DBFD44
:1022F0007A1B91B2321B90B25246FFF7D4FD3A19C5
:1023000091B2721990B25246FFF7CDFD3A1B91B2CD
:10231000721990B25246FFF7C6FD3A1991B2721B7C
:1023200090B25246FFF7BFFD3A1B91B2721B90B2BA
:102330005246FFF7B8FDB9F1000F04DA062000EBB2
:102340008400814405E0601B0A2101EB8000814488
:102350006D1E641CAC42B6D9BDE8F0872DE9F0478C
:1023600006460F4690469946DDF820A000240FE06F
:10237000002509E09AF800207B1999B2331998B228
:10238000FFF791FD681C85B24545F3DB601C84B204
:102390004C45EDDBBDE8F0872DE9FE4F80468946D0
:1023A00016469A460927354600208DF80A000A2469
:1023B00010E00A20B5FBF0F100FB11503030611E37
:1023C0000DF801000A20B5FBF0F50DB1781EC7B27B
:1023D000601EC4B2BC4201DD012000E00020002CE0
:1023E00001DD012100E000210842E2D10DEB0402F1
:1023F000534649464046FFF7A7FDBDE8FE8F10B59E
:102400000246012000E050430B00A1F10104E1B2BB
:10241000F9D110BD2DE9FF5F8AB015461E46DDF8E3
:1024200060A04FF0090B2846314600F059FA099098
:1024300051460A20FFF7E3FF074600F025FACDE9F1
:102440000201099800F00FFA07462A46334600F0C9
:1024500095F9CDE90001DDE9022300F092F9CDE91B
:10246000040100F01EFA814600208DF822000024AD
:1024700006E03020C4F1090106AA5054601CC4B221
:102480005445F6DB0A2415E00A2099FBF0F100FB25
:1024900011903030C1B2601E06AA11540A2099FB77
:1024A000F0F9B9F1000F03D0ABF1010000F0FF0B20
:1024B000601EC4B25C4501DD012000E00020002C5C
:1024C00001DD012100E000210842DDD12E20CAF10A
:1024D000090106AA5054CAF10900C4B2CAF10800A1
:1024E00000F0FF0B2846314600F0FAF9814617E06C
:1024F000440000200A2099FBF0F100FB11903030DD
:10250000C1B2601E06AA11540A2099FBF0F9B9F174
:10251000000F03D0ABF1010000F0FF0B601EC4B24E
:102520005C4501DD012000E00020002C01DD0121DF
:1025300000E000210842DDD106A80219199BDDE95F
:102540000A01FFF701FD0EB0BDE8F09F38B5D0E9F4
:102550000221491E01EB410102EBC1014268C1EBBE
:10256000011102EB81010268C1EB011102EB810351
:10257000D0E9042101EB410102EB8101A1F5527187
:10258000302491FBF4F2154D04FB1211554303EB7B
:10259000C51300931A2902DB114A1A4400920C2336
:1025A00091FBF3F20F4C009D544303FB121105EB1A
:1025B000C4140D4B009408E0491E40F2A3245A5C59
:1025C0006243009C04EBC21200920029F4DC014635
:1025D000684600F0EBF9009838BD00003F0C0F0092
:1025E0008051010067C203004447000840EA01032C
:1025F0009B0703D009E008C9121F08C0042AFAD2B9
:1026000003E011F8013B00F8013B521EF9D270477C
:10261000D2B201E000F8012B491EFBD27047002224
:10262000F6E710B513460A4604461946FFF7F0FFD1
:10263000204610BD2DE9FE4F804681EA0300C00F01
:102640000C46009021F0004123F00045B8EB020059
:10265000A94105D24046214690461C460B460246FB
:1026600023F00040104304D14046214603B0BDE8AA
:10267000F08F270DC7F30A00C3F30A510290401AE6
:102680000190402866DAC3F3130040F4801B0098E1
:10269000924620B10023D2EB030A63EB0B0B0198A7
:1026A0005946C0F14002504600F049F906460D4631
:1026B00050465946019A00F061F910EB080061415B
:1026C000002487EA115284EAE7731A433BD0009A48
:1026D0003AB3019A012A4FEA075210DC001B61EB62
:1026E00002014FF0004202EA0752CDE90042001C0D
:1026F00041F5801132462B4600F0A5F9B6E7001BE4
:1027000061EB0201001C41F5801300185B412018A9
:10271000A2F5001747EB030140EAD570B6196D41E9
:1027200011E06D084FEA360645EAC0754FEA0752D8
:10273000001B61EB0201001C41F5801149084FEAC2
:1027400030000019514132462B4603B0BDE8F04F2E
:1027500000F06CB90098012240000023D0EB020287
:1027600063EBE073009821464FEAE074B8EB000099
:1027700061EB0401E9E783F000435BE781F000418E
:1027800058E72DE9FE4F81EA030404F0004421F0EC
:10279000004100944FF0000B23F0004350EA010485
:1027A00002D052EA030404D10020014603B0BDE880
:1027B000F08FC3F30A54C1F30A552C44A4F2F33446
:1027C0000194A0FB0254C1F3130141F48011C3F33F
:1027D000130343F4801301FB024400FB034E840AFD
:1027E000970A44EA815447EA8357A4FB0768029595
:1027F0008D0A05FB07854FEA932C04FB0C54270533
:10280000029D4FEA065847EA1637B5EB08056EEB0E
:10281000070C870E920E47EA811742EA8312A7FB44
:102820000201B6EB0B0164EB00042B0D43EA0C3301
:102830005E1844EB1C50DA465146E7FB0201C5F333
:1028400013044FEA0B3343EA14534FEA0432019C5A
:1028500043EA0603A4F10C040294009CCDE900B401
:1028600000F0F1F8A2E70EB5C10F80EAE07008446D
:10287000CA07002140F233438DE80E000A460B469A
:1028800000F0E1F803B000BD0EB540F23341029113
:102890000021CDE900110A460B4600F0D4F803B040
:1028A00000BD70B5C1F30A5201F000450024C1F328
:1028B000130140F2FF3341F480119A4201DA002003
:1028C00070BD40F233439A42A2F2334203DC5242DB
:1028D00000F044F800E090402C43F1D0404270BD3D
:1028E000C1F30A5210B5C1F3130140F2FF3341F4B2
:1028F00080119A4201DA002010BD40F233439A421F
:10290000A2F2334203DC524200F028F810BD90409E
:1029100010BD30B50B46014600202022012409E0FD
:1029200021FA02F59D4205D303FA02F5491B04FA88
:1029300002F52844151EA2F10102F1DC30BD202A67
:1029400004DB203A00FA02F1002070479140C2F106
:10295000200320FA03F3194390407047202A04DB38
:10296000203A21FA02F00021704721FA02F3D04008
:10297000C2F120029140084319467047202A06DB25
:10298000CB17203A41FA02F043EAE07306E041FA3D
:1029900002F3D040C2F1200291400843194670472B
:1029A000014900F003B800004404002030B503687A
:1029B0003C22B3FBF2F002FB10330B60B0FBF2F3EE
:1029C00002FB130018244860B3FBF4F004FB103240
:1029D0008A60021D0723B2FBF3F403FB14228A6111
:1029E000820002F66C3240F2B555B2FBF5F404F108
:1029F00044000346486105FB14208008C8613B2859
:102A000002D39A0700D0401C0022074C13460A61EB
:102A1000E25C824203D8801A5B1C0B61F8E7401C21
:102A2000C860084630BD00005047000810B5002BB4
:102A300008DA401C41F1000192185B411A4301D1B0
:102A400020F0010010BD2DE9F04D92469B4611B1DA
:102A5000B1FA81F202E0B0FA80F220329046FFF73C
:102A60006EFF04460F4640EA0A0041EA0B01534656
:102A70005A46084303D120463946BDE8F08D114639
:102A800053EA010015D0C8F140025046FFF766FF37
:102A900005460E46504659464246FFF750FF08434A
:102AA00001D0012000E00020054346EAE0762C43F7
:102AB00037430A984FEA4453A0EB08004FEAD42466
:102AC0000A304FF0000244EA47544FEAD72502D5B6
:102AD00000200146D1E7010510196941DDE90845EB
:102AE00000196941BDE8F04DA0E70000064C074D14
:102AF00006E0E06840F0010394E8070098471034CE
:102B0000AC42F6D3FDF7F6FA5C4700087C470008B4
:102B10000FB4054B10B503A9044A029800F018F849
:102B200010BC5DF814FB00008D1B00084000002065
:102B300002E008C8121F08C1002AFAD17047704786
:102B4000002001E001C1121F002AFBD170470000E4
:102B50002DE9FF4F8BB088460546002667E1252802
:102B60007AD100246D1CB649A146A24601222B78D9
:102B7000203B02FA03F0084202D004436D1CF6E742
:102B800028782A2810D06FF02F022878A0F1300181
:102B9000092915D809EB890102EB410144F002042F
:102BA00000EB01096D1CF0E758F8049BB9F1000F28
:102BB00003DA44F40054C9F1000944F002046D1C26
:102BC00028782E2817D115F8010F44F004042A287C
:102BD0000ED06FF02F022878A0F1300109290AD811
:102BE0000AEB8A0102EB410100EB010A6D1CF2E7DE
:102BF00058F804AB6D1C28786C280FD006DC4C28E4
:102C000017D068280DD06A2814D104E0742810D099
:102C10007A280FD10DE044F400140AE044F4801443
:102C200001E044F440146978814202D16D1C04F53E
:102C300080146D1C2878692866D007DC002876D0BF
:102C4000632828D0642807D15EE005E06E2808D00C
:102C500073282AD075287AD0DDE90D129047761CAA
:102C6000E4E0C4F30250022809D003280DD0D8F8BC
:102C7000001004280DD00E6008F10408D6E0D8F842
:102C80000010F217C1E90062F6E7D8F800100E80D4
:102C9000F2E70E70F0E718F8041B8DF80010002022
:102CA0008DF80100EB46012003E058F804BB4FF01B
:102CB000FF3061074FF0000701D40AE07F1C574541
:102CC0000DDA8742FADB1BF807100029F6D106E07F
:102CD0007F1C8742FCDB1BF807100029F8D1DDE9D7
:102CE0000D23A9EB07008146214600F0BEF83044D1
:102CF000C61904E0DDE90D121BF8010B90477F1E99
:102D0000F8D2214648468CE058F8040BC4F302512F
:102D10004FF00A0B032900D100B2042900D140B2C0
:102D2000002806DAC0F100004FF02D0104E082E037
:102D30000DE0210504D52B218DF82410012103E09D
:102D4000E10710D02021F7E708AF089114E058F808
:102D5000040BC4F302514FF00A0B032900D180B2D7
:102D6000042900D1C0B20021EEE75946FFF7D1FD9A
:102D700001F1300107F8011D0028F6D1ADEB070085
:102D800000F1200B600702D524F4803401E04FF0FD
:102D9000010ADA4502DDAAEB0B0000E000208246C2
:102DA00000EB0B0108980144A9EB01000A90E00335
:102DB00006D4DDE90D2321460A9800F056F80644B2
:102DC000002008E009A911F80900DDE90D1290477B
:102DD000761C09F10100089981468842F2DBE00384
:102DE0000CD5DDE90D2321460A9800F03EF8064493
:102DF00004E0DDE90D1230209047761CBAF10001A5
:102E0000AAF1010AF5DC05E0DDE90D1217F8010B66
:102E10009047761CBBF10001ABF1010BF4DC0A9882
:102E20002146DDE90D2300F00DF806446D1C2878DD
:102E300000287FF494AE0FB03046BDE8F08F00005C
:102E4000092801002DE9F041044600251E461746D9
:102E5000880405D406E039462020B04705F1010575
:102E6000641EF8D52846BDE8F0812DE9F0410446FE
:102E700000251E469046C80301D5302700E02027D4
:102E8000880405D506E041463846B04705F10105FE
:102E9000641EF8D52846BDE8F08100003D3D3D3D6B
:102EA0003D3D3D3D3D3D3D3D3D3D3D3D3D3D3D3D52
:102EB0003D3D3D54696D652053657474696E67735B
:102EC0003D3D3D3D3D3D3D3D3D3D3D3D3D3D3D3D32
:102ED0003D3D3D3D3D3D3D3D3D3D0D0A0000000079
:102EE00000000000000000000000000000000000E2
:102EF00000000000000000000000000000000000D2
:102F000000000000000000000000000000000000C1
:102F100000000000000000000000000000000000B1
:102F200000000000000000000000000000000000A1
:102F30000000000000000000000000000000000091
:102F40000000000000000000000000000000000081
:102F50000000000000000000000000000000000071
:102F60000000000000000000000000000000000061
:102F70000000000000000000000000000000000051
:102F80000000000000000000000000000000000041
:102F90000000000000000000000000000000000031
:102FA0000000000000000000000000000000000021
:102FB0000000000000000000000000000000000011
:102FC0000000000000000000000000000000000001
:102FD00000000000000000000000000000000000F1
:102FE00000000000000000000000000000000000E1
:102FF00000000000000000000000000000000000D1
:1030000000000000000000000000000000000000C0
:1030100000000000000000000000000000000000B0
:1030200000000000000000000000000000000000A0
:103030000000000000000000000000000000000090
:103040000000000000000000000000000000000080
:103050000000000000000000000000000000000070
:103060000000000000000000000000000010101030
:103070001010000010000000006C48480000000024
:1030800000000000001414287C287C285050000008
:1030900000103840403848701010000000205020C8
:1030A0000C7008140800000000000018202054488C
:1030B000340000000010101010000000000000009C
:1030C0000008081010101010100808000020201030
:1030D000101010101020200000107C102828000074
:1030E000000000000000101010FC10101000000084
:1030F0000000000000000018103020000000000058
:10310000007C000000000000000000000000003013
:1031100030000000000404080810102020400000C7
:103120000038444444444444380000000030101047
:10313000101010107C0000000038440408102044D7
:103140007C000000003844041804044438000000E7
:10315000000C141424447C040C000000003C2020CB
:103160003804044438000000001C204078444444E3
:1031700038000000007C440408080810100000001B
:103180000038444438444444380000000038444483
:10319000443C0408700000000000003030000030A3
:1031A0003000000000000018180000183020000057
:1031B00000000C10608060100C0000000000000097
:1031C0007C007C00000000000000C02018041820D3
:1031D000C0000000000018240408100030000000A7
:1031E0003844444C54544C404438000000301028BB
:1031F00028287C44EC00000000F84444784444440F
:10320000F8000000003C44404040404438000000CA
:1032100000F0484444444448F000000000FC44509E
:1032200070504044FC000000007C202838282020FA
:1032300070000000003C4440404C44443800000012
:1032400000EC44447C444444EC000000007C10103A
:10325000101010107C000000003C08080848484886
:103260003000000000EC444850704844E400000086
:1032700000702020202024247C00000000EC6C6CD6
:1032800054544444EC00000000EC64645454544C26
:10329000EC0000000038444444444444380000003A
:1032A0000078242424382020700000000038444492
:1032B00044444444381C000000F8444444784844E2
:1032C000E000000000344C40380404645800000062
:1032D00000FC9010101010103800000000EC444466
:1032E000444444443800000000EC4444282828109A
:1032F0001000000000EC44445454545428000000D2
:1033000000C4442810102844C400000000EC4428E5
:103310002810101038000000007C440810102044D1
:103320007C000000003820202020202020203800B1
:10333000004020202010100808080000003808086D
:103340000808080808083800001010284400000089
:10335000000000000000000000000000000000FC71
:10336000001008000000000000000000000000380D
:10337000443C44443C00000000C040586444444481
:10338000F80000000000003C4440404438000000C9
:10339000000C04344C4444443C000000000000385D
:1033A000447C40403C000000001C207C2020202069
:1033B0007C000000000000344C4444443C043800CD
:1033C00000C0405864444444EC0000000010007009
:1033D000101010107C000000001000780808080889
:1033E0000808700000C0405C48705048DC000000D5
:1033F00000301010101010107C000000000000E8D9
:1034000054545454FC000000000000D86444444468
:10341000EC00000000000038444444443800000040
:10342000000000D8644444447840E00000000034C8
:103430004C4444443C040C000000006C302020202C
:103440007C0000000000003C443804447800000088
:103450000000207C202020201C000000000000CC68
:103460004444444C34000000000000EC444428284C
:1034700010000000000000EC4454545428000000E8
:10348000000000CC48303048CC000000000000ECC8
:1034900044242818101078000000007C48102044B4
:1034A0007C00000000081010101020101010080000
:1034B000001010101010101010100000002010103C
:1034C0001010081010102000000000000024580008
:1034D00000000000000000000000000000000000EC
:1034E0000000000000007E81A58181BD9981817E60
:1034F0000000000000007EFFDBFFFFC3E7FFFF7E50
:1035000000000000000000006CFEFEFEFE7C381093
:10351000000000000000000010387CFE7C38100025
:1035200000000000000000183C3CE7E7E718183CEA
:1035300000000000000000183C7EFFFF7E18183CD1
:1035400000000000000000000000183C3C180000D3
:1035500000000000FFFFFFFFFFFFE7C3C3E7FFFF1F
:10356000FFFFFFFF00000000003C664242663C0097
:1035700000000000FFFFFFFFFFC399BDBD99C3FF1F
:10358000FFFFFFFF00001E0E1A3278CCCCCCCC78A7
:103590000000000000003C666666663C187E181855
:1035A0000000000000003F333F3030303070F0E06A
:1035B0000000000000007F637F6363636367E7E6EA
:1035C000C00000000000001818DB3CE73CDB1818C6
:1035D000000000000080C0E0F0F8FEF8F0E0C080DD
:1035E000000000000002060E1E3EFE3E1E0E0602F9
:1035F000000000000000183C7E1818187E3C1800DF
:103600000000000000006666666666666600666624
:103610000000000000007FDBDBDB7B1B1B1B1B1B98
:1036200000000000007CC660386CC6C66C380CC652
:103630007C0000000000000000000000FEFEFEFE16
:10364000000000000000183C7E1818187E3C187E10
:10365000000000000000183C7E18181818181818F0
:10366000000000000000181818181818187E3C18E0
:10367000000000000000000000180CFE0C18000004
:103680000000000000000000003060FE603000001C
:1036900000000000000000000000C0C0C0FE0000EC
:1036A000000000000000000000286CFE6C280000F4
:1036B00000000000000000001038387C7CFEFE0096
:1036C0000000000000000000FEFE7C7C3838100086
:1036D00000000000000000000000000000000000EA
:1036E000000000000000183C3C3C18181800181896
:1036F0000000000000666666240000000000000074
:10370000000000000000006C6CFE6C6C6CFE6C6CC9
:103710000000000018187CC6C2C07C060686C67C65
:103720001818000000000000C2C60C183060C686E1
:10373000000000000000386C6C3876DCCCCCCC7615
:103740000000000000303030600000000000000089
:103750000000000000000C18303030303030180C01
:1037600000000000000030180C0C0C0C0C0C183081
:10377000000000000000000000663CFF3C66000006
:1037800000000000000000000018187E181800005B
:1037900000000000000000000000000000181818E1
:1037A0003000000000000000000000FE00000000EB
:1037B00000000000000000000000000000001818D9
:1037C000000000000000000002060C183060C080FD
:1037D000000000000000386CC6C6D6D6C6C66C38DD
:1037E0000000000000001838781818181818187E03
:1037F0000000000000007CC6060C183060C0C6FE49
:103800000000000000007CC606063C060606C67CDA
:103810000000000000000C1C3C6CCCFE0C0C0C1ECC
:10382000000000000000FEC0C0C0FC060606C67C0A
:103830000000000000003860C0C0FCC6C6C6C67CE0
:10384000000000000000FEC606060C1830303030C4
:103850000000000000007CC6C6C67CC6C6C6C67C8A
:103860000000000000007CC6C6C67E0606060C7876
:1038700000000000000000001818000000181800E8
:1038800000000000000000001818000000181830A8
:1038900000000000000000060C18306030180C0614
:1038A0000000000000000000007E00007E0000001C
:1038B000000000000000006030180C060C1830609A
:1038C0000000000000007CC6C60C1818180018186C
:1038D000000000000000007CC6C6DEDEDEDCC07C2E
:1038E00000000000000010386CC6C6FEC6C6C6C682
:1038F000000000000000FC6666667C66666666FC8A
:103900000000000000003C66C2C0C0C0C0C2663CEF
:10391000000000000000F86C6666666666666CF87B
:10392000000000000000FE6662687868606266FE63
:10393000000000000000FE6662687868606060F069
:103940000000000000003C66C2C0C0DEC6C6663A89
:10395000000000000000C6C6C6C6FEC6C6C6C6C673
:103960000000000000003C18181818181818183C1F
:103970000000000000001E0C0C0C0C0CCCCCCC7811
:10398000000000000000E666666C78786C6666E60B
:10399000000000000000F06060606060606266FE31
:1039A000000000000000C6EEFEFED6C6C6C6C6C6B3
:1039B000000000000000C6E6F6FEDECEC6C6C6C6A3
:1039C0000000000000007CC6C6C6C6C6C6C6C67CCF
:1039D000000000000000FC6666667C60606060F0CD
:1039E0000000000000007CC6C6C6C6C6C6D6DE7C87
:1039F0000C0E00000000FC6666667C6C666666E67F
:103A00000000000000007CC6C660380C06C6C67CFC
:103A10000000000000007E7E5A1818181818183C84
:103A2000000000000000C6C6C6C6C6C6C6C6C67C24
:103A3000000000000000C6C6C6C6C6C6C66C381068
:103A4000000000000000C6C6C6C6D6D6D6FEEE6C84
:103A5000000000000000C6C66C7C38387C6CC6C60E
:103A6000000000000000666666663C181818183CE6
:103A7000000000000000FEC6860C183060C2C6FEC2
:103A80000000000000003C30303030303030303C3E
:103A90000000000000000080C0E070381C0E06022C
:103AA0000000000000003C0C0C0C0C0C0C0C0C3C3E
:103AB0000000000010386CC600000000000000008C
:103AC00000000000000000000000000000000000F6
:103AD00000FF00003030180000000000000000006F
:103AE000000000000000000000780C7CCCCCCC76FC
:103AF000000000000000E06060786C666666667C2E
:103B00000000000000000000007CC6C0C0C0C67CF1
:103B10000000000000001C0C0C3C6CCCCCCCCC7623
:103B20000000000000000000007CC6FEC0C0C67C93
:103B3000000000000000386C6460F060606060F0BD
:103B400000000000000000000076CCCCCCCCCC7C87
:103B50000CCC78000000E060606C7666666666E615
:103B60000000000000001818003818181818183C39
:103B70000000000000000606000E06060606060607
:103B800066663C000000E06060666C78786C66E613
:103B90000000000000003818181818181818183CF1
:103BA000000000000000000000ECFED6D6D6D6C60D
:103BB000000000000000000000DC666666666666C5
:103BC0000000000000000000007CC6C6C6C6C67C1F
:103BD000000000000000000000DC66666666667C8F
:103BE0006060F000000000000076CCCCCCCCCC7C37
:103BF0000C0C1E000000000000DC7666606060F0C7
:103C00000000000000000000007CC660380CC67C8C
:103C1000000000000000103030FC30303030361C26
:103C2000000000000000000000CCCCCCCCCCCC7656
:103C300000000000000000000066666666663C1832
:103C4000000000000000000000C6C6D6D6D6FE6CFC
:103C5000000000000000000000C66C3838386CC658
:103C6000000000000000000000C6C6C6C6C6C67E32
:103C7000060CF8000000000000FECC183060C6FE04
:103C80000000000000000E18181870181818180E00
:103C9000000000000000181818180018181818184C
:103CA000000000000000701818180E18181818707E
:103CB00000000000000076DC0000000000000000B2
:103CC000000000000000000010386CC6C6C6FE00F0
:103CD0000000000000003C66C2C0C0C0C2663C0CD0
:103CE000067C00000000CC0000CCCCCCCCCCCC7648
:103CF00000000000000C1830007CC6FEC0C0C67C6E
:103D0000000000000010386C00780C7CCCCCCC7625
:103D1000000000000000CC0000780C7CCCCCCC76FD
:103D2000000000000060301800780C7CCCCCCC7611
:103D30000000000000386C3800780C7CCCCCCC76CD
:103D400000000000000000003C666060663C0C065D
:103D50003C0000000010386C007CC6FEC0C0C67C71
:103D6000000000000000C600007CC6FEC0C0C67C8B
:103D70000000000000603018007CC6FEC0C0C67C99
:103D80000000000000006600003818181818183CE1
:103D90000000000000183C66003818181818183C7D
:103DA0000000000000603018003818181818183C7F
:103DB0000000000000C60010386CC6C6FEC6C6C6AD
:103DC00000000000386C3800386CC6C6FEC6C6C697
:103DD0000000000018306000FE66607C606066FED7
:103DE000000000000000000000CC76367ED8D86EBF
:103DF0000000000000003E6CCCCCFECCCCCCCCCE85
:103E0000000000000010386C007CC6C6C6C6C67C28
:103E1000000000000000C600007CC6C6C6C6C67C06
:103E20000000000000603018007CC6C6C6C6C67C14
:103E300000000000003078CC00CCCCCCCCCCCC76D0
:103E4000000000000060301800CCCCCCCCCCCC768C
:103E5000000000000000C60000C6C6C6C6C6C67E7A
:103E6000060C780000C6007CC6C6C6C6C6C6C67CA0
:103E70000000000000C600C6C6C6C6C6C6C6C67CD0
:103E8000000000000018183C66606060663C18186E
:103E90000000000000386C6460F060606060E6FC68
:103EA00000000000000066663C187E187E18181896
:103EB0000000000000F8CCCCF8C4CCDECCCCCCC6E2
:103EC00000000000000E1B1818187E18181818188B
:103ED000D87000000018306000780C7CCCCCCC7618
:103EE00000000000000C1830003818181818183C92
:103EF0000000000000183060007CC6C6C6C6C67C44
:103F0000000000000018306000CCCCCCCCCCCC76CB
:103F100000000000000076DC00DC6666666666660F
:103F20000000000076DC00C6E6F6FEDECEC6C6C6A1
:103F300000000000003C6C6C3E007E0000000000B1
:103F40000000000000386C6C38007C0000000000AD
:103F5000000000000000303000303060C0C6C67C79
:103F600000000000000000000000FEC0C0C0C00053
:103F700000000000000000000000FE06060606002B
:103F80000000000000C0C0C2C6CC183060DC860C47
:103F9000183E000000C0C0C2C6CC183066CE9E3E9F
:103FA0000606000000001818001818183C3C3C18C1
:103FB000000000000000000000366CD86C360000E5
:103FC000000000000000000000D86C366CD8000033
:103FD00000000000114411441144114411441144E3
:103FE0001144114455AA55AA55AA55AA55AA55AA2D
:103FF00055AA55AADD77DD77DD77DD77DD77DD77CB
:10400000DD77DD77181818181818181818181818E8
:104010001818181818181818181818F81818181840
:10402000181818181818181818F818F81818181850
:104030001818181836363636363636F636363636D8
:104040003636363600000000000000FE36363636C2
:10405000363636360000000000F818F81818181820
:10406000181818183636363636F606F63636363618
:1040700036363636363636363636363636363636E0
:10408000363636360000000000FE06F63636363686
:10409000363636363636363636F606FE0000000040
:1040A0000000000036363636363636FE0000000098
:1040B000000000001818181818F818F80000000080
:1040C0000000000000000000000000F81818181898
:1040D00018181818181818181818181F00000000B9
:1040E0000000000018181818181818FF0000000029
:1040F0000000000000000000000000FF1818181861
:1041000018181818181818181818181F1818181828
:104110001818181800000000000000FF0000000040
:104120000000000018181818181818FF1818181888
:104130001818181818181818181F181F18181818F1
:104140001818181836363636363636373636363686
:1041500036363636363636363637303F00000000D3
:104160000000000000000000003F303736363636D1
:10417000363636363636363636F700FF0000000063
:10418000000000000000000000FF00F73636363661
:1041900036363636363636363637303736363636C3
:1041A000363636360000000000FF00FF0000000039
:1041B000000000003636363636F700F7363636362B
:1041C000363636361818181818FF00FF00000000A1
:1041D0000000000036363636363636FF0000000066
:1041E000000000000000000000FF00FF1818181871
:1041F0001818181800000000000000FF3636363688
:1042000036363636363636363636363F000000001D
:104210000000000018181818181F181F00000000D0
:104220000000000000000000001F181F18181818D8
:1042300018181818000000000000003F3636363607
:104240003636363636363636363636FF3636363645
:10425000363636361818181818FF18FF1818181898
:104260001818181818181818181818F8000000004E
:1042700000000000000000000000001F18181818BF
:1042800018181818FFFFFFFFFFFFFFFFFFFFFFFFDA
:10429000FFFFFFFF00000000000000FFFFFFFFFF27
:1042A000FFFFFFFFF0F0F0F0F0F0F0F0F0F0F0F0D2
:1042B000F0F0F0F00F0F0F0F0F0F0F0F0F0F0F0F8A
:1042C0000F0F0F0FFFFFFFFFFFFFFF0000000000B9
:1042D00000000000000000000076DCD8D8D8DC76B2
:1042E00000000000000078CCCCCCD8CCC6C6C6CC30
:1042F000000000000000FEC6C6C0C0C0C0C0C0C0F4
:104300000000000000000000FE6C6C6C6C6C6C6CBB
:1043100000000000000000FEC66030183060C6FEDD
:104320000000000000000000007ED8D8D8D8D87067
:10433000000000000000000066666666667C606043
:10434000C00000000000000076DC181818181818CB
:10435000000000000000007E183C6666663C187E87
:1043600000000000000000386CC6C6FEC6C66C38EF
:10437000000000000000386CC6C6C66C6C6C6CEEA9
:104380000000000000001E30180C3E666666663CA9
:104390000000000000000000007EDBDBDB7E000090
:1043A0000000000000000003067EDBDBF37E60C03F
:1043B0000000000000001C3060607C606060301C09
:1043C000000000000000007CC6C6C6C6C6C6C6C641
:1043D0000000000000000000FE0000FE0000FE00E3
:1043E000000000000000000018187E18180000FFF0
:1043F0000000000000000030180C060C1830007E91
:10440000000000000000000C18306030180C007E26
:104410000000000000000E1B1B18181818181818B0
:10442000181818181818181818181818D8D8D87074
:1044300000000000000000001818007E001818009E
:1044400000000000000000000076DC0076DC0000C8
:104450000000000000386C6C380000000000000014
:10446000000000000000000000000018180000001C
:104470000000000000000000000000001800000024
:1044800000000000000F0C0C0C0C0CEC6C6C3C1CC5
:104490000000000000D86C6C6C6C6C000000000028
:1044A000000000000070D83060C8F8000000000074
:1044B00000000000000000007C7C7C7C7C7C7C0098
:1044C00000000000000000000000000000000000EC
:1044D00000000000B1B808800FC018802500460019
:1044E00019802070DFC012401FC012401FC0B5D815
:1044F0000100210025202570F5A02F202520256012
:1045000035006410841003F0B9AB0A0009001100F3
:1045100010802040443084200800110020803FC0DB
:104520000040C6F779E0492079E049200480FFF097
:1045300010802040FDF025203DE02520C9E847C03F
:10454000244024400440E83027C0244022802A80B0
:10455000310026C01830CBBE7FE0002000207FA0B5
:1045600000203E20222022203E20222000A00040C9
:10457000CFDE0000F7E09420A7E0A42097E09400AD
:10458000D560A480854086208410D2C712001120F7
:10459000212028406440A440228021002100228064
:1045A00024402830D3D004000420FFF008001FC0AE
:1045B00030405FC090401FC0104011401080D4B404
:1045C00000104FF029008BE04A202BE02A204BE01E
:1045D000498052A054906190B7D60900090011009B
:1045E000108020407FB08880088008801080128072
:1045F0006100C3EB1880E08022C0FAA022906280A4
:1046000074B0A0A02040208023002C00C4EA1040F9
:104610001FF0220042009FE012001200FFF0020093
:10462000020002000200C8D500401FE01040104008
:1046300010401FC01040104010401FC0104000002C
:10464000CAB100400040F8408FF08840FA408940ED
:104650008940F8408840014000C0D4C21FC01040CB
:1046600010401FC0104010401FC01040104020409C
:1046700042408180FFFFB7D600800480044008409C
:104680000820101020084FEE842404200420042069
:104690000420082011402080C3EB04200E20782045
:1046A000082008A8FEA608A21D201A2428242828CD
:1046B00048108820084008800B00C4EA0800080859
:1046C0001FFC1100210041101FF8110011001104FE
:1046D000FFFE01000100010001000100C8D500102B
:1046E0001FF8101010101010101010101FF01010E4
:1046F00010101010101010101FF010100000CAB190
:10470000000804087E08440847FE440844087C88E2
:1047100044484448440844087C08444800280010A1
:10472000D4C200100FF80810081008100FF008107D
:10473000081008100FF0081008101010101020506A
:104740004020FFFF1F1C1F1E1F1E1F1F1E1F1E1F9E
:104750001F1D1F1E1F1E1F1F1E1F1E1F7C47000820
:104760000000002044000000302B0008C047000873
:10477000440000202C080000402B0008000000002E
:1047800000000102030401020304060708090204F1
:104790000608000000A24A0400000000000000001B
:1047A00001020304060708090100000000000000E0
:1047B00000000000000000000000000000000000F9
:04000005080000ED02
:00000001FF
