:020000040800F2
:10000000480400200101000895020008970200083A
:100010009B0200089F020008A302000800000000E5
:10002000000000000000000000000000A70200081F
:10003000A902000800000000AB020008AD020008A1
:100040001B0100081B0100081B0100081B01000820
:100050001B0100081B0100081B0100081B01000810
:100060001B0100081B0100081B0100081B01000800
:100070001B0100081B0100081B0100081B010008F0
:100080001B0100081B0100081B0100081B010008E0
:100090001B0100081B0100081B0100081B010008D0
:1000A0001B0100081B0100081B0100081B010008C0
:1000B0001B0100081B0100081B0100081B010008B0
:1000C0001B0100081B0100081B0100081B010008A0
:1000D0001B0100081B0100081B0100081B01000890
:1000E0001B0100081B0100081B010008DFF80CD0F1
:1000F00001F00EFE004800472501000848040020DA
:100100000648804706480047FEE7FEE7FEE7FEE7B1
:10011000FEE7FEE7FEE7FEE7FEE7FEE7B9180008A8
:10012000ED00000801F048FC01F02AFD01F0A6FCFA
:1001300001F06AFC234801F01DFE23A001F01AFE25
:1001400025A001F017FE2BE040F2A55001F062FD62
:1001500027A001F00FFE2B4801882BA001F00AFE1A
:100160002D4801782DA001F005FE3048017830A01F
:1001700001F000FE3248017832A001F0FBFD354865
:10018000017835A001F0F6FD3748017837A001F07D
:10019000F1FD3A4801783AA001F0ECFD01F020FCB5
:1001A000D2E770B504460D46E1B2394801F04EFA87
:1001B00000BF4021364801F0B7FA0028F9D02046A8
:1001C00070BD00007420000843414E2D427573201D
:1001D00054657374200D0A0043414E2D42757320FF
:1001E0005370656564203130306B487A200D0A0009
:1001F00043414E20526563656976652044617461B0
:10020000200D0A003800002043414E20494420259B
:1002100078200D0A000000003A00002043414E5FA4
:100220004441544130202578200D0A003B00002035
:1002300043414E5F4441544131202578200D0A004E
:100240003C00002043414E5F444154413220257818
:10025000200D0A003D00002043414E5F44415441BF
:1002600033202578200D0A003E00002043414E5FD8
:100270004441544134202578200D0A003F000020DD
:1002800043414E5F4441544135202578200D0A00FA
:1002900000380140704700BFFEE700BFFEE700BF27
:1002A000FEE700BFFEE77047704770470C480168E3
:1002B0000068401C0A4A1060B1F5FA7F07D300209D
:1002C0001146086007480078C04306490870064890
:1002D000008820B104480088401E03490880704708
:1002E00000000020040000200C00002010B504468F
:1002F000FE48844209D10121480601F02AF8002174
:100300004FF0007001F025F808E00121880601F0A7
:1003100020F800214FF0806001F01BF810BD30B5CF
:10032000024600200023146824F0020414601468BC
:1003300044F00104146000E05B1C546814F0010FE9
:1003400003D1A3F57F44FF3CF6D1546814F0010FAC
:1003500001D100206CE08C79012C04D1146844F0A8
:100360008004146003E0146824F080041460CC79E5
:10037000012C04D1146844F04004146003E01468B4
:1003800024F0400414600C7A012C04D1146844F069
:100390002004146003E0146824F0200414604C7AF4
:1003A000012C04D1146844F01004146003E01468B4
:1003B00024F0100414608C7A012C04D1146844F0E9
:1003C0000804146003E0146824F008041460CC7A74
:1003D000012C04D1146844F00404146003E0146890
:1003E00024F0040414608C78A407CD7844EA0564F2
:1003F0000D7944EA05444D7944EA05540D886D1E93
:100400002C43D461146824F001041460002300E03C
:100410005B1C546814F0010F03D0A3F57F44FF3C2C
:10042000F6D1546814F0010F01D0002000E0012043
:1004300030BD10B50021837A012202FA03F1AC4AE3
:10044000126842F00102AA4B1A60A94A1C321268D3
:100450008A43A74B1C331A60027BCAB9A44A0C32E8
:1004600012688A43A24B0C331A604288C38842EA5E
:1004700003439F4A4032847A42F8343002888388AA
:1004800042EA03439A4A4032847A02EBC402536040
:10049000027B012A19D1964A0C3212680A43944B06
:1004A0000C331A604288038842EA0343904A403280
:1004B000847A42F83430C288838842EA03438C4A03
:1004C0004032847A02EBC4025360C27A3AB9884A55
:1004D000121D12688A43864B1B1D1A6006E0844A6F
:1004E000121D12680A43824B1B1D1A60028932B921
:1004F0007F4A143212688A437D4B14331A60028992
:10050000012A06D17A4A143212680A43784B14330E
:100510001A60427B012A06D1754A1C3212680A43CE
:10052000734B1C331A60724A126822F00102704B3E
:100530001A6010BD00218171C17101724172817216
:10054000C1728170C17003210171022141710121C9
:10055000018070476649096841F00101644A1160F1
:100560001146096843F60E729143614A11601146C3
:10057000096841EA002111601146096821F0010172
:100580001160704721B1026842F48032026003E0DA
:10059000026822F4803202607047E1B1026842F0E2
:1005A000800202604FF4C272125842F480734FF41A
:1005B000C27213504FF4CA72125842F480734FF44F
:1005C000CA7213504FF4D272125842F480734FF42F
:1005D000D27213501BE0026822F0800202604FF4D6
:1005E000C272125822F480734FF4C27213504FF447
:1005F000CA72125822F480734FF4CA7213504FF427
:10060000D272125822F480734FF4D2721350704792
:1006100010B502460020936803F08063B3F1806F49
:1006200000D110E0936803F00063B3F1006F01D1D3
:10063000012008E0936803F08053B3F1805F01D19B
:10064000022000E00420042879D002F5C07303EBF7
:1006500000131B6803F0010402F5C07303EB0013E1
:100660001C600B7A7BB94B7A0C8843EA445302F541
:10067000C07404EB00142468234302F5C07404EB37
:100680000014236010E00B7A4C6843EAC4034C7AF0
:10069000234302F5C07404EB00142468234302F5DD
:1006A000C07404EB001423608B7A03F00F038B7289
:1006B00002F5C07303EB00135B6823F00F0402F52F
:1006C000C07303EB00135C6002F5C07303EB00130F
:1006D0005B688C7A234302F5C07404EB00146360FA
:1006E0008B7B1C064B7B44EA034403E00064004020
:1006F000006600400B7B44EA0323CC7A234302F5D7
:10070000C07404EB0014A3608B7C1C064B7C44EA91
:1007100003440B7C44EA0323CC7B234302F5C074DF
:1007200004EB0014E36002F5C07303EB00131B68D5
:1007300043F0010402F5C07303EB00131C6010BD0D
:1007400010B50246002321B1012907D002290FD19B
:1007500009E09068F84C00EA04030BE09068F74C5D
:1007600000EA040306E09068F54C00EA040301E0A7
:10077000002300BF00BFF34C181BA34216D007DCB8
:1007800083B16FF0806018180ED0022818D111E0E4
:10079000B0F5007F10D0EC4C001909D0B0F5003F47
:1007A0000ED10BE002230DE000230BE0002309E053
:1007B000002307E0012305E0012303E0012301E01A
:1007C000002300BF00BFD8B210BD21B1012907D05E
:1007D00002290FD109E0826842F0800282600AE0BB
:1007E000826842F40042826005E0826842F40002BE
:1007F000826000E000BF00BF704710B500F5D873FD
:1008000003EB01131B6803F004031372137A53B94B
:1008100000F5D87303EB01131B6840F2FF7404EA80
:100820005353136009E000F5D87303EB01131B6801
:100830006FF0604404EAD303536000F5D87303EB10
:1008400001131B6803F00203537200F5D87303EB26
:1008500001135B6803F00F03937200F5D87303EB89
:1008600001135B681B0AD37400F5D87303EB011303
:100870009B68D37200F5D87303EB01139B681C0AC5
:10088000147300F5D87303EB01139B681C0C5473AD
:1008900000F5D87303EB01139B681B0E937300F5EF
:1008A000D87303EB0113DB68D37300F5D87303EB44
:1008B0000113DB681C0A147400F5D87303EB0113F1
:1008C000DB681C0C547400F5D87303EB0113DB6870
:1008D0001B0E937421B9C36843F02003C36003E087
:1008E000036943F02003036110BD21B9C26842F0DF
:1008F0002002C26003E0026942F0200202617047F8
:100900000246002019B9D36803F0030006E001296C
:1009100003D1136903F0030000E00020704710B515
:1009200002460B4600204FF6FF71BBB9146824F055
:10093000020444F00104146000E0491E546804F00D
:100940000304012C01D00029F7D1546804F00304FA
:10095000012C01D0002032E0012030E0012B13D126
:10096000146824F00304146000E0491E546814F075
:10097000030F01D00029F8D1546814F0030F01D0FF
:1009800000201CE001201AE0022B17D1146824F08B
:10099000010444F00204146000E0491E546804F0AD
:1009A0000304022C01D00029F7D1546804F0030499
:1009B000022C01D0002002E0012000E0002010BD48
:1009C000014600200A6822F0010242F002020A6099
:1009D0004A6802F00302022A00D101207047014652
:1009E0004FF6FF7200200B6823F002030B6000E05B
:1009F000521E4B6803F00203022B01D1002AF7D1EB
:100A00004B6803F00203022B00D00120704701461F
:100A100000208A6902F070007047014600208A6950
:100A2000100E7047014600208A69C2F307407047E4
:100A30001AB143690B43436102E043698B4343614D
:100A4000704710B50246002011F4700F08D093696A
:100A5000C1F31304234201D001202DE000202BE03C
:100A600011F0807F08D05368C1F31304234201D0F2
:100A7000012021E000201FE011F0006F08D09368F2
:100A8000C1F31304234201D0012015E0002013E03C
:100A900011F0007F08D0D368C1F31304234201D0C2
:100AA000012009E0002007E01369C1F31304234289
:100AB00001D0012000E0002010BD0022234B99420C
:100AC00002D10023836111E0C1F3130211F0007F12
:100AD00001D0C2600AE011F0806F01D0026105E030
:100AE00011F0006F01D0826000E042607047024662
:100AF00000200A4201D0012000E00020704770B5BC
:100B000004460D4600266069284272D0B5F5807F04
:100B100069D01DDC082D42D006DC012D2DD0022D20
:100B200031D0042D7FD134E0102D3ED0202D42D085
:100B3000402D78D145E000000300000400030008C8
:100B400000000310000100080001FFF77000F03002
:100B5000B5F5004F61D009DCB5F5007F4AD0B5F599
:100B6000806F4DD0B5F5006F5DD150E0B5F5803F99
:100B70002DD0B5F5003F56D12FE0A0685549FFF7BD
:100B8000B6FF064651E0E0680321FFF7B0FF0646D6
:100B90004BE0E0680821FFF7AAFF064645E0E06861
:100BA0001021FFF7A4FF06463FE020690321FFF76D
:100BB0009EFF064639E020690821FFF798FF0646A8
:100BC00033E020691021FFF792FF06462DE06068B0
:100BD0000821FFF78CFF064627E060681021FFF729
:100BE00086FF064621E0A0690121FFF780FF064647
:100BF0001BE01BE0A0690221FFF779FF064614E025
:100C0000A0690421FFF773FF06460EE00BE0A06920
:100C10007021FFF76CFF064607E060680421FFF7CC
:100C200066FF064601E0002600BF00E000263046D1
:100C300070BDB1F5007F3AD00FDC202928D006DC4A
:100C400001291CD004291DD0082940D11DE04029CC
:100C500021D0B1F5807F3AD126E0B1F5004F31D0F7
:100C600006DCB1F5806F25D0B1F5006F2FD124E0FF
:100C7000B1F5803F12D0B1F5003F28D111E0154AFF
:100C8000826025E00822C26022E01022C2601FE0DC
:100C9000082202611CE01022026119E00822426071
:100CA00016E01022426013E00422426010E00422A9
:100CB00042600DE0042242600AE0002282610422C8
:100CC000426005E0002282610422426000E000BF31
:100CD00000BF70470101010010B50446CA488442B4
:100CE00008D10121042000F027FB0021042000F09E
:100CF00023FB46E0C548844208D10121082000F0CA
:100D00001BFB0021082000F017FB3AE0C04884429A
:100D100008D10121102000F00FFB0021102000F06D
:100D20000BFB2EE0BB48844208D10121202000F0BB
:100D300003FB0021202000F0FFFA22E0B6488442A5
:100D400008D10121402000F0F7FA0021402000F0F6
:100D5000F3FA16E0B148844208D10121802000F066
:100D6000EBFA0021802000F0E7FA0AE0AC48844268
:100D700007D10121801500F0DFFA0021A01500F055
:100D8000DBFA10BD10B50121084600F0D5FA0021AC
:100D9000012000F0D1FA10BD2DE9F04102460025F6
:100DA0000026002000230024002791F803C00CF047
:100DB0000F0591F803C01CF0100F03D091F802C08A
:100DC0004CEA050591F800C0BCF1000F31D0146861
:100DD00000202BE04FF0010C0CFA00F3B1F800C03A
:100DE0000CEA03069E4220D183004FF00F0C0CFA50
:100DF00003F7BC4305FA03FC4CEA040491F803C072
:100E0000BCF1280F06D14FF0010C0CFA00FCC2F81F
:100E100014C00AE091F803C0BCF1480F05D14FF0AF
:100E2000010C0CFA00FCC2F810C0401C0828D1D3F9
:100E30001460B1F800C0BCF1FF0F34DD546800202D
:100E40002EE000F1080C4FF0010808FA0CF3B1F89D
:100E500000C00CEA03069E4221D183004FF00F0C24
:100E60000CFA03F7BC4305FA03FC4CEA040491F8BE
:100E700003C0BCF1280F05D100F1080C08FA0CF8EA
:100E8000C2F8148091F803C0BCF1480F07D100F1FB
:100E9000080C4FF0010808FA0CF8C2F81080401C4A
:100EA0000828CED35460BDE8F0814FF6FF71018071
:100EB000022181700421C1707047024600209368AE
:100EC0000B4201D0012000E00020704701468868F5
:100ED00080B2704702460020D3680B4201D0012047
:100EE00000E0002070470146C86880B27047016189
:100EF0007047416170470AB1016100E0416170478C
:100F0000C16070474FF480320A438261816182611F
:100F100082698269704702460020424B18684FF68A
:100F20008073184040EA021008433E4B1860704737
:100F30003D49C8617047F0B50A46002300240021EE
:100F4000002500F00046B6F1004F02D1354EF169A0
:100F500001E0344E7168C0F3034583B200F44016DB
:100F6000B6F5401F08D121F070612E4E766826F04C
:100F700070662C4F7E6012E000F48016B6F5801F7C
:100F800006D1032606FA05F4A14341F0706106E09C
:100F9000460D360103FA06F6B14341F0706122B105
:100FA000460D360103FA06F6314300F00046B6F16D
:100FB000004F02D11B4EF16101E01A4E7160F0BD8D
:100FC00030B500228B071C0F0F2303FA04F2154BD8
:100FD00008338C1053F824309343124C08348D108E
:100FE00044F8253023468C1053F824308C07240F06
:100FF00000FA04F423430B4C08348D1044F82530D8
:1010000030BD0A490860704700080140000C0140EB
:10101000001001400014014000180140001C014074
:10102000002001400000014000002042DC0020427E
:10103000DD48006840F00100DB4908600846406870
:10104000DA490840D849486008460068D84908404D
:10105000D54908600846006820F4802008600846EA
:10106000406820F4FE0048604FF41F00886070471D
:10107000CD49096821F48031CB4A116011460968D5
:1010800021F480211160B0F5803F03D0B0F5802FAE
:101090000ED106E0C449096841F48031C24A1160AA
:1010A00007E0C149096841F4A021BF4A116000E08E
:1010B00000BF00BF704710B501460022002300208A
:1010C0004A11012A02D1B84C236806E0022A02D153
:1010D000B54C236A01E0B44C636A01F01F0201249D
:1010E00094401C4201D0012000E0002010BD38B522
:1010F000002000900024002500BF3120FFF7DBFF17
:1011000005460098401C00900098B0F5A06F01D0F3
:10111000002DF2D03120FFF7CEFF08B1012400E00E
:101120000024204638BD014600209F4A106820F068
:10113000F80040EAC100106070479E49086070479F
:1011400002460020984B586820F47C1042EA0103C4
:101150001843954B5860704796490866704701469A
:101160000020914A506820F0030008435060704707
:101170008D48406800F00C007047014600208A4A04
:10118000506820F0F000084350607047014600208E
:10119000854A506820F4E06008435060704701467B
:1011A0000020814A506820F4605040EAC10050603D
:1011B000704729B17C4A527A02437B4B5A7204E051
:1011C000794A527A8243784B5A7270477A4908605A
:1011D000704701460020744A506820F4404008439C
:1011E000506070470021754A11706F4A82F82010D4
:1011F000012802D0042808D103E001216F4A1170B0
:1012000004E005216D4A117000E000BF00BF704787
:101210006B49086070476449096A0143624A116278
:101220007047674944390860704730B50021002293
:10123000002400235C4D6D6805F00C0121B10429E8
:1012400005D0082923D105E05E4D056022E05D4D03
:1012500005601FE0544D6D6805F47012524D6D68C5
:1012600005F48034022505EB92421CB9564D5543D6
:1012700005600BE04C4D6D6815F4003F03D0524DF6
:101280005543056002E04F4D5543056002E04D4D6A
:10129000056000BF00BF444D6D6805F0F00109090D
:1012A0004A4D6B5C0568DD4045603F4D6D6805F457
:1012B000E061090A454D6B5C4568DD4085603A4D4B
:1012C0006D6805F46051C90A404D6B5C4568DD40AE
:1012D000C560354D6D6805F44041890B3C4D6B5C34
:1012E000C568B5FBF3F5056130BD29B12E4A5269D9
:1012F00002432D4B5A6104E02B4A526982432A4B28
:101300005A61704729B1284A92690243264B9A6173
:1013100004E0254A92698243234B9A61704729B1C0
:10132000214AD2690243204BDA6104E01E4AD269A5
:1013300082431D4BDA61704729B11B4AD2680243D0
:10134000194BDA6004E0184AD2688243164BDA601F
:10135000704729B1144A12690243134B1A6104E021
:10136000114A12698243104B1A617047144940397F
:10137000086070470F49C86470470B49C8717047CF
:101380000948406A40F0807007494862704701464A
:101390000020054A92680A4201D0012000E00020A6
:1013A0007047014988727047001002400000FFF842
:1013B000FFFFF6FE00004242D800424220100240E9
:1013C0008004424200127A0000093D000E00002015
:1013D0001E00002010B50446FB48844209D10121BB
:1013E0008803FFF7A9FF00214FF48040FFF7A4FF17
:1013F00032E0F648844209D101214804FFF7A9FFF1
:1014000000214FF40030FFF7A4FF25E0F0488442AC
:1014100009D101218804FFF79CFF00214FF48020AF
:10142000FFF797FF18E0EB48844209D10121C80477
:10143000FFF78FFF00214FF40020FFF78AFF0BE03A
:10144000E548844208D101210805FFF782FF002109
:101450004FF48010FFF77DFF10BD2DE9F04786B0F7
:1014600005460E460024A24600BFA1460027B089CB
:1014700000B100BF2F462C8A4CF6FF700440F08864
:1014800004432C82AC894EF6F3100440B0883189B5
:101490000843718908430443AC81AC8A4FF6FF408E
:1014A0000440B0890443AC8201A8FFF7BEFEC648E1
:1014B000874202D1DDF810A001E0DDF80CA0A88978
:1014C00010F4004F08D00AEBCA0000EB0A10316894
:1014D0004900B0FBF1F807E00AEBCA0000EB0A1084
:1014E00031688900B0FBF1F86420B8FBF0F004012A
:1014F0002009642101FB1089A88910F4004F08D04D
:10150000322000EBC900B0FBF1F000F0070004430B
:1015100008E0322000EB09106421B0FBF1F000F08C
:101520000F0004432C8106B0BDE8F0874FF416513C
:10153000016000218180C18001810C214181002155
:101540008181704710B502460020108A4FF2FF03D8
:1015500018400B884C8823438C882343CC88234332
:101560001843108210BD0021018041808180C1801C
:10157000704721B1828942F40052828104E082895D
:101580004DF6FF731A4082817047F0B50346002480
:10159000002600250020A1F510676A3F00D100BF9A
:1015A0001846C1F3421401F01F06012707FA06F599
:1015B000012C01D10C3004E0022C01D1103000E0EC
:1015C00014301AB107682F43076002E00768AF4381
:1015D0000760F0BD1AB1838A0B43838202E0838ADD
:1015E0008B4383827047028A4FF6F0731A4002825F
:1015F000028A0A430282704782894FF2FF731A40BF
:10160000828182890A438281704721B1828942F0B6
:101610000202828104E082894FF6FD731A408281C2
:101620007047028A4FF6DF731A400282028A0A4329
:101630000282704721B1028A42F48042028204E0B1
:10164000028A4BF6FF731A4002827047C1F3080208
:101650008280704701468888C0F3080070478189FE
:1016600041F0010181817047028BD2B20283028B6B
:1016700042EA012202837047028B02F47F42028316
:10168000028B0A430283704721B1828A42F0200212
:10169000828204E0828A4FF6DF731A4082827047AA
:1016A00021B1828A42F01002828204E0828A4FF6DF
:1016B000EF731A408282704721B1828A42F0080299
:1016C000828204E0828A4FF6F7731A408282704762
:1016D00021B1828942F40042828103E08289C2F30F
:1016E0000E028281704721B1828A42F400628282B6
:1016F00004E0828A4FF2FF731A4082827047828A26
:101700004FF6FB731A408282828A0A4382827047B4
:1017100021B1828A42F00202828204E0828A4FF67C
:10172000FD731A408282704702460020B1F5007FA7
:1017300000D100BF13880B4201D0012000E000203F
:10174000704701F40072B2F5007F00D100BFCA43B8
:101750000280704770B50246002400230025002057
:10176000A1F510666A3E00D100BFC1F3421501F039
:101770001F03012606FA03F3012D02D19689334097
:1017800006E0022D02D1168A334001E0968A3340EA
:101790000C12012606FA04F41688344013B10CB179
:1017A000012000E0002070BD10B500220023A1F54B
:1017B00010646A3C00D100BF0A1201249440A3B215
:1017C000DC43048010BD00000038014000440040AC
:1017D00000480040004C0040005000400CB5002084
:1017E000019000906B48006840F4803069490860BF
:1017F00000BF6848006800F4003000900198401C69
:101800000190009818B90198B0F5A06FF1D1614826
:10181000006810F4003F02D00120009001E0002099
:1018200000900098012842D15B48006840F0100009
:10183000594908600846006820F00300086008461F
:10184000006840F002000860524840685149486012
:101850000846406848600846406840F48060486038
:101860000846406820F47C1048600846406840F410
:10187000E81048600846006840F08070086000BFCB
:101880004448006810F0007FFAD04248406820F0D9
:101890000300404948600846406840F00200486044
:1018A00000BF3C48406800F00C000828F9D10CBD8E
:1018B00010B5FFF793FF10BD10B53648006840F033
:1018C00001003449086008464068344908403149FD
:1018D000486008460068324908402E4908600846BA
:1018E000006820F4802008600846406820F4FE006C
:1018F00048604FF41F008860FFF7DAFF4FF0006088
:101900002849086010BD10B5002100200022214B9D
:101910005B6803F00C0121B1042906D0082928D105
:1019200007E0214B214C236027E01F4B1F4C236015
:1019300023E0184B5B6803F47010164B5B6803F4EC
:101940008032022303EB904022B9194B4343174CDA
:1019500023600DE00F4B5B6813F4003F04D0144B81
:101960004343124C236003E00F4B43430F4C23606F
:1019700003E00D4B0D4C236000BF00BF054B5B68BF
:10198000C3F303130B4CE15C084B1B68CB40074CC3
:10199000236010BD00100240002002400000FFF84C
:1019A000FFFFF6FE08ED00E000127A0024000020A0
:1019B00000093D002800002008B501211020FFF794
:1019C000A1FC4FF40050ADF8000010208DF803008A
:1019D00003208DF8020069460948FFF7DDF908BDCC
:1019E00010B50848007828B14FF400510448FFF7BB
:1019F00080FA04E04FF400510148FFF778FA10BD77
:101A0000001001400400002030B500BF18480068F5
:101A10004FF47A72B0FBF2F1B1F1807F01D3012073
:101A20001DE021F07F40401E4FF0E0225061501732
:101A30000F22002807DA13071D0E0E4B00F00F04CB
:101A4000241F1D5503E013071C0E0B4B1C5400BF35
:101A500000204FF0E0229061072010610020002854
:101A6000D4D130BD00BF00BF0028FDD170470000B9
:101A70002400002018ED00E000E400E000B585B08F
:101A8000012144F20400FFF73DFC4FF40070ADF873
:101A9000100018208DF8130003208DF8120004A9FF
:101AA0002148FFF779F94FF48060ADF81000042069
:101AB0008DF8130003208DF8120004A91A48FFF7CF
:101AC0006BF94FF4165000900020ADF80400ADF80B
:101AD0000600ADF80800ADF80C000C20ADF80A00C7
:101AE00069461248FFF7B9FC40211048FFF729FE6C
:101AF00001210E48FFF73DFD05B000BD70B504465D
:101B00000D460BE014F8011B0848FFF79FFD00BFCE
:101B100040210648FFF708FE0028F9D02800A5F16B
:101B200001018DB2EED170BD0008014000380140C6
:101B300008B501210920FFF7E5FB01214806FFF761
:101B4000EEFB01214FF4EA10FFF7F5F94FF4807036
:101B5000ADF8000003208DF8020004208DF803008A
:101B600069464A48FFF718F94FF40070ADF80000D5
:101B700018208DF8030069464448FFF70DF908BDA9
:101B800000B587B0FFF7D4FF4148FEF7AFFB04A8CC
:101B9000FEF7D0FC00208DF816008DF817008DF8A8
:101BA00018008DF819008DF81A0001208DF81B001F
:101BB00000208DF812008DF8130003208DF814001A
:101BC00002208DF815002D20ADF8100004A9304832
:101BD000FEF7A5FB00208DF80A008DF80B00012010
:101BE0008DF80C000020ADF80000ADF80200ADF853
:101BF0000400ADF80600ADF8080001208DF80D00D6
:101C0000012202212248FEF713FF6846FEF711FC6D
:101C100007B000BD10B586B00446AA201D49087063
:101C2000BB201D490870CC201C490870DD201C49D0
:101C30000870EE201B490870FF201B4908700194B2
:101C400000208DF80D008DF80C0006208DF80E0098
:101C5000104800788DF80F000F4801788DF81010AB
:101C60000E4801788DF811100D4801788DF812108A
:101C70000C4801788DF813100B4801788DF814107A
:101C800001A90348FEF7C4FC06B010BD000C0140DA
:101C9000006400403A0000203B0000203C0000208F
:101CA0003D0000203E0000203F0000202DE9F05FB5
:101CB0000546002092469B468846064681464024BB
:101CC0001BE0284641464746224600F042F853466C
:101CD0005A46C01A914110D311461846224600F0C8
:101CE00029F82D1A67EB01084F46224601200021F2
:101CF00000F020F817EB00094E41201EA4F101046A
:101D0000DFDC484631462A464346BDE8F09F0000E6
:101D1000064C074D06E0E06840F0010394E8070038
:101D200098471034AC42F6D3FEF7E4F9B820000827
:101D3000D8200008202A04DB203A00FA02F1002013
:101D400070479140C2F1200320FA03F319439040F9
:101D50007047202A04DB203A21FA02F00021704764
:101D600021FA02F3D040C2F1200291400843194603
:101D7000704700000FB4054B10B503A9044A029840
:101D800000F018F810BC5DF814FB0000A301000877
:101D90004400002002E008C8121F08C1002AFAD13E
:101DA00070477047002001E001C1121F002AFBD1DB
:101DB000704700002DE9FF4F8DB09B460F4604464B
:101DC000002638E1252801D00F9959E00025641C30
:101DD0009D49A84601222378203B02FA03F00842DD
:101DE00002D00543641CF6E720782E2817D114F89A
:101DF000010F45F004052A280ED06FF02F0220783D
:101E0000A0F1300109290AD808EB880102EB410151
:101E100000EB0108641CF2E757F8048B641C20787F
:101E20006C280DD004DC4C2812D06A2811D104E0B3
:101E300074280DD07A280CD10AE045F4001507E08B
:101E4000617845F48015814202D1641C05F5801546
:101E5000641C2278692A46D008DC002A70D0582AEF
:101E600069D0632A11D0642A08D13CE0702A69D075
:101E7000732A14D0752A5CD0782A5CD00F9910464A
:101E80005A46904706F10106D4E017F8040B8DF886
:101E9000000000208DF80100E946012003E057F81A
:101EA000049B4FF0FF3069074FF0000501D40AE0B2
:101EB0006D1C45450DDA8542FADB19F8051000293D
:101EC000F6D106E06D1C8542FCDB19F805100029EF
:101ED000F8D12E4404E019F8010B5A460F999047A7
:101EE0006D1EF8D2A6E00A200021CDE90801C5F355
:101EF000025002280BD001CFC11700290EDA4FF093
:101F0000000CD0EB0C006CEB01012D2309E007F174
:101F1000070727F00707F7E80201EEE72B0504D5CE
:101F20002B238DF82830012330E0EB072ED020231F
:101F3000F7E70A2000E010200021CDE9080109E0C0
:101F40007DE0FFE71020002145F00405CDE9080100
:101F50004FF00808C5F3025002281BD001CF002122
:101F60004FF0000A2B0712D5702A19D0DDE908C3FB
:101F70008CF0100C5CEA030C09D150EA010306D086
:101F800030238DF828308DF8292002239A46582ACC
:101F900010D00AE0FF1D27F00707F7E80201DFE78E
:101FA00040228DF828204FF0010A28A20DF12009C7
:101FB0000B9209E02AA2F9E7DDE90823FFF776FE94
:101FC0000B9B9B5C09F8013D50EA0102F4D1ADEB9B
:101FD000090000F120000890680701D44FF00108C3
:101FE0000899884502DDA8EB010000E0002080464A
:101FF000002506E00AA85A46405D0F999047761CD6
:102000006D1C5545F6DB04E030205A460F99904789
:10201000761CB8F10001A8F10108F5DC05E019F81B
:10202000010B5A460F999047761C0899481E089054
:102030000029F4DC641C207800287FF4C3AE11B0C2
:102040003046BDE8F08F00000928010030313233FE
:1020500034353637383961626364656600000000E4
:1020600030313233343536373839414243444546CE
:10207000000000002A20205468616E6B20796F7583
:1020800020666F72207573696E67205468652044FE
:102090006576656C6F706D656E7420426F617264F9
:1020A000204F66205975616E446920202021205EF2
:1020B0005F5E20202A0D0A00D820000800000020C2
:1020C00048000000941D000820210008480000205E
:1020D00000040000A41D0008000000000000000033
:1020E00000000000000000000000010203040102E3
:1020F00003040607080902040608000000A24A04B7
:1021000000000000000000000102030406070809A7
:1021100000000000000000000000000000000000BF
:04000005080000ED02
:00000001FF
