:020000040800F2
:10000000B0040020B51100089110000893100008FA
:1000100095100008971000089910000800000000D3
:100020000000000000000000000000009B1000081D
:100030009D100008000000009F100008A11000089B
:10004000F5110008F9110008FD110008011200085F
:1000500005120008091200080D120008111200080C
:1000600015120008191200081D12000821120008BC
:1000700025120008291200082D120008311200086C
:1000800035120008391200083D120008411200081C
:1000900045120008491200084D120008070E00081A
:1000A00055120008591200085D120008611200087C
:1000B00065120008691200086D120008711200082C
:1000C00075120008791200087D12000881120008DC
:1000D00085120008891200088D120008911200088C
:1000E00095120008991200089D120008002203884A
:1000F0001A00DFF85832984212D0DFF8683298427E
:100100000ED0B0F1804F0BD0DFF84432984207D0C8
:10011000DFF84032984203D0DFF83C32984204D1F5
:100120004FF68F731A404B881A43DFF830329842EB
:1001300008D0DFF82C32984204D04FF6FF431A4023
:10014000CB881A4302808A8882850A880285DFF874
:10015000FC2190420FD0DFF80C2290420BD0DFF848
:100160000822904207D0DFF80422904203D0DFF843
:100170000022904201D1097A0186012181827047D3
:1001800070B4002300240022058C4FF6FE76354023
:100190000584058C2C0085882A00058B2B004FF6E2
:1001A0008F752B404FF6FC752B400D882B434FF677
:1001B000FD752C400D892C434D882C43DFF88C5164
:1001C000A8420FD0DFF89C51A8420BD0DFF898511D
:1001D000A84207D0DFF89451A84203D0DFF890512D
:1001E000A84213D14FF6F7752C404D892C434FF69A
:1001F000FB752C408D882C434FF6FF652A404FF647
:10020000FF552A408D892A43CD892A438280038362
:10021000C9888186048470BC704770B400230024B0
:100220000022058C4FF6EF7635400584058C2C00B6
:1002300085882A00058B2B0048F6FF752B404FF66A
:10024000FF452B400D8853EA05234FF6DF752C4000
:100250000D8954EA05144D8854EA0514DFF8EC5072
:10026000A84203D0DFF80C51A84217D14FF67F7592
:100270002C404D8954EA05144FF6BF752C408D88EB
:1002800054EA05144FF6FF352A404FF2FF752A4015
:100290008D8952EA8502CD8952EA850282800383E4
:1002A000C9880187048470BC70470A884B881A4348
:1002B0008B881A43CB881A430B891A434B891A43FC
:1002C00089891143A0F844107047C9B2002904D0AD
:1002D000018851F00101018004E001884FF6FE72AF
:1002E000114001807047C9B2002906D0B0F844100F
:1002F00051F40041A0F8441005E0B0F8441049045E
:10030000490CA0F844107047C9B2002904D00188F4
:1003100051F08001018004E001884FF67F721140A6
:10032000018070470022038B1A004FF6F7731A40C2
:100330000A43028370470022038B1A004FF2FF73B7
:100340001A4052EA0122028370470000002C01404B
:100350000004004000080040000C00400010004075
:1003600000140040003401400040014000440140BE
:100370000048014000340140F0B585B004000D0094
:1003800000200021002200230026AF89002F260034
:10039000208A4CF6FF710840E98808432082A08932
:1003A0004EF6F3110840A9882A8911436A8911433E
:1003B0000843A081A08A4FF6FF410840A98908435D
:1003C000A08200A800F088F81B48864201D103995A
:1003D00000E00299A089000407D5192000FB01F074
:1003E00029684900B0FBF1F206E0192000FB01F09A
:1003F00029688900B0FBF1F26420B2FBF0F0000143
:100400000109642303FB1123A189090408D5D9003C
:1004100032316422B1FBF2F111F00701084307E029
:10042000190132316422B1FBF2F111F00F010843DE
:10043000208105B0F0BD000000380140C9B200299C
:1004400004D0818951F40051818104E081894DF605
:10045000FF72114081817047F0B400230024002511
:10046000002689B240F66A17B94206000800C0B2F9
:100470004309DBB289B211F01F04012010FA04F520
:10048000012B01D10C3604E0022B01D1103600E023
:100490001436D2B2002A03D030682843306002E01C
:1004A0003068A8433060F0BC7047C905C90D818031
:1004B0007047002289B2B1F5007F0088084201D060
:1004C000012200E000221000C0B2704789B28A0504
:1004D00089B2C9430180704730B400220021002353
:1004E00000243D4D2D6815F00C052A00002A04D08B
:1004F000042A05D0082A06D021E03849016020E00E
:10050000364901601DE03449096811F47011324A1E
:10051000126812F48033890C891C002B03D1304AF5
:10052000514301600AE02C4A1268920303D52C4A19
:100530005143016002E0294A5143016001E027492B
:1005400001602549096811F0F00212092549545C3F
:100550000168E14041602049096811F4E062120A33
:100560002049545C4168E14081601B49096811F4ED
:100570006052D20A1B49545C4168E140C16016498F
:10058000096811F44042920B1749545CC168B1FBF1
:10059000F4F1016130BC7047C9B2002905D013499C
:1005A000096808431149086005E01049096831EA03
:1005B00000000E4908607047C9B2002905D00C49F7
:1005C000096808430A49086005E00949096831EAF1
:1005D00000000749086070470410024000127A00CA
:1005E00000093D004000002050000020181002408B
:1005F0001C10024080B54F48006850F001004D4982
:1006000008604D4800684D4908404B49086049481A
:1006100000684B490840474908604648006830F484
:100620008020444908604448006830F4FE00424994
:1006300008605FF41F004349086000F005F85FF0B0
:1006400000604149086001BD80B500F001F801BDBE
:1006500082B000200190002000903648006850F4DD
:100660008030344908603348006810F4003000904E
:100670000198401C01900098002803D10198B0F522
:10068000A06FF0D12B480068800302D501200090B4
:1006900001E0002000900098012847D12B48006815
:1006A00050F0100029490860284800688008800040
:1006B000264908602548006850F002002349086078
:1006C0001D4800681C4908601B4800681A490860FA
:1006D0001948006850F4806017490860164800689F
:1006E00030F47C10144908601348006850F4E81096
:1006F000114908600F48006850F080700D4908608B
:100700000C4800688001FBD50B4800688008800019
:10071000094908600848006850F00200064908606E
:100720000548006810F00C000828F9D102B07047A5
:100730000000000000100240041002400000FFF81A
:10074000FFFFF6FE0810024008ED00E00020024026
:1007500070B50446084615461E0004D015F8011B66
:10076000A047761EFAD170BD2DE9F04784B08246CD
:10077000894614461F460DF1000807E00123224672
:1007800049465046FFF7E4FF8146641C207810B9C3
:1007900004B0BDE8F0872528F0D1641C14F8010BE3
:1007A0000146252818D058285CD063280ED064282C
:1007B00018BF692814D06F2854D0702858D07328D7
:1007C0005DD0752818BF78284CD0DFE738683860CE
:1007D00050F8041B3860C9B24846D0478146D5E777
:1007E0003868386050F8045B3860002D03D52D213F
:1007F0004846D047814664206F2808BF082205D0AC
:1008000040F02001782914BF0A2210220B21AC46A7
:10081000642803D1002D48BFCCF1000CBCFBF2F5DD
:1008200002FB15CC0CF130064B1E5FFA86FC194614
:10083000BCF13A0FA4BFA0F1510EF44403F808C074
:100840005FEA050C01D00129E8DA00A80D18484636
:10085000D1F10B09C2D015F8011BD047B9F101093C
:10086000F9D1BBE73968396051F8045B3960C3E7F7
:100870003868386050F8045B38607820BCE7386826
:10088000386050F8045B3860284600F009F806002C
:100890004846A3D015F8011BD047761EFAD19DE734
:1008A00000F10103810704D010F8011B89B1810711
:1008B000FAD10268B2F10131914311F0803F04BFD7
:1008C00050F8042FF6E710F8011B11B110F8011BC6
:1008D000FBE7C01A704710B450F8041B81B10268DE
:1008E0001218001D50F8043BDC0744BFA9F10104B5
:1008F000E31852F8044B43F8044B091FF9D1EBE716
:1009000010BC7047F0B4002200260024002500230C
:10091000002791F803C01CF00F0C624691F803C049
:100920005FEACC6C01D58B781A430B781B0621D07B
:100930000368002406E0CD78482D02D10125A540AA
:100940000561641C082C14D20125A5400E882E4098
:10095000AE42F6D1A5000F2616FA05F7BB4312FAF0
:1009600005F52B43CD78282DE5D10125A54045611E
:10097000E7E703600B88FF2B26DD4368002420E0B7
:10098000012514F10806B5400E882E40AE4217D15D
:10099000A5000F2616FA05F7BB4312FA05F52B43FF
:1009A000CD78282D04D1012514F10806B540456104
:1009B000CD78482D04D1012514F10806B540056114
:1009C000641C082CDCD34360F0BC704789B2016121
:1009D000704789B24161704710B400220F2311F0B3
:1009E0000304E4B2A400A3401A000F4BC9B28C1058
:1009F00053F8243033EA02020B4BC9B28C1043F88F
:100A00002420094AC9B28B1052F82320C0B211F039
:100A10000303DBB29B0098401043034AC9B289101C
:100A200042F8210010BC70470800014000B58DB0AD
:100A300001210820FFF7C0FD01210520FFF7ACFDD3
:100A40000220ADF8000018208DF8030003208DF877
:100A5000020000A93648FFF755FF40F60F60ADF8D9
:100A600028000920ADF824000020ADF82A0000205D
:100A7000ADF8260000208DF82C0009A92D48FFF7BD
:100A800035FB01212B48FFF73FFC6020ADF8040047
:100A90000120ADF806000420ADF808000020ADF8F4
:100AA0000C000020ADF80E007820ADF80A0001A976
:100AB0002048FFF765FB08211E48FFF733FC0120A3
:100AC000ADF806000420ADF808004FF42A70ADF828
:100AD0000A0001A91748FFF7A0FB08211548FFF7F6
:100AE0002AFC4FF40060ADF814004FF48060ADF8BC
:100AF00016000020ADF818009020ADF81A00002074
:100B0000ADF81C004FF40050ADF81E004FF48040CB
:100B1000ADF8200005A90748FFF7C7FB00210548ED
:100B2000FFF7D3FB01210348FFF7DDFB0DB000BD4C
:100B300000080140000C004000212C4A110082797D
:100B4000002A35D0294A126803689A43274B1A6055
:100B5000274A126803689A43254B1A600279511894
:100B60000A6803681A430A602249096802689143C7
:100B7000204A116020490968026891431E4A1160A9
:100B8000417910290CD11B49096802681143194A9F
:100B900011601949096800680843174908600EE0A8
:100BA0001249427951180A6800681043086006E04B
:100BB000027951180A68006832EA0000086070473C
:100BC00000210022094B1B6803401A000B4B1B68D5
:100BD000034203D0002A01D0012100E000210800D7
:100BE000C0B270470549086070470000000401402A
:100BF00004040140080401400C04014014040140B5
:100C000000B585B0012144F20400FFF7C5FC4FF4A4
:100C10000070ADF8000018208DF8030003208DF857
:100C2000020000A92648FFF76DFE4FF48060ADF882
:100C3000000004208DF8030003208DF8020000A9B5
:100C40001F48FFF75FFE4FF4165001900020ADF8EB
:100C500008000020ADF80A000020ADF80C000020CC
:100C6000ADF810000C20ADF80E0001A91548FFF7F3
:100C700083FB40211348FFF729FC012240F2255154
:100C80001048FFF7E9FB012240F227710D48FFF7FA
:100C9000E3FB01210B48FFF7D1FB05B000BD10B508
:100CA00004002100C9B289B20648FFF7FEFB80218B
:100CB0000448FFF7FEFB0028F9D0200010BD00001B
:100CC000000801400038014040B2002808D5090161
:100CD0001A4A40B210F00F00801800F8041C03E01C
:100CE0000901174A40B28154704780B5411EB1F1E5
:100CF000807F01D301200EE0401E124908600F21C1
:100D00005FF0FF30FFF7E0FF00200F490860072089
:100D10000E490860002002BD80B50D4800680D49ED
:100D2000B0FBF1F0FFF7E1FF0028F6D101BD0A4961
:100D30000880094800880028FBD1704718ED00E0C2
:100D400000E400E014E000E018E000E010E000E063
:100D50005400002040420F00A800002010B50400FD
:100D600003E04FF47A70FFF7E2FF2000441E80B2E8
:100D70000028F6D110BD50F8041B61B150F8042BC7
:100D8000D30744BFA9F101039A18002342F8043B9A
:100D9000091FFAD1EFE7704700B583B001210120A8
:100DA000FFF7FAFB06210220FFF716FE07210220BB
:100DB000FFF712FE08210220FFF70EFE4FF4E0704D
:100DC000009000208DF804000C208DF80500012013
:100DD0008DF8060000A8FFF7AFFE07BD80B54FF401
:100DE000E06000F02DF817208DF8000001208DF84C
:100DF000010001208DF8020001208DF8030000A8F9
:100E000000F023F801BD80B54020FFF7D9FE00288F
:100E100006D04020FFF7E6FE01210848FFF755FA0B
:100E20008020FFF7CDFE002806D08020FFF7DAFEF5
:100E300000210248FFF749FA01BD0000000C004004
:100E40001A4908431A490860704710B4002100226B
:100E50000F23C478002C1DD01549096811F4E061F6
:100E6000D1F5E061090AD1F10402CB40417891400B
:100E700082781A40114309010E4A037899540121DE
:100E8000027812F01F0291400B4A0078401142F89C
:100E9000201009E00121027812F01F029140074A58
:100EA0000078401142F8201010BC70470000FA058D
:100EB0000CED00E000E400E000E100E080E100E093
:100EC00080B500F045F8FFF79BFEFFF765FFFFF7E1
:100ED00085FF00F053F8FFF71FFFFFF7A7FD164847
:100EE00000F05EF8154800F05BF8154800F058F87F
:100EF000144800F055F8144800F052F80F4800F07C
:100F00004FF80D4800F04CF800F001F8FCE780B510
:100F10004FF400510D48FFF75CFD4FF4FA70FFF7F6
:100F20001DFF4FF400510948FFF750FD4FF4FA70D0
:100F3000FFF714FF01BD0000C40F000808100008EF
:100F40004C100008E01000080411000800100140D7
:100F500080B501211020FFF71FFB4FF40050ADF8C2
:100F6000000010208DF8030003208DF8020000A976
:100F70000148FFF7C7FC01BD0010014080B5012109
:100F80001020FFF709FBC020ADF8000048208DF8C5
:100F9000030000A90148FFF7B5FC01BD00100140A6
:100FA0000EB400B582B003A90091024600AB012146
:100FB000034878440A30FFF7D7FB06BC5DF810FB06
:100FC000D10100002A2A2A2A2A2A2A2A2A2A2A2A57
:100FD0002A2A2A2A2A2A2A2A2A2A2A2A2A2A2A2A71
:100FE0002A2A2A2A2A2A2A2A2A2A2A2A2A2A2A2A61
:100FF0002A2A2A2A2A2A2A2A2A2A2A2A2A2A2A2A51
:101000002A2A2A2A2A0D0A002A20202020202020ED
:1010100020202020202020202020202020202020D0
:1010200020202020202020202020202020202020C0
:1010300020202020202020202020202020202020B0
:1010400020202020202020202A0D0A002A202054A1
:1010500068616E6B20796F7520666F722075736999
:101060006E672054686520446576656C6F706D65A9
:101070006E7420426F617264204F66205975616EF4
:10108000446920202021205E5F5E20202A0D0A0076
:101090007047FEE7FEE7FEE7FEE7704770477047E0
:1010A00004480088002804D002480088401E0149F6
:1010B00008807047A800002010B50749794418310E
:1010C000064C7C44163404E00A68081D5118884711
:1010D0000146A142F8D110BD500000007000000090
:1010E0002A2020B0B4CFC25332B0B4BCFCBAF3A3B0
:1010F000ACB7E4C3F9C6F7BFAACABCCFEC20202026
:101100000D0A00002A2020B0B4CFC25332B0B4BCC4
:10111000FCBAF3A3ACB7E4C3F9C6F7CDA3D6B9CFF5
:10112000EC2020200D0A00004FFCFFFF54000000BF
:1011300058000020000000009FF7FFFF580000004B
:1011400060010000000000200000000000F00BF82B
:10115000002801D0FFF7B0FF0020C046C046FFF7CF
:10116000AFFE00F002F80120704700F001B8000067
:101170000746384600F002F8FBE7000080B5C0469D
:10118000C046024A11001820ABBEFBE72600020051
:1011900038B504460D46284600F006F8A84218BFA8
:1011A0000024204632BD00000149FFF778BD00BF92
:1011B000000000200148804701480047F50500086D
:1011C000C5110008C046C046C046C046FFF7BEFF76
:1011D000FFF75EBFFFF75DBFFFF75CBFFFF75BBFC9
:1011E000FFF75ABFFFF759BFFFF758BFFFF757BFC9
:1011F000FFF756BFFFF7FEBFFFF7FEBFFFF7FEBFCB
:10120000FFF7FEBFFFF7FEBFFFF7FEBFFFF7FEBF12
:10121000FFF7FEBFFFF7FEBFFFF7FEBFFFF7FEBF02
:10122000FFF7FEBFFFF7FEBFFFF7FEBFFFF7FEBFF2
:10123000FFF7FEBFFFF7FEBFFFF7FEBFFFF7FEBFE2
:10124000FFF7FEBFFFF7FEBFFFF7FEBFFFF7FEBFD2
:10125000FFF7D9BDFFF7FEBFFFF7FEBFFFF7FEBFE9
:10126000FFF7FEBFFFF7FEBFFFF7FEBFFFF7FEBFB2
:10127000FFF7FEBFFFF7FEBFFFF7FEBFFFF7FEBFA2
:10128000FFF7FEBFFFF7FEBFFFF7FEBFFFF7FEBF92
:10129000FFF7FEBFFFF7FEBFFFF7FEBFFFF7FEBF82
:1012A0000204010158000020A8000020580000207E
:1012B00058000020580000203D000020240000209D
:1012C000000000000000000000000000000000001E
:1012D000000000000000000000000000000000000E
:1012E00000000000010203040102030406070809CC
:0812F0000204060800A24A04F2
:04000005080011C519
:00000001FF
