:020000040800F2
:10000000A80400207D0B0008690B00086B0B00089A
:100010006D0B00086F0B0008710B0008000000005A
:10002000000000000000000000000000730B00084A
:10003000750B000800000000770B0008790B000822
:10004000BD0B0008C10B0008C50B0008C90B000858
:10005000CD0B0008D10B0008D50B0008D90B000808
:10006000DD0B0008E10B0008E50B0008E90B0008B8
:10007000ED0B0008F10B0008F50B0008F90B000868
:10008000FD0B0008010C0008050C0008090C000815
:100090000D0C0008110C0008150C0008190C0008C4
:1000A0001D0C0008210C0008250C0008290C000874
:1000B0002D0C0008310C0008350C0008390C000824
:1000C0003D0C0008410C0008450C0008490C0008D4
:1000D0004D0C0008510C0008550C0008BB07000827
:1000E0005D0C0008610C0008650C0008F0B585B0D7
:1000F00004000D0000200021002200230026AF890B
:10010000002F2600208A4CF6FF710840E98808433A
:100110002082A0894EF6F3110840A9882A8911434C
:100120006A8911430843A081A08A4FF6FF41084025
:10013000A9890843A08200A800F0BAF81B488642AB
:1001400001D1039900E00299A089000407D5192084
:1001500000FB01F029684900B0FBF1F206E019202C
:1001600000FB01F029688900B0FBF1F26420B2FBCA
:10017000F0F000010109642303FB1123A1890904A4
:1001800008D5D90032316422B1FBF2F111F0070138
:10019000084307E0190132316422B1FBF2F111F09A
:1001A0000F010843208105B0F0BD00000038014078
:1001B000C9B2002904D0818951F40051818104E041
:1001C00081894DF6FF72114081817047F0B40023A0
:1001D00000240025002689B240F66A17B9420600BD
:1001E0000800C0B24309DBB289B211F01F0401203C
:1001F00010FA04F5012B01D10C3604E0022B01D1D9
:10020000103600E01436D2B2002A03D030682843FA
:10021000306002E03068A8433060F0BC7047C90528
:10022000C90D81807047002289B2B1F5007F008836
:10023000084201D0012200E000221000C0B2704745
:1002400089B28A0589B2C9430180704770B400231E
:1002500000240025002289B240F66A16B1420A0045
:10026000D2B25509EDB289B211F01F04012212FA7F
:1002700004F4012D02D18289144006E0022D02D13E
:10028000028A144001E0828A144089B20B0A9BB2B0
:10029000012111FA03F300880340002C03D0002B46
:1002A00001D0012200E000221000C0B270BC7047F3
:1002B00030B400220021002300243D4D2D6815F0AC
:1002C0000C052A00002A04D0042A05D0082A06D0EA
:1002D00021E03849016020E0364901601DE03449E1
:1002E000096811F47011324A126812F48033890CD3
:1002F000891C002B03D1304A514301600AE02C4A8B
:100300001268920303D52C4A5143016002E0294A46
:100310005143016001E0274901602549096811F056
:10032000F00212092549545C0168E140416020490E
:10033000096811F4E062120A2049545C4168E14006
:1003400081601B49096811F46052D20A1B49545C50
:100350004168E140C1601649096811F44042920BBE
:100360001749545CC168B1FBF4F1016130BC7047BE
:10037000C9B2002905D0134909680843114908602A
:1003800005E01049096831EA00000E49086070472D
:10039000C9B2002905D00C49096808430A49086018
:1003A00005E00949096831EA00000749086070471B
:1003B0000410024000127A0000093D0040000020B5
:1003C00050000020181002401C10024080B54F4819
:1003D000006850F001004D4908604D4800684D49E3
:1003E00008404B490860494800684B490840474964
:1003F00008604648006830F480204449086044485A
:10040000006830F4FE00424908605FF41F00434971
:10041000086000F005F85FF000604149086001BD28
:1004200080B500F001F801BD82B0002001900020ED
:1004300000903648006850F48030344908603348F2
:10044000006810F4003000900198401C0190009862
:10045000002803D10198B0F5A06FF0D12B480068B7
:10046000800302D50120009001E000200090009858
:10047000012847D12B48006850F010002949086036
:1004800028480068800880002649086025480068E0
:1004900050F00200234908601D4800681C490860AC
:1004A0001B4800681A4908601948006850F48060C9
:1004B000174908601648006830F47C101449086039
:1004C0001348006850F4E810114908600F480068AC
:1004D00050F080700D4908600C4800688001FBD521
:1004E0000B480068800880000949086008480068D7
:1004F00050F00200064908600548006810F00C0042
:100500000828F9D102B07047000000000010024036
:10051000041002400000FFF8FFFFF6FE0810024042
:1005200008ED00E00020024070B50446084615467C
:100530001E0004D015F8011BA047761EFAD170BD2D
:100540002DE9F04784B08246894614461F460DF1D6
:10055000000807E00123224649465046FFF7E4FF22
:100560008146641C207810B904B0BDE8F0872528C6
:10057000F0D1641C14F8010B0146252818D0582826
:100580005CD063280ED0642818BF692814D06F2867
:1005900054D0702858D073285DD0752818BF78289B
:1005A0004CD0DFE73868386050F8041B3860C9B2B7
:1005B0004846D0478146D5E73868386050F8045B34
:1005C0003860002D03D52D214846D0478146642050
:1005D0006F2808BF082205D040F02001782914BFF9
:1005E0000A2210220B21AC46642803D1002D48BFFB
:1005F000CCF1000CBCFBF2F502FB15CC0CF1300683
:100600004B1E5FFA86FC1946BCF13A0FA4BFA0F15D
:10061000510EF44403F808C05FEA050C01D001292B
:10062000E8DA00A80D184846D1F10B09C2D015F838
:10063000011BD047B9F10109F9D1BBE7396839602D
:1006400051F8045B3960C3E73868386050F8045BE0
:1006500038607820BCE73868386050F8045B386050
:10066000284600F009F806004846A3D015F8011BFB
:10067000D047761EFAD19DE700F10103810704D02F
:1006800010F8011B89B18107FAD10268B2F101317A
:10069000914311F0803F04BF50F8042FF6E710F8A3
:1006A000011B11B110F8011BFBE7C01A704710B411
:1006B00050F8041B81B102681218001D50F8043B69
:1006C000DC0744BFA9F10104E31852F8044B43F8D6
:1006D000044B091FF9D1EBE710BC704700B585B09A
:1006E00001210820FFF744FE01215FF48020FFF77D
:1006F0004FFE0220ADF8000010208DF8030003200B
:100700008DF8020000A9354800F06EF84FF48060C3
:10071000ADF8000018208DF8030003208DF80200CA
:1007200000A92E4800F060F84FF40060ADF800001A
:1007300004208DF8030003208DF8020000A927484B
:1007400000F052F84FF4165001900020ADF8080068
:100750000020ADF80A000020ADF80C000020ADF834
:1007600010000C20ADF80E0001A91D48FFF7BEFCDB
:10077000012240F225511A48FFF728FD4021184870
:10078000FFF75EFD01211648FFF712FD05B000BD21
:1007900080B54FF4E06000F091F827208DF800005C
:1007A00001208DF8010000208DF8020001208DF855
:1007B000030000A800F087F801BD80B540F2255184
:1007C0000748FFF743FD002805D006480188C9B255
:1007D00001A000F0B3F801BD25630000000C01404A
:1007E0000048004004480040F0B4002200260024E5
:1007F00000250023002791F803C01CF00F0C62466F
:1008000091F803C05FEACC6C01D58B781A430B7862
:100810001B0621D00368002406E0CD78482D02D1C4
:100820000125A5400561641C082C14D20125A540B2
:100830000E882E40AE42F6D1A5000F2616FA05F717
:10084000BB4312FA05F52B43CD78282DE5D10125C0
:10085000A5404561E7E703600B88FF2B26DD436871
:10086000002420E0012514F10806B5400E882E4032
:10087000AE4217D1A5000F2616FA05F7BB4312FAB0
:1008800005F52B43CD78282D04D1012514F1080658
:10089000B5404561CD78482D04D1012514F10806F5
:1008A000B5400561641C082CDCD34360F0BC704784
:1008B00089B20161704789B2416170471A490843A2
:1008C0001A490860704710B4002100220F23C47831
:1008D000002C1DD01549096811F4E061D1F5E061E3
:1008E000090AD1F10402CB404178914082781A4044
:1008F000114309010E4A037899540121027812F03C
:100900001F0291400B4A0078401142F8201009E084
:100910000121027812F01F029140074A007840112D
:1009200042F8201010BC70470000FA050CED00E002
:1009300000E400E000E100E080E100E00EB400B57A
:1009400082B003A90091024600AB0121034878441C
:100950000A30FFF7F5FD06BC5DF810FBE901000069
:1009600080B5FFF7BBFEFFF713FF1448FFF7E6FF64
:100970001348FFF7E3FF1348FFF7E0FF1048FFF7C6
:10098000DDFF0E48FFF7DAFFFEE710B50400022195
:100990000D48FFF78DFF2100C9B289B20B48FFF760
:1009A0003EFC40210948FFF73EFC0028F9D0022117
:1009B0000548FFF780FF200010BD0000D0090008A7
:1009C000100A0008500A0008000C014000480040CE
:1009D0002A2A2A2A2A2A2A2A2A2A2A2A2A2A2A2A77
:1009E0002A2A2A2A2A2A2A2A2A2A2A2A2A2A2A2A67
:1009F0002A2A2A2A2A2A2A2A2A2A2A2A2A2A2A2A57
:100A00002A2A2A2A2A2A2A2A2A2A2A2A2A0D0A00AD
:100A10002A202020202020202020202020202020CC
:100A200020202020202020202020202020202020C6
:100A300020202020202020202020202020202020B6
:100A40002020202020202020202020202A0D0A00E5
:100A50002A205468616E6B20796F7520666F722052
:100A60007573696E672054686520446576656C6FA0
:100A7000706D656E7420426F617264204F662059FC
:100A800075616E44692021205E5F5E202A0D0A0098
:100A900010B5074979441831064C7C44163404E0FB
:100AA0000A68081D511888470146A142F8D110BDB7
:100AB0002C0000004C00000050F8041B61B150F8FD
:100AC000042BD30744BFA9F101039A18002342F86D
:100AD000043B091FFAD1EFE770470000DDFFFFFF7D
:100AE000500000005400002000000000C3FBFFFF86
:100AF000540000007401000000000020000000000D
:100B000000F00BF8002801D0FFF7C2FF0020C0461C
:100B1000C046FFF725FF00F002F80120704700F003
:100B200001B800000746384600F002F8FBE7000075
:100B300080B5C046C046024A11001820ABBEFBE794
:100B40002600020038B504460D46284600F006F897
:100B5000A84218BF0024204632BD00000149FFF71B
:100B600014BF00BF000000207047FEE7FEE7FEE76D
:100B7000FEE77047704770477047000001488047A4
:100B800001480047CD0300088D0B0008C046C04651
:100B9000C046C046FFF7B4FFFFF7E6BFFFF7E5BF6B
:100BA000FFF7E4BFFFF7E3BFFFF7E2BFFFF7E1BFE7
:100BB000FFF7E0BFFFF7DFBFFFF7DEBFFFF7FEBFC6
:100BC000FFF7FEBFFFF7FEBFFFF7FEBFFFF7FEBF59
:100BD000FFF7FEBFFFF7FEBFFFF7FEBFFFF7FEBF49
:100BE000FFF7FEBFFFF7FEBFFFF7FEBFFFF7FEBF39
:100BF000FFF7FEBFFFF7FEBFFFF7FEBFFFF7FEBF29
:100C0000FFF7FEBFFFF7FEBFFFF7FEBFFFF7FEBF18
:100C1000FFF7FEBFFFF7FEBFFFF7FEBFFFF7FEBF08
:100C2000FFF7FEBFFFF7FEBFFFF7FEBFFFF7FEBFF8
:100C3000FFF7FEBFFFF7FEBFFFF7FEBFFFF7FEBFE8
:100C4000FFF7FEBFFFF7FEBFFFF7FEBFFFF7FEBFD8
:100C5000FFF7FEBFFFF7FEBFFFF7AFBDFFF7FEBF19
:100C6000FFF7FEBFFFF7FEBF0204010154000020A2
:100C7000A400002054000020540000205400002054
:100C80003D000020240000200000000000000000C3
:100C90000000000000000000000000000000000054
:100CA000000000000000000000000000010203043A
:0C0CB000010203040607080902040608FC
:0400000508000B8D57
:00000001FF
