:020000040800F2
:10000000B0040020110B0008350A0008370A000868
:10001000390A00083B0A00083D0A000800000000F9
:100020000000000000000000000000003F0A00087F
:10003000410A000800000000430A0008450A0008C1
:10004000510B0008550B0008590B00085D0B000808
:10005000610B0008650B0008690B00086D0B0008B8
:10006000710B0008750B0008790B00087D0B000868
:10007000810B0008850B0008890B00088D0B000818
:10008000910B0008950B0008990B00089D0B0008C8
:10009000A10B0008A50B0008A90B0008AD0B000878
:1000A000B10B0008B50B0008B90B0008BD0B000828
:1000B000C10B0008C50B0008C90B0008CD0B0008D8
:1000C000D10B0008D50B0008D90B0008DD0B000888
:1000D000E10B0008E50B0008E90B0008ED0B000838
:1000E000F10B0008F50B0008F90B000880B54F482C
:1000F000006850F001004D4908604D4800684D49C6
:1001000008404B490860494800684B490840474946
:1001100008604648006830F480204449086044483C
:10012000006830F4FE00424908605FF41F00434954
:10013000086000F005F85FF000604149086001BD0B
:1001400080B500F001F801BD82B0002001900020D0
:1001500000903648006850F48030344908603348D5
:10016000006810F4003000900198401C0190009845
:10017000002803D10198B0F5A06FF0D12B4800689A
:10018000800302D50120009001E00020009000983B
:10019000012847D12B48006850F010002949086019
:1001A00028480068800880002649086025480068C3
:1001B00050F00200234908601D4800681C4908608F
:1001C0001B4800681A4908601948006850F48060AC
:1001D000174908601648006830F47C10144908601C
:1001E0001348006850F4E810114908600F4800688F
:1001F00050F080700D4908600C4800688001FBD504
:100200000B480068800880000949086008480068B9
:1002100050F00200064908600548006810F00C0024
:100220000828F9D102B07047000000000010024019
:10023000041002400000FFF8FFFFF6FE0810024025
:1002400008ED00E00020024070B504461E0008469C
:10025000154604D015F8011BA047761EFAD170BDD3
:100260002DE9F04784B08246894614461F460DF1B9
:10027000000807E00123224649465046FFF7E4FF05
:100280008146641C207810B904B0BDE8F0872528A9
:10029000F0D16078A41C2528014618D058285CD0DD
:1002A00063280ED0642818BF692814D06F2854D052
:1002B000702858D073285DD0752818BF78284CD086
:1002C000E0E73868386050F8041B3860C9B2484627
:1002D000D0478146D6E73868386050F8045B38600C
:1002E000002D03D52D214846D047814664206F2834
:1002F00008BF082205D040F02001782914BF0A2247
:1003000010220B216428AC4603D1002D48BFCCF14C
:10031000000CBCFBF2F502FB15CC0CF1300C5FFAC3
:100320008CFC4B1EBCF13A0FA4BFA0F1510EF4445B
:1003300003F808C019465FEA050C01D00129E8DA84
:1003400000A80D184846D1F10B09C2D015F8011BC1
:10035000D047B9F10109F9D1BBE73968396051F8E3
:10036000045B3960C3E73868386050F8045B386074
:100370007820BCE73868386050F8045B386028465D
:1003800000F00AF806004846A3D015F8011BD04734
:10039000761EFAD19DE7000000F10103810704D029
:1003A00010F8011B89B18107FAD10268B2F101315D
:1003B000914311F0803F04BF50F8042FF6E710F886
:1003C000011B11B110F8011BFBE7C01A70470000B8
:1003D00070B586B004000D0000200020002100212F
:1003E0000026A88900282600208A4CF6FF710840C4
:1003F000E98808432082A0894EF6F3110840A988B5
:100400002A8911436A8911430843A081A08A4FF6C3
:10041000FF410840A9890843A08200A800F058F8CD
:100420001A48864201D1039800E00298A189090484
:1004300006D51921484329684900B0FBF1F105E0D0
:100440001921484329688900B0FBF1F16420B1FB10
:10045000F0F000010209642303FB1211A2891204C7
:1004600008D5C90032316422B1FBF2F111F0070165
:10047000084307E0090132316422B1FBF2F111F0C7
:100480000F010843208106B070BD00000038014014
:10049000C9B2002904D0818951F40051818104E05E
:1004A00081894DF6FF72114081817047C905C90DE0
:1004B00081807047002289B2B1F5007F0088084230
:1004C00001D0012200E000221000C0B270470000FD
:1004D00000210021002200213549096811F00C019A
:1004E000002904D0042905D0082906D021E031498B
:1004F000016020E02F4901601DE02D49096811F4D9
:1005000070112B4A126812F48032890C891C002A5F
:1005100003D1294A514301600AE0254A1268920337
:1005200003D5254A5143016002E0224A514301604C
:1005300001E0204901601E49096811F0F001090934
:100540001E4A895C02681300CB4043601849096861
:1005500011F4E061090A194A895C42681300CB4032
:1005600083601349096811F46051C90A134A895C10
:1005700042681300CB40C3600D49096811F4404143
:10058000890B0F4A895CC268B2FBF1F101617047C7
:10059000C9B2002905D00B49096808430949086018
:1005A00005E00849096831EA00000649086070471B
:1005B0000410024000127A0000093D0040000020B3
:1005C000500000201810024070B4002200250023C3
:1005D000002600240025CA7812F00F02CB78DB0633
:1005E00001D58B781A430B781B0621D004680023B1
:1005F00006E0CD78482D02D101259D4005615B1CA8
:10060000082B14D2012515FA03F60D883540B542A2
:10061000F5D19E000F25B540AC4312FA06F52C43E8
:10062000CD78282DE5D101259D404561E7E704609F
:100630000B88FF2B26DD4468002320E0012513F101
:10064000080615FA06F60D883540B54216D19E000B
:100650000F25B540AC4312FA06F52C43CD78282D72
:1006600004D1012513F10806B5404561CD78482D28
:1006700004D1012513F10806B54005615B1C082B68
:10068000DCD3446070BC704740B2002808D5090133
:100690001A4A40B210F00F00801800F8041C03E062
:1006A0000901174A40B28154704780B5411EB1F12B
:1006B000807F01D301200EE0401E124908600F2107
:1006C0005FF0FF30FFF7E0FF00200F4908600720D0
:1006D0000E490860002002BD80B50D4800680D4934
:1006E000B0FBF1F0FFF7E1FF0028F6D101BD0A49A8
:1006F0000880094800880028FBD1704718ED00E009
:1007000000E400E014E000E018E000E010E000E0A9
:100710005400002040420F00A800002010B5040043
:1007200003E04FF47A70FFF7E2FF2000441E80B22E
:100730000028F6D110BD000000B585B0012144F2BB
:100740000400FFF725FF4FF40070ADF800001820FB
:100750008DF8030003208DF8020000A91E48FFF762
:1007600033FF4FF48060ADF8000004208DF80300E3
:1007700003208DF8020000A91748FFF725FF4FF46A
:10078000165001900020ADF808000020ADF80A00D6
:100790000020ADF80C000020ADF810000C20ADF8E2
:1007A0000E0001A90D48FFF713FE01210B48FFF7CA
:1007B0006FFE05B000BD10B504002100C9B289B2BA
:1007C0000648FFF773FE40210448FFF773FE002838
:1007D000F9D0200010BD00000008014000380140A1
:1007E00080B501211820FFF7D3FE4FF40050ADF87B
:1007F000000010208DF8030003208DF8020000A9EE
:100800001C48FFF7E1FE0120ADF8000010208DF834
:10081000030003208DF8020000A91748FFF7D4FE5B
:100820000220ADF8000010208DF8030003208DF8A1
:10083000020000A91048FFF7C7FE01BDC0B20128A1
:1008400006D10E48006890F400500C4908600FE093
:10085000C0B2022806D10A48006890F00100084999
:10086000086005E00648006890F00200044908604E
:100870007047000000100140000C01400C100140C6
:100880000C0C014080B5FFF757FFFFF7A9FFFFF7FA
:1008900023FF0E4800F020F80D4800F01DF80D4829
:1008A00000F01AF80A4800F017F8084800F014F8A9
:1008B0000120FFF7C3FF0220FFF7C0FF0320FFF76F
:1008C000BDFF4FF4FA70FFF729FFF1E7FC080008BD
:1008D00040090008840900080EB400B582B003A9DD
:1008E0000091024600AB0121034878440A30FFF72B
:1008F000B7FC06BC5DF810FBF50100002A2A2A2A85
:100900002A2A2A2A2A2A2A2A2A2A2A2A2A2A2A2A47
:100910002A2A2A2A2A2A2A2A2A2A2A2A2A2A2A2A37
:100920002A2A2A2A2A2A2A2A2A2A2A2A2A2A2A2A27
:100930002A2A2A2A2A2A2A2A2A2A2A2A2A0D0A007E
:100940002A2020202020202020202020202020209D
:100950002020202020202020202020202020202097
:100960002020202020202020202020202020202087
:100970002020202020202020202020202020202077
:100980002A0D0A002A20205468616E6B20796F7549
:1009900020666F72207573696E6720546865204405
:1009A0006576656C6F706D656E7420426F61726400
:1009B000204F66205975616E446920202021205EF9
:1009C0005F5E20202A0D0A0019E050F8041BCB07B7
:1009D00044BFA9F101035918121F0023042A41F84A
:1009E000043BF9D25FEA827C0B4604D54FF0000C41
:1009F000A1F800C09B1CD10744BF0021197050F81A
:100A0000042B002AE1D1704710B450F8041B79B1CF
:100A10000268436812180830DC0744BFA9F10104DA
:100A2000E31852F8044B43F8044B091FF9D1ECE7E3
:100A300010BC70477047FEE7FEE7FEE7FEE7704731
:100A40007047704704480088002804D00248008896
:100A5000401E014908807047A800002010B50749D2
:100A600079441831064C7C44163404E00A68081DA9
:100A7000511888470146A142F8D110BD0800000076
:100A80002800000045FFFFFF540000005800002030
:100A90000000000075FFFFFF58000000600100002B
:100AA000000000200000000000F00BF8002801D03A
:100AB000FFF7D4FF0020C046C046FFF7E3FE00F07A
:100AC00002F80120704700F001B8000007463846E0
:100AD00000F002F8FBE7000080B5C046C046024ABD
:100AE00011001820ABBEFBE72600020038B5044613
:100AF0000D46284600F006F8A84218BF00242046FC
:100B000032BD00000149FFF756BE00BF00000020C3
:100B10000148804701480047ED000008210B00080C
:100B2000C046C046C046C046FFF7BEFFFFF782BFC3
:100B3000FFF781BFFFF780BFFFF77FBFFFF77EBFE3
:100B4000FFF77DBFFFF77CBFFFF77BBFFFF77ABFE3
:100B5000FFF7FEBFFFF7FEBFFFF7FEBFFFF7FEBFC9
:100B6000FFF7FEBFFFF7FEBFFFF7FEBFFFF7FEBFB9
:100B7000FFF7FEBFFFF7FEBFFFF7FEBFFFF7FEBFA9
:100B8000FFF7FEBFFFF7FEBFFFF7FEBFFFF7FEBF99
:100B9000FFF7FEBFFFF7FEBFFFF7FEBFFFF7FEBF89
:100BA000FFF7FEBFFFF7FEBFFFF7FEBFFFF7FEBF79
:100BB000FFF7FEBFFFF7FEBFFFF7FEBFFFF7FEBF69
:100BC000FFF7FEBFFFF7FEBFFFF7FEBFFFF7FEBF59
:100BD000FFF7FEBFFFF7FEBFFFF7FEBFFFF7FEBF49
:100BE000FFF7FEBFFFF7FEBFFFF7FEBFFFF7FEBF39
:100BF000FFF7FEBFFFF7FEBFFFF7FEBF02040101D4
:100C000058000020A80000205800002058000020B4
:100C1000580000203D0000202400002000000000BB
:100C200000000000000000000000000000000000C4
:100C300000000000000000000000000000000000B4
:100C4000010203040102030406070809020406085E
:040C500000A24A04B0
:0400000508000B21C3
:00000001FF
