:020000040800F2
:1000000058050020412800080D2700080F27000888
:10001000112700081327000815270008000000001A
:10002000000000000000000000000000172700088A
:1000300019270008000000001B2700081D270008E2
:10004000A5280008A9280008AD280008B128000844
:10005000B5280008B9280008BD280008C1280008F4
:10006000C5280008C9280008CD280008D1280008A4
:10007000D5280008D9280008DD280008E128000854
:10008000E5280008E9280008ED280008F128000804
:10009000F5280008F9280008FD28000801290008B3
:1000A00005290008092900080D2900081129000860
:1000B00015290008192900081D2900082129000810
:1000C00025290008292900082D29000831290008C0
:1000D00035290008392900083D2900084129000870
:1000E00045290008492900084D2900082DE9F04F4D
:1000F000A1B08046002017461D4602910B900DF1DD
:10010000440A6FF000490AE017F8011B0298C04743
:100110000028029000F0A5820B98401C0B903878C4
:1001200008B90B989FE22528EED100200590069093
:100130000790089009900A9001E040F0010017F83C
:10014000011F2029F9D023290DD02B2904D02D29D6
:1001500006D030290AD00CE040F0020080B2EEE771
:1001600040F00400FAE740F00800F7E740F0100024
:10017000F4E72A290ED12968296051F8042B296057
:10018000002A0D9204D5514240F004000D9180B236
:100190007F1C11E000210D9109E00D99494505D022
:1001A00001EB810302EB430130390D917F1C3A785A
:1001B000A2F130010A29F0D339782E2903D04FF06B
:1001C000FF310C911DE017F8011F2A2907D129687A
:1001D00029607F1C51F8042B29600C9211E000214A
:1001E0000C9109E00C99494505D001EB810302EB24
:1001F000430130390C917F1C3A78A2F130010A2971
:10020000F0D3ADF838000FF6C020397800F06AFD61
:1002100008B117F8010B8DF83A009DF83A006828EC
:1002200002BF39786829622005D06C2804BF38786D
:100230006C2803D171208DF83A007F1C11A804901E
:1002400017F8014BB4F1250023D02038022840F2E2
:10025000BB80133800F0E0800B3800F04A81401E6C
:1002600000F02381401E022840F2AE80001F00F003
:100270001C81401F79D0401E00F0CE80401E24D04B
:10028000C01E0BD0801E00F0C780C01E00F0C480CE
:1002900039E125208DF8440001203DE128682860DF
:1002A00050F8046B286003960C9C002C04D5304653
:1002B00000F024FD044606E022460021304600F00E
:1002C00039FD00B1841B069427E1296829603C248C
:1002D00051F8040B29600021CDE9000111A8039019
:1002E000DDE90001049E11B908B90C9AB2B1020609
:1002F000120FA0EB02123032D2B2631E3A2AA8BF0C
:100300002732000940EA017009099A5508BF002800
:100310001C4603D0039AA3199A42E8D3A01903906C
:10032000C4F13C010C980691814209DA401A089008
:100330004FF6EF71BDF838000840ADF83800ECE03A
:10034000002840F1EA809DF8380000F014001028E1
:1003500040F0E3800D98059A801A089A801A441A92
:10036000012CC0F2DA800894D7E09DF83A006228A8
:100370001AD0682806D06A280CD06C281CD07128A6
:1003800008D019E02868286050F8041B28600B98F2
:100390000880C2E02868286050F8042B28600B9879
:1003A000C117C2E90001B8E02868286050F8041BB2
:1003B00028600B980870B0E02868286050F8041B8B
:1003C00028600B980860A8E02868C01D20F007028C
:1003D0002A60D2E9000108322A60CDE90001002933
:1003E00002D505982D210AE0BDF83800810702D515
:1003F00005982B2103E0C00705D50598202100F8BA
:100400000A10401C059011A8059908180390214670
:1004100000A800F0E5F980E09DF83A006C280DD0C6
:10042000712818BF6A2809D12868C01D20F007026A
:100430002A60D2E9000108322A6005E029682960B3
:1004400051F8040B29600021CDE900019DF83A0024
:10045000682803D1DDE9000180B20BE0622803D1F6
:10046000DDE90001C0B205E0742818BF7A2804D184
:10047000DDE900010021CDE900019DF83800000709
:100480002ED5DDE90001002908BF002828D044F05E
:100490002000782824D10598302100F80A10401C4B
:1004A000411C059100F80A401AE09DF83A002946DF
:1004B00000F0DCF8CDE90001002902DA05982D21D1
:1004C0000AE0BDF83800810702D505982B2103E02A
:1004D000C00705D50598202100F80A10401C05909A
:1004E00011A8059908180390214600A800F0F5F816
:1004F00013E0012005902868286050F8041B28604C
:100500008DF8441009E025208DF844000120059065
:100510001CB18AF80140022005900D980599401AF7
:100520000899401A0699401A0999401A0799401AE1
:100530000A99441A9DF83800400710D420208DF8FD
:100540004000002609E0012310AA00A9404600F05F
:10055000A3FB002840F08580761CA642F3DB059EB5
:100560000DF1440B0AE01BF8011B0298C04700285C
:10057000029076D00B98401C0B90761E002EF2D184
:1005800030208DF840004FF0000B089E09E0012359
:1005900010AA00A9404600F07FFB002861D10BF1B2
:1005A000010BB345F3DB069EDDF80CB00AE01BF847
:1005B000011B0298C0470028029052D00B98401CA3
:1005C0000B90761E002EF2D130208DF840004FF0B7
:1005D000000B099E09E0012310AA00A9404600F083
:1005E0005BFB00283DD10BF1010BB345F3DB039816
:1005F0000699079E01EB000B09E01BF8011B02980E
:10060000C047029068B30B98401C0B90761E002EDA
:10061000F3D130208DF840004FF0000B0A9E08E027
:10062000012310AA00A9404600F036FBC8B90BF11F
:10063000010BB345F4DB9DF8380040077FF56FAD43
:1006400020208DF84000002600E0761CA642BFF670
:1006500066AD012310AA00A9404600F01DFB00284A
:10066000F3D04FF0FF3021B0BDE8F08F622826D0E4
:1006700068281DD06A2808D06C2827D0712804D09B
:10068000742823D07A280CD020E00868C01D20F000
:1006900007000860D0E900230830086019461046BA
:1006A00070470A680A6052F8040B0A60002170471C
:1006B0000A680A6052F8040B0A6000B20BE00A688C
:1006C0000A6052F8040B0A6040B204E00A680A604B
:1006D00052F8040B0A60C11770472DE9FA4E05461F
:1006E0000A462F696F2A08BF082405D041F0200070
:1006F000782814BF0A2410243C26D5E90001642A76
:1007000018BF692A81468A4605D1002903DAD9F142
:1007100000096AEB4A0ABAF1000F08BFB9F1000FED
:100720000CD1286B50B9082C36D195F83800000749
:1007300032D530203B2687F83B002DE0E3174846B2
:100740005146224600F022FBA4FB0023A9EB020243
:100750003032D2B2A6F1010B3A2A5E4603DB9DF895
:100760000030513B9A1881465FEA010A0BF80720D6
:1007700008BFB9F1000F03D0E868F1198842DDD352
:10078000082C09D195F83800000705D5F05D302810
:1007900002D0761E3020F055C6F13C00A861F11958
:1007A000E960296B884208DA081A28624FF6EF716F
:1007B000288F08402887BDE8F38E00290ED595F8CC
:1007C000381001F01401102908D1696B6A69891A7F
:1007D0002A6A891A0E1A012EA8BF2E62BDE8F38E6E
:1007E0002DE9F34F8BB0D0E90089006B002801AFF1
:1007F00048BF062005D404BF41F02000672802D17D
:1008000001200B99086340F2FF720B984168C1F315
:100810000A50904220D1080302BF0B9800680028BC
:100820000AD10B99032088619DF8300061381A289D
:1008300058D30FF2A84109E00B99032088619DF875
:10084000300061381A284AD30FF288410B98C068EB
:10085000032200F013FB00E1012807DA0B9800F0F7
:1008600048FB012802DB00230026EDE00B9ADFF8AD
:1008700054B1526840F2FE3161F31E520B994A6046
:1008800040F2FE31461A404649460022002300F05D
:1008900051FB38BF89F0004936B247F29750704398
:1008A000494990FBF1F636B2C6F10707012F92468F
:1008B0001BDBF80707D552465B464046494600F029
:1008C00051FB804689465046594652465B467F104A
:1008D00000F048FB002F82468B46EAD126E00FF25B
:1008E000F031B3E70FF2F031B0E77F420024374D2B
:1008F00012E0F80707D552465B462046294600F02D
:1009000031FB04460D465046594652465B4600F0C0
:1009100029FB7F1082468B46002FEAD1404649468C
:1009200022462B4600F0F0FB804689469DF83000B9
:100930000B99DFF89CB0096B40F02005662D0CBFC9
:1009400006F10A0006204718142FA8BF13273020ED
:100950008DF804000DF10504012F3BDB40464946AC
:1009600000F0FEFC014604F1080204234FF00A0CDB
:10097000B1FBFCFC0CEB8C04A1EB4401303102F820
:10098000011C0A21BCFBF1FE0EEB8E04ACEB44040F
:1009900030345B1E714602F8024DE7D1083F012F4B
:1009A00002F10804D8DB00F0F1FC02460B46404699
:1009B000494600F0F9FC00225B4600F0D3FA80467D
:1009C0008946CBE700002440A08601000000F03FEC
:1009D00084D797410DF10500201A0DF1050702E0BB
:1009E000401E761E7F1C39783029F9D0662D02D141
:1009F00036B2711C03E0652D0CBF012100210B9A5A
:100A0000126B8B181BB29842B8BF03461BB2190079
:100A10001AD4814204DAC85D3528A8BF392000DA2B
:100A20003020CA19521E00E05B1E12F80159491EFF
:100A30008542F9D0392802D1C85D401CC85500292B
:100A400002D57F1E5B1C761C36B29DF830100B98C9
:100A500000961BB23A4600F003F80DB0BDE8F08FE7
:100A60002DE9F04786B006468A4690461D4600F0BE
:100A700078FD012D406A376B90F8009002DA01256D
:100A80000FF25C284AF02000BDF93840662808BF04
:100A9000641C13D0672840F0888014F1040F73DBC6
:100AA000BC4271DA96F83800641C000702D4BD42DB
:100AB000B8BF2F4624B23F1B48BF002724B2F068BE
:100AC000B169012C21DA4A1C30230B54012F03DABF
:100AD00096F83810090702D502F80090521CE74238
:100AE000B8BF7C4224B2E7196142AF42B261716281
:100AF000B8BF3D46B3692DB2F5612A464146181884
:100B000000F0BCF9781BB062AFE00818A54216DA15
:100B10002A46414600F0B2F9B1696918601B012FFD
:100B2000B161706203DA96F83800000705D5F06805
:100B300001F80090F069401CF061B76295E0224630
:100B4000414600F09BF9B06920182D1B012F03DAF4
:100B500096F83810090703D5F16800F80190401C99
:100B6000B0612DB2AF42B8BF3D46F068B3692DB257
:100B70002A4604EB0801181800F080F9B06928181B
:100B8000B061781B706270E0BD4204DA96F83810EC
:100B9000090758BF2F467F1E48BF0027BAF1670FCD
:100BA0000CBF4FF0650A4FF0450AB169F06818F8BC
:100BB000013B0B544A1C012F05DA96F8381009073F
:100BC00058BFB26115D502F80090531C012FB361D4
:100BD0000FDB6D1E2DB2AF42B8BF3D462DB22A4687
:100BE0004146181800F04AF9B0692818B061781B1E
:100BF0007062F068B1690918200081F800A004D47F
:100C00002B20487001F1020804E02D224A7001F106
:100C100002086442002502AF08E00A2200A800F0A2
:100C2000B9FC019807F8010B6D1C009C21B2012949
:100C3000F3DA022D06DA4AF02000652804BF3020DE
:100C400008F8010B4DB9302008F8010B07E06D1EC4
:100C500002A8285C303008F8010B012DF7DAF068A3
:100C6000B1690818A8EB0000F06196F8380000F0B0
:100C7000140010280DD17069B1690818716A08183C
:100C8000F1690818B16A0818716B8842BCBF081A6C
:100C9000306206B0BDE8F087F8B504460D4616464A
:100CA0001F46002004E0E86A401CE8627F1E002026
:100CB00047B116F8011BA868A0470028A860F2D128
:100CC0004FF0FF30F2BD0000686A6C747A4C00008F
:100CD0006E616E004E414E00696E6600494E4600E0
:100CE000300000000278C9B28A421AB11CBF10F865
:100CF000012FF9E718BF00207047000000F1010341
:100D0000810704D010F8011B89B18107FAD102686C
:100D1000B2F10131914311F0803F04BF50F8042F2C
:100D2000F6E710F8011B11B110F8011BFBE7C01A20
:100D300070470000C9B2830706D0521E22D310F8B4
:100D4000013B9942F7D11FE0083A13D302F10402A4
:100D500041EA012141EA014150F8043B121F21BF41
:100D60004B40A3F1013C2CEA030C1CF0803FF3D074
:100D7000C9B2001F083210F8013B521E28BF91EA89
:100D8000030FF8D818BF0120401E70471B4213D133
:100D9000094236D12AB18446B0FBF2F002FB10C200
:100DA000704700F0FFBBFCD30022002370470B000C
:100DB0000200002100207047904271EB030CF6D333
:100DC00070B5B1FA81F4B3FA83F52C1BA340C4F1DA
:100DD000200532FA05F63343A2405FF00046E640B4
:100DE00002E05B085FEA3202841A71EB030524BF5C
:100DF000204629467641F4D302000B003000002142
:100E000070BD012ACFD970B5140C20D0B1FA81F48D
:100E1000B2FA82F5C4F120046419B4F12006D6D3E5
:100E2000B2405FF00044F440002502E052085FEA5F
:100E30003303C61A71EB020E24BF3046714664417B
:100E40006D41F3D302000B002000290070BD0C4659
:100E5000B1FBF2F102FB11452D0445EA1045B5FB4B
:100E6000F2F402FB145580B240EA0545B5FBF2F0FE
:100E700002FB105240EA044070BD000062B38B07D1
:100E800008D0521E11F8013B00F8013B00F024800D
:100E90008B07F6D1830740F0208000BF103A07D3BC
:100EA00030B4B1E83810103AA0E83810F9D230BCAC
:100EB000530724BFB1E80810A0E8081044BF51F858
:100EC000043B40F8043BD20724BF31F8022B20F842
:100ED000022B44BF0B7803707047083A07D3B1E880
:100EE0000810083A40F8043B40F804CBF7D2530707
:100EF000E4E730B4436803F0004201211B031B0BFD
:100F0000436004BF0368002B08D10DE00368DD0FC8
:100F100045EA440444605B000360491E4468E30200
:100F2000F4D523031B0B436043681A434260084611
:100F300030BC70474FF4001C1CEB410F94BF1CEBFE
:100F4000430F09E041EA030C50EA4C0C52EA0C0C46
:100F500003D2994208BF9042704714BF8B4282422D
:100F600070470000B0B581EA030C0CF0004C40F271
:100F7000FF7515EA11541DBF15EA1357AC42AF4275
:100F800039E0E41923EA455343F48013C90241F0E0
:100F9000004141EA505EC7021100A7FB020200288F
:100FA0004FF00000EEFB01204FF00001E3FB0721B2
:100FB00018BF42F00102401800214941E3FB0E0135
:100FC000A4F580640F0302D252004041494154F11C
:100FD00001046CDD470872F1004250F1000051EB52
:100FE0000451A1F580115CBF41EA0C01B0BD4CEA8F
:100FF00005510020B0BD05EA1357AC4214BFAF4203
:1010000041E050EA410E1CBF52EA430E02E0614645
:101010000020B0BD24423C441BD15FEA070EF6D04D
:10102000090302BF01460020AEF1140EB1FA81F7A8
:10103000AEEB070401FA07FE0C37C7F1200100FAF6
:1010400007F7C8404EEA000E23EA455343F48013E5
:10105000A2E733F00043B3FA83F704BFB2FA82FE8B
:1010600077440B3FE41BB7F1200E2FBF02FA0EF3BB
:10107000BB40C7F1200E22FA0EFE38BF43EA0E0332
:10108000BA40641C82E750EA410E14BF52EA430E94
:101090006FF000014FF4001717EB430F8ABF19469A
:1010A00017EB410FB5E74CEA05510020B0BDD4F174
:1010B0000104B4F120070FDAC4F12007520828BF59
:1010C00042F0010210FA07F501FA07F7E1BF2A43DF
:1010D000E0403843E1400FE0352C98DCC7F12004B4
:1010E00052EA400220FA07F218BF42F0010231FA38
:1010F00007F0A1400A43002172F1004250F10000C4
:1011000051EB0C01B0BD00002DE9F04140F2FF753C
:1011100081EA030C0CF0004C15EA11541DBF15EACE
:101120001357AC42AF42E9E0BC41C1F31301C3F332
:101130001303801A994143F4801304D2641E4000C3
:10114000494180185941C90241EA5051B1FBF3F6B7
:1011500003FB1611A2FB0675D7EBC020A94102D2F2
:10116000761E80185941C90241EA5051B1FBF3FE85
:1011700003FB1E11A2FB0E75D7EBC020A94103D2C1
:10118000AEF1010E80185941890241EA905176056D
:1011900046EA8E2EB1FBF3F603FB1611A2FB067591
:1011A000D7EB8020A94102D2761E80185941C9028E
:1011B00041EA50514EEA060EB1FBF3F603FB16115D
:1011C000A2FB0675D7EBC020A94102D2761E80187B
:1011D0005941C90241EA5051B1FBF3F703FB171122
:1011E000A2FB0735D3EBC020A94167F100070CBF74
:1011F000004247F0010766F3D5274FEA1E31B808D1
:1012000014F5806414DDBD0775F1004250EB0E50FB
:1012100051EB045111F5801F5CBF41EA0C01BDE8A0
:10122000F0814CF07F6141F0E0410020BDE8F081A9
:10123000BD076D0840EA0E5041F48011D4F101045D
:10124000B4F120060ADAC4F120060200E04001FAF7
:1012500006F3E1401843B24015430EE0342C14DC91
:10126000C6F1200445EA40056D0820FA06F2154350
:1012700021FA06F0A1400D43002175F1004250F122
:10128000000051EB0C01BDE8F08100205FEA0C0189
:10129000BDE8F081CFB992185B41B3FA83F704BF80
:1012A000B2FA82F6BF190B3FB7F120062FBF02FA40
:1012B00006F3BB40C7F1200622FA06F638BF3343D7
:1012C000BA401CB1E419641E2FE77F4231F000419F
:1012D000B1FA81F404BFB0FA80F6A4190B3CB4F162
:1012E00020062FBF00FA06F1A140C4F1200620FA23
:1012F00006F638BF3143A0403C1B16E7AC421ABF8C
:1013000005EA1357AF4214E050EA41061CBF52EA07
:101310004306BFE750EA4107304661461CBF41EA39
:101320000551BDE8F08152EA430C08BFC143BDE856
:10133000F08100204FF4001616EB410F98BF16EB1A
:10134000430F08BF16EB410F24BFC14305E016EB66
:10135000430F0CBF61464CEA0551BDE8F081000027
:10136000400D40EAC120490080F00D8040F000406F
:10137000490DA1F58061491C05D4D1F11F0154BF6D
:10138000C840C01770474FF000007047010000BF11
:1013900009D0B0FA80F18840C91CC1F58461090503
:1013A00001EBD02140057047F0B44FF0004591EAC1
:1013B000030F44BF6B4000F001B900BF841A71EB0A
:1013C000030604D26E40001BB141121973414FF461
:1013D000001C1CEB410F34BF7CEB430684E00C0D7A
:1013E000A4EB1356362E7DDC012E43DC45EAC323E5
:1013F00043EA525312BFD20292025B08240545EA27
:10140000C12141EA5051D2EBC020994125D407D1E6
:10141000B0FA80F610FA06F164D00020203608E019
:10142000B1FA81F6B140C6F1200220FA02F211436E
:10143000B0404FEAF474B4EB465434F001064FEA7E
:1014400074040AD8D6F50016760D04F00044F04076
:1014500061FA06F25040F1404840C00A40EA41506B
:1014600021F0004128BF5FEA500550F1000044EB35
:10147000D12137E045EAC323DB0A45EAC121C90A85
:10148000B6F120050EDD42EA0242120CC5F120063B
:1014900003FA06F6EB4042EA06056D42984161F117
:1014A00000010DE062FA06F5F240554063FA06FCD1
:1014B00082EA0C02F3405A406D42904161EB030115
:1014C00011F4801F05D1641E620502D06D004041F9
:1014D000494121F48011430875F1004350F10000A7
:1014E00041EB0451F0BC70471CEB410F15D223F0C7
:1014F000004352EA43060BD04FEA4C0CBCEB410FC1
:1015000004D80C0D661E342EB7DDEBE7801A994126
:1015100050EA410608BF0021E4E708BF1CEB430F77
:1015200028BF6FF00001DDE780B5134800F0B0F888
:101530000FF24C020FF244010160426241600FF26F
:101540004402826381600FF24402C1600161416123
:1015500081618162C16201634163C263016441646C
:1015600001BD10B5044800F093F80446206808B99E
:10157000FFF7DAFF204610BD000000200000000049
:101580002E00000066616C73650000007472756562
:101590000000000091FBF2F303FB1211C0E90031DF
:1015A0007047000070470000F0B44FF0004591EA2A
:1015B000030C44BF6B40FFF701BF00BF841A71EBFF
:1015C000030603D2001BB141121973414FF4001CF2
:1015D0001CEB410F34BF7CEB430443E00C0DA4EB48
:1015E0001356352E50DC45EAC323DB0A45EAC121F8
:1015F000C912B6F120050DDD63FA05F6EB4086EA67
:101600000305124218BF45F00105C01851F1000151
:101610000CD213E062FA06F5F2405540F3415A400D
:10162000B340F3405A408018594107D349085FEA54
:1016300030005FEA350528BF45F0010501F580114E
:10164000420875F1004250F1000041EB0451F0BC3A
:101650004FF4001C1CEB410F38BF70470020090DF0
:10166000090570471CEB410F10D252EA43060BD01C
:10167000BCEB410F05D80C0DAB43661E342EB5DD17
:1016800002E0AB4380185941F0BC7047F0BC704792
:1016900070470000002104E0521C92B20B2AFBDBD1
:1016A000491C89B280B2814201D20022F5E770471D
:1016B00038B504000D0000F0F6FA002801D1002032
:1016C00019E0802000F08BFB00F064FB002803D1C0
:1016D00000F012FB00200EE02000C0B200F07FFB03
:1016E00000F058FB2800C0B200F079FB00F052FB7C
:1016F00000F002FB012032BD70B504000D001600A1
:1017000000F0D1FA002801D100202BE0802000F069
:1017100066FB00F03FFB002803D100F0EDFA00204B
:1017200020E02000C0B200F05AFB00F033FB00F0D4
:10173000BAFA812000F053FB00F02CFB03E000F02C
:10174000F5FA761C6D1EADB2002D08D000F06FFBCF
:101750003070ADB2012DF2D100F002FBF1E700F0E4
:10176000CBFA012070BDF0B4002400250E0000E08B
:10177000761CF6B2C9B2D2B25418A6420FDAF6B24B
:10178000345C6540082401E06D00641EE4B2002C66
:10179000EED02F06F8D56D0095F03105F5E7EDB2E6
:1017A000DBB29D4201D1012000E00020F0BC704777
:1017B00080B500208DF8000000AA0121E720FFF786
:1017C0009BFF9DF8000002BD10B504002100C9B2C6
:1017D000E620FFF76DFFFFF7EBFFE4B2844201D193
:1017E000012000E0002010BD10B582B0002400A848
:1017F0000021016000F057FA002801D1002062E0CA
:10180000802000F0ECFA00F0C5FA002803D100F0C7
:1018100073FA002057E0F32000F0E1FA00F0BAFA82
:101820001420FFF737FF00F067FA00F03CFA812040
:1018300000F0D5FA00F0AEFA0028F6D0002407E058
:1018400000F0F5FA00A9E4B2605400F06FFA641CED
:10185000E4B2042CF4DB00F083FA00F04DFA9DF8BA
:1018600000009DF8011008189DF8021008180128C2
:1018700028DB9DF802300222002100A8FFF773FF49
:1018800000281FD09DF800009DF8011011EB0020EA
:101890004FF6FC71084000F0F5FA00F00BFBDFF8A2
:1018A0006823DFF86833FFF75DFBDFF86423DFF8B8
:1018B0006433FFF779FE00F025FBDFF85C13086066
:1018C000012000E0002016BD10B582B0002400A861
:1018D0000021016000F0E7F9002801D100205DE05F
:1018E000802000F07CFA00F055FA002803D100F0C7
:1018F00003FA002052E0F52000F071FA00F04AFAF5
:101900001420FFF7C7FE00F0F7F900F0CCF98120B2
:1019100000F065FA00F03EFA0028F6D0002407E057
:1019200000F085FA00A9E4B2605400F0FFF9641CED
:10193000E4B2042CF4DB00F013FA00F0DDF99DF8BA
:1019400000009DF8011008189DF8021008180128E1
:1019500023DB9DF802300222002100A8FFF703FFDD
:1019600000281AD09DF800009DF8011011EB00200E
:101970004FF6F071084000F085FA00F09BFA002263
:10198000A64BFFF7EFFA0022A54BFFF70DFE00F084
:10199000B9FAA4490860012000E0002016BD70B526
:1019A00004000D00082600F07EF9002801D1002077
:1019B00077E0802000F013FA00F0ECF9002803D162
:1019C00000F09AF900206CE0FA2000F008FA00F02C
:1019D000E1F90F2000F003FA00F0DCF900F063F900
:1019E000002801D100205CE0812000F0F8F900F02F
:1019F000D1F9002807D100F07FF9002051E000F074
:101A000095F9641C761EF6B2002E08D000F00FFA8D
:101A10002070F6B2012EF2D100F0A2F9F1E700F049
:101A20006BF9062600F03FF9002801D1002038E0CC
:101A3000802000F0D4F900F0ADF9002803D100F0C7
:101A40005BF900202DE0FC2000F0C9F900F0A2F9BC
:101A5000C92000F0C4F900F09DF900F024F9002835
:101A600001D100201DE0812000F0B9F900F092F9C9
:101A7000002807D100F040F9002012E000F056F9EC
:101A80006D1C761EF6B2002E08D000F0D0F928703A
:101A9000F6B2012EF2D100F063F9F1E700F02CF973
:101AA000012070BD80B560496048FFF778FF5F484E
:101AB00000785E49497808185C49C97808185B497C
:101AC000097908185949497908185849897908182D
:101AD0005649C9790818012864DB54484378012223
:101AE00000215248FFF73FFE002857D04F48C378E7
:101AF000012202214D48FFF736FE00284ED04B4808
:101B00004379012204214948FFF72DFE002845D0E2
:101B10004648C379012206214448FFF724FE0028E5
:101B20003CD041488378022200213F48FFF71BFE4A
:101B3000002833D03C484379022203213A48FFF77A
:101B400012FE00282AD03A4800F024FA3648C0781D
:101B500035490979090411EB00603449097810EB23
:101B60000120324989780818324908602F480079E5
:101B70002E498979090411EB00602B49097810EB93
:101B800001202949497808182B4908602A48026829
:101B900028480168294800F0FDF90AE0284800F0CB
:101BA000F9F906E020492148FFF7F9FE254800F041
:101BB000F1F93A20FFF708FE002803D0224800F090
:101BC000E9F902E0214800F0E5F901BD80B5FFF731
:101BD0000BFE002808D01048006800F06BF90200E6
:101BE0000B001B4800F0D6F9FFF76EFE002808D066
:101BF0000C48006800F05EF902000B00154800F088
:101C0000C9F901BD00000000D7A3703D0AF7653F88
:101C1000CDCCCCCCCC6C47C04001002000405F3F15
:101C2000000018C0440100203801002030010020CD
:101C300010280008480100204C010020E827000877
:101C4000FC27000820280008502800085C2800080D
:101C5000682800083028000880B50121082000F01D
:101C60000BFA4020ADF8000003208DF8020014208C
:101C70008DF8030000A9824800F01AFA8020ADF820
:101C8000000003208DF8020014208DF8030000A945
:101C90007B4800F00DFA01BD322000E0401EC0B2CA
:101CA0000028FBD1704780B58021754800F06BFAA1
:101CB0004021734800F067FAFFF7EEFF802170487B
:101CC00000F056FA002801D1002014E080216C4871
:101CD00000F05CFAFFF7E0FF8021694800F048FA65
:101CE000002801D0002006E08021654800F04EFA6F
:101CF000FFF7D2FF012002BD80B54021604800F00F
:101D000045FAFFF7C9FF80215D4800F03FFAFFF771
:101D1000C3FF40215A4800F036FAFFF7BDFF80218B
:101D2000574800F030FAFFF7B7FF01BD80B54021FA
:101D3000534800F02BFAFFF7AFFF8021504800F026
:101D400025FAFFF7A9FF40214D4800F01CFAFFF7E4
:101D5000A3FF40214A4800F019FAFFF79DFF01BD9B
:101D600080B54021464800F011FAFFF795FF802129
:101D7000434800F008FAFFF78FFF4021404800F089
:101D800002FAFFF789FF40213D4800F0FFF9FFF715
:101D900083FF01BD80B54021394800F0F7F9FFF716
:101DA0007BFF8021364800F0EEF9FFF775FF4021F8
:101DB000334800F0E8F9FFF76FFF8021304800F06A
:101DC000D7F9002805D040212D4800F0DFF9002088
:101DD00004E040212A4800F0D9F9012002BD38B5BD
:101DE000040008250CE08021254800F0CFF96400AC
:101DF000FFF752FF4021224800F0C5F9FFF74CFFE2
:101E00002800451EC0B200280CD040211C4800F01C
:101E1000BDF9FFF741FF2006E5D58021184800F005
:101E2000B2F9E4E74021164800F0B0F931BD38B509
:101E3000082400258021124800F0A5F914E06D0067
:101E400040210F4800F0A2F9FFF726FF40210C487F
:101E500000F099F9FFF720FF8021094800F088F988
:101E6000002801D055F001052000441EC0B2002812
:101E7000E5D14021024800F089F92800C0B232BD06
:101E8000000C0140002840F10780F446404200F079
:101E900003F850F0004060470AD0B0FA80F1884063
:101EA000D1F19D01C905020672F1004241EB1020FB
:101EB000704700005FF0FF0C1CEAD05114BF614571
:101EC00006E0C110400721F0E04101F16051704788
:101ED00079B900F0004100020AD0B0FA80FC00FAA3
:101EE0000CF001F16051A1EB0C5101EBD021400548
:101EF000704741020CBF40F4E0016FF00001002088
:101F0000704700004FEAF17CBCF1E04C2CBFBCF5FF
:101F1000001F11E05FEA4C0C34BFBCF17F5F2EE084
:101F20005FEA9C0C4FEA0C1C4FEA3C0CC10071F1BB
:101F300000414CEB50707047C90241EA5051C00259
:101F400018BF41F0010141F000414FEA6C50C0F16F
:101F50000900212810D240EACC7CCCF1200C11FAE7
:101F60000CF070F10040CCF1200C21FA0CF00CF0D8
:101F7000004C40EB0C0070474FEACC7070474900B2
:101F800011F5001F04D84FEACC10FF30C005704790
:101F9000C81770470EB400B582B003A9009102467D
:101FA00000AB0121034878440A30FEF79FF806BCD5
:101FB0005DF810FB11080000002100210022002123
:101FC0003549096811F00C01002904D0042905D015
:101FD000082906D021E03149016020E02F49016045
:101FE0001DE02D49096811F470112B4A126812F492
:101FF0008032890C891C002A03D1294A514301608F
:102000000AE0254A1268920303D5254A514301602C
:1020100002E0224A5143016001E0204901601E496B
:10202000096811F0F00109091E4A895C0268130071
:10203000CB4043601849096811F4E061090A194A64
:10204000895C42681300CB4083601349096811F42E
:102050006051C90A134A895C42681300CB40C360CF
:102060000D49096811F44041890B0F4A895CC26827
:10207000B2FBF1F101617047C9B2002905D00B49EB
:10208000096808430949086005E00849096831EA18
:1020900000000649086070470410024000127A00F0
:1020A00000093D00C8000020D800002018100240A0
:1020B00070B4002200250023002600240025CA78E1
:1020C00012F00F02CB78DB0601D58B781A430B7820
:1020D0001B0621D00468002306E0CD78482D02D1EC
:1020E00001259D4005615B1C082B14D2012515FAC2
:1020F00003F60D883540B542F5D19E000F25B54059
:10210000AC4312FA06F52C43CD78282DE5D10125F4
:102110009D404561E7E704600B88FF2B26DD44689E
:10212000002320E0012513F1080615FA06F60D88B4
:102130003540B54216D19E000F25B540AC4312FA8A
:1021400006F52C43CD78282D04D1012513F108067E
:10215000B5404561CD78482D04D1012513F108061D
:10216000B54005615B1C082BDCD3446070BC704734
:102170000022806889B2084201D0012200E00022DA
:102180001000C0B2704789B20161704789B24161E5
:102190007047000070B586B004000D0000200020DC
:1021A000002100210026A88900282600208A4CF65C
:1021B000FF710840E98808432082A0894EF6F31198
:1021C0000840A9882A8911436A8911430843A081DC
:1021D000A08A4FF6FF410840A9890843A08200A8C1
:1021E000FFF7EAFE1A48864201D1039800E0029800
:1021F000A189090406D51921484329684900B0FB83
:10220000F1F105E01921484329688900B0FBF1F19B
:102210006420B1FBF0F000010209642303FB1211FA
:10222000A289120408D5C90032316422B1FBF2F14F
:1022300011F00701084307E0090132316422B1FBC4
:10224000F2F111F00F010843208106B070BD0000CB
:1022500000380140C9B2002904D0818951F40051ED
:10226000818104E081894DF6FF72114081817047C0
:1022700030B4002300240024002589B240F66A13FC
:10228000994205000800C0B24309DBB289B211F0DF
:102290001F04012010FA04F4012B01D10C3504E0D5
:1022A000022B01D1103500E01435D2B2002A03D040
:1022B00028682043286002E02868A043286030BCDA
:1022C0007047C905C90D81807047002289B2B1F5F8
:1022D000007F0088084201D0012200E000221000A7
:1022E000C0B2704789B28A0589B2C943018070477C
:1022F00080B54F48006850F001004D4908604D48D6
:1023000000684D4908404B490860494800684B49FE
:102310000840474908604648006830F48020444936
:1023200008604448006830F4FE00424908605FF4E9
:102330001F004349086000F005F85FF00060414964
:10234000086001BD80B500F001F801BD82B0002039
:102350000190002000903648006850F480303449E5
:1023600008603348006810F4003000900198401C69
:1023700001900098002803D10198B0F5A06FF0D12A
:102380002B480068800302D50120009001E0002066
:1023900000900098012847D12B48006850F01000A9
:1023A000294908602848006880088000264908609C
:1023B0002548006850F00200234908601D48006865
:1023C0001C4908601B4800681A49086019480068E1
:1023D00050F48060174908601648006830F47C109B
:1023E000144908601348006850F4E8101149086067
:1023F0000F48006850F080700D4908600C48006874
:102400008001FBD50B4800688008800009490860FE
:102410000848006850F00200064908600548006856
:1024200010F00C000828F9D102B07047000000003D
:1024300000100240041002400000FFF8FFFFF6FE0B
:102440000810024008ED00E00020024000B585B011
:10245000012144F20400FFF70FFE4FF40070ADF8C5
:10246000000018208DF8030003208DF8020000A959
:102470002648FFF71DFE4FF48060ADF800000420F1
:102480008DF8030003208DF8020000A91F48FFF714
:102490000FFE4FF4165001900020ADF80800002008
:1024A000ADF80A000020ADF80C000020ADF81000D7
:1024B0000C20ADF80E0001A91548FFF76BFE402176
:1024C0001348FFF70FFF012240F225511048FFF794
:1024D000CFFE012240F227710D48FFF7C9FE01210E
:1024E0000B48FFF7B7FE05B000BD10B50400210092
:1024F000C9B289B20648FFF7E4FE40210448FFF75D
:10250000E4FE0028F9D0200010BD000000080140C2
:102510000038014040B2002808D509011A4A40B2EB
:1025200010F00F00801800F8041C03E00901174A9E
:1025300040B28154704780B5411EB1F1807F01D314
:1025400001200EE0401E124908600F215FF0FF30AD
:10255000FFF7E0FF00200F49086007200E490860E0
:10256000002002BD80B50D4800680D49B0FBF1F0B8
:10257000FFF7E1FF0028F6D101BD0A4908800948AC
:1025800000880028FBD1704718ED00E000E400E06F
:1025900014E000E018E000E010E000E0DC000020C3
:1025A00040420F005001002010B5040003E04FF43A
:1025B0007A70FFF7E2FF2000441E80B20028F6D1B7
:1025C00010BD000080B501211820FFF755FD4FF424
:1025D0000050ADF8000010208DF8030003208DF8A6
:1025E000020000A91C48FFF763FD0120ADF80000C0
:1025F00010208DF8030003208DF8020000A9174871
:10260000FFF756FD0220ADF8000010208DF8030002
:1026100003208DF8020000A91048FFF749FD01BD15
:10262000C0B2012806D10E48006890F400500C4951
:1026300008600FE0C0B2022806D10A48006890F096
:1026400001000849086005E00648006890F00200B3
:10265000044908607047000000100140000C014070
:102660000C1001400C0C014019E050F8041BCB0782
:1026700044BFA9F101035918121F0023042A41F88D
:10268000043BF9D25FEA827C0B4604D54FF0000C84
:10269000A1F800C09B1CD10744BF0021197050F85D
:1026A000042B002AE1D1704780B5FFF75BFFFFF7ED
:1026B000CDFEFFF787FFFFF7CFFAFFF7F3F9012011
:1026C000FFF7AEFF0220FFF7ABFF0320FFF7A8FFE5
:1026D0004FF47A70FFF768FFFFF778FAEFE710B46E
:1026E00050F8041B79B10268436812180830DC07FF
:1026F00044BFA9F10104E31852F8044B43F8044B1A
:10270000091FF9D1ECE710BC704700007047FEE7E5
:10271000FEE7FEE7FEE77047704770470448008811
:10272000002804D002480088401E014908807047F4
:102730005001002010B5074979441831064C7C44FB
:10274000163404E00A68081D511888470146A14262
:10275000F8D110BD08000000280000000DFFFFFFA9
:1027600074000000E00000200000000073FFFFFF85
:10277000E0000000DC01000000000020000000007C
:1027800000F00BF8002801D0FFF7D4FF0020C0466E
:10279000C046FFF789FF00F002F80120704700F003
:1027A00001B800000746384600F002F8FBE70000D9
:1027B00080B5C046C046024A11001820ABBEFBE7F8
:1027C0002600020038B504460D46284600F006F8FB
:1027D000A84218BF0024204632BD00000149FFF77F
:1027E00084BE00BF88000020534854325820534E06
:1027F0003A3078257825780D0A0000005348543285
:102800005820435243206572726F720D0A00000017
:10281000534854325820435243206F6B0D0A000036
:102820005348543258CDA8D0C5B4EDCEF30D0A00AC
:10283000CAAAB6C8A3BA256625250D0A000000005D
:102840000148804701480047F12200087528000828
:10285000C9E8D6C3B3C9B9A60D0A0000C9E8D6C3F2
:10286000B4EDCEF30D0A0000CEC2B6C8A3BA2566F9
:102870000D0A0000C046C046C046C046FFF780FFB4
:10288000FFF744BFFFF743BFFFF742BFFFF741BF6A
:10289000FFF740BFFFF73FBFFFF73EBFFFF73DBF6A
:1028A000FFF73CBFFFF7FEBFFFF7FEBFFFF7FEBF1E
:1028B000FFF7FEBFFFF7FEBFFFF7FEBFFFF7FEBF4C
:1028C000FFF7FEBFFFF7FEBFFFF7FEBFFFF7FEBF3C
:1028D000FFF7FEBFFFF7FEBFFFF7FEBFFFF7FEBF2C
:1028E000FFF7FEBFFFF7FEBFFFF7FEBFFFF7FEBF1C
:1028F000FFF7FEBFFFF7FEBFFFF7FEBFFFF7FEBF0C
:10290000FFF7FEBFFFF7FEBFFFF7FEBFFFF7FEBFFB
:10291000FFF7FEBFFFF7FEBFFFF7FEBFFFF7FEBFEB
:10292000FFF7FEBFFFF7FEBFFFF7FEBFFFF7FEBFDB
:10293000FFF7FEBFFFF7FEBFFFF7FEBFFFF7FEBFCB
:10294000FFF7FEBFFFF7FEBFFFF7FEBFFFF7FEBFBB
:102950000000000000000000000000000000000077
:10296000000000000000000000000000FFFFFFFF6B
:10297000FFFFFFFF0000000000000000000000005B
:102980000000000000000000000000000000000047
:102990000000000000000000FFFFFFFFFFFF00003D
:1029A0000000000000000000000000000000000027
:1029B0000000000000000000000000000000000017
:1029C0000000000000000000000000000000000007
:1029D000000000000000000002040101E0000020EF
:1029E00030010020E0000020E0000020E000002096
:1029F000C5000020AC000020000000000000000026
:102A000000000000000000000000000000000000C6
:102A100000000000000000000000000001020304AC
:102A200001020304060708090204060800A24A047A
:040000050800287552
:00000001FF
