:020000040800F2
:1000000038040020010100085D0100085F010008BC
:1000100063010008670100086B0100080000000090
:100020000000000000000000000000006F01000858
:10003000710100080000000073010008750100084C
:100040001B0100081B0100081B0100081B01000820
:100050001B0100081B0100081B0100081B01000810
:100060001B0100081B0100081B0100081B01000800
:100070001B0100081B0100081B0100081B010008F0
:100080001B0100081B0100081B0100081B010008E0
:100090001B0100081B0100081B0100081B010008D0
:1000A0001B0100081B0100081B0100081B010008C0
:1000B0001B0100081B0100081B0100081B010008B0
:1000C0001B0100081B0100081B0100081B010008A0
:1000D0001B0100081B0100081B0100081B01000890
:1000E0001B0100081B0100081B010008DFF80CD0F1
:1000F00001F0BEFA0048004725010008380400203E
:100100000648804706480047FEE7FEE7FEE7FEE7B1
:10011000FEE7FEE7FEE7FEE7FEE7FEE76D0D0008FF
:10012000ED00000800F0F2FE00F03CFF00F09EFE43
:1001300000F098FF01F017F90EE0012000F0C4FE76
:10014000022000F0C1FE032000F0BEFE4FF47A70E2
:1001500000F011FF01F022FAEFE70000704700BF46
:10016000FEE700BFFEE700BFFEE700BFFEE7704707
:10017000704770470448008820B103480088401E3B
:1001800001490880704700000000002010B50446B7
:10019000CA48844208D10121042000F027FB002135
:1001A000042000F023FB46E0C548844208D1012129
:1001B000082000F01BFB0021082000F017FB3AE0AC
:1001C000C048844208D10121102000F00FFB00211B
:1001D000102000F00BFB2EE0BB48844208D1012127
:1001E000202000F003FB0021202000F0FFFA22E095
:1001F000B648844208D10121402000F0F7FA0021DE
:10020000402000F0F3FA16E0B148844208D1012101
:10021000802000F0EBFA0021802000F0E7FA0AE0ED
:10022000AC48844207D10121801500F0DFFA00219B
:10023000A01500F0DBFA10BD10B50121084600F052
:10024000D5FA0021012000F0D1FA10BD2DE9F041CE
:10025000024600250026002000230024002791F8F4
:1002600003C00CF00F0591F803C01CF0100F03D071
:1002700091F802C04CEA050591F800C0BCF1000FEE
:1002800031D0146800202BE04FF0010C0CFA00F381
:10029000B1F800C00CEA03069E4220D183004FF063
:1002A0000F0C0CFA03F7BC4305FA03FC4CEA0404F8
:1002B00091F803C0BCF1280F06D14FF0010C0CFAE5
:1002C00000FCC2F814C00AE091F803C0BCF1480F6A
:1002D00005D14FF0010C0CFA00FCC2F810C0401C14
:1002E0000828D1D31460B1F800C0BCF1FF0F34DD91
:1002F000546800202EE000F1080C4FF0010808FAC5
:100300000CF3B1F800C00CEA03069E4221D1830031
:100310004FF00F0C0CFA03F7BC4305FA03FC4CEA50
:10032000040491F803C0BCF1280F05D100F1080CBA
:1003300008FA0CF8C2F8148091F803C0BCF1480F19
:1003400007D100F1080C4FF0010808FA0CF8C2F8C8
:100350001080401C0828CED35460BDE8F0814FF6D1
:10036000FF710180022181700421C1707047024633
:10037000002093680B4201D0012000E0002070476C
:100380000146886880B2704702460020D3680B425D
:1003900001D0012000E0002070470146C86880B20B
:1003A000704701617047416170470AB1016100E027
:1003B00041617047C16070474FF480320A438261E7
:1003C0008161826182698269704702460020424BE6
:1003D00018684FF68073184040EA021008433E4BFD
:1003E000186070473D49C8617047F0B50A46002360
:1003F00000240021002500F00046B6F1004F02D194
:10040000354EF16901E0344E7168C0F3034583B2A3
:1004100000F44016B6F5401F08D121F070612E4E51
:10042000766826F070662C4F7E6012E000F480162D
:10043000B6F5801F06D1032606FA05F4A14341F064
:10044000706106E0460D360103FA06F6B14341F04D
:10045000706122B1460D360103FA06F6314300F011
:100460000046B6F1004F02D11B4EF16101E01A4E79
:100470007160F0BD30B500228B071C0F0F2303FA0B
:1004800004F2154B08338C1053F824309343124C6C
:1004900008348D1044F8253023468C1053F824304E
:1004A0008C07240F00FA04F423430B4C08348D10FE
:1004B00044F8253030BD0A49086070470008014003
:1004C000000C0140001001400014014000180140E0
:1004D000001C0140002001400000014000002042BB
:1004E000DC002042DD48006840F00100DB49086084
:1004F00008464068DA490840D8494860084600681C
:10050000D8490840D54908600846006820F4802092
:1005100008600846406820F4FE0048604FF41F0061
:1005200088607047CD49096821F48031CB4A116059
:100530001146096821F480211160B0F5803F03D095
:10054000B0F5802F0ED106E0C449096841F480312E
:10055000C24A116007E0C149096841F4A021BF4ABD
:10056000116000E000BF00BF704710B501460022D7
:10057000002300204A11012A02D1B84C236806E06A
:10058000022A02D1B54C236A01E0B44C636A01F03F
:100590001F02012494401C4201D0012000E00020F1
:1005A00010BD38B5002000900024002500BF312088
:1005B000FFF7DBFF05460098401C00900098B0F55F
:1005C000A06F01D0002DF2D03120FFF7CEFF08B18F
:1005D000012400E00024204638BD014600209F4A47
:1005E000106820F0F80040EAC100106070479E4992
:1005F0000860704702460020984B586820F47C1031
:1006000042EA01031843954B5860704796490866C3
:10061000704701460020914A506820F003000843CB
:10062000506070478D48406800F00C0070470146EC
:1006300000208A4A506820F0F0000843506070475C
:1006400001460020854A506820F4E060084350606D
:10065000704701460020814A506820F4605040EA0B
:10066000C1005060704729B17C4A527A02437B4BEB
:100670005A7204E0794A527A8243784B5A72704730
:100680007A490860704701460020744A506820F497
:1006900040400843506070470021754A11706F4A0E
:1006A00082F82010012802D0042808D103E001219B
:1006B0006F4A117004E005216D4A117000E000BF1F
:1006C00000BF70476B49086070476449096A01437D
:1006D000624A11627047674944390860704730B513
:1006E00000210022002400235C4D6D6805F00C0100
:1006F00021B1042905D0082923D105E05E4D05600C
:1007000022E05D4D05601FE0544D6D6805F47012E8
:10071000524D6D6805F48034022505EB92421CB9F8
:10072000564D554305600BE04C4D6D6815F4003F88
:1007300003D0524D5543056002E04F4D55430560CF
:1007400002E04D4D056000BF00BF444D6D6805F0EF
:10075000F00109094A4D6B5C0568DD4045603F4D7D
:100760006D6805F4E061090A454D6B5C4568DD4044
:1007700085603A4D6D6805F46051C90A404D6B5C67
:100780004568DD40C560354D6D6805F44041890B15
:100790003C4D6B5CC568B5FBF3F5056130BD29B117
:1007A0002E4A526902432D4B5A6104E02B4A52698A
:1007B00082432A4B5A61704729B1284A9269024301
:1007C000264B9A6104E0254A92698243234B9A6141
:1007D000704729B1214AD2690243204BDA6104E013
:1007E0001E4AD26982431D4BDA61704729B11B4A08
:1007F000D2680243194BDA6004E0184AD268824397
:10080000164BDA60704729B1144A12690243134B40
:100810001A6104E0114A12698243104B1A61704751
:1008200014494039086070470F49C86470470B4944
:10083000C87170470948406A40F0807007494862B3
:10084000704701460020054A92680A4201D0012003
:1008500000E0002070470149887270470010024094
:100860000000FFF8FFFFF6FE00004242D8004242BF
:10087000201002408004424200127A0000093D002C
:10088000020000201200002010B50446FB488442FC
:1008900009D101218803FFF7A9FF00214FF480400F
:1008A000FFF7A4FF32E0F648844209D10121480451
:1008B000FFF7A9FF00214FF40030FFF7A4FF25E068
:1008C000F048844209D101218804FFF79CFF0021F0
:1008D0004FF48020FFF797FF18E0EB48844209D1DE
:1008E0000121C804FFF78FFF00214FF40020FFF71C
:1008F0008AFF0BE0E548844208D101210805FFF793
:1009000082FF00214FF48010FFF77DFF10BD2DE91D
:10091000F04786B005460E460024A24600BFA14619
:100920000027B08900B100BF2F462C8A4CF6FF701B
:100930000440F08804432C82AC894EF6F310044046
:10094000B08831890843718908430443AC81AC8A7B
:100950004FF6FF400440B0890443AC8201A8FFF782
:10096000BEFEC648874202D1DDF810A001E0DDF8E6
:100970000CA0A88910F4004F08D00AEBCA0000EBC5
:100980000A1031684900B0FBF1F807E00AEBCA0031
:1009900000EB0A1031688900B0FBF1F86420B8FB65
:1009A000F0F004012009642101FB1089A88910F4EA
:1009B000004F08D0322000EBC900B0FBF1F000F08E
:1009C0000700044308E0322000EB09106421B0FB6B
:1009D000F1F000F00F0004432C8106B0BDE8F08771
:1009E0004FF41651016000218180C18001810C21EA
:1009F000418100218181704710B502460020108A94
:100A00004FF2FF0318400B884C8823438C88234304
:100A1000CC8823431843108210BD002101804180FF
:100A20008180C180704721B1828942F40052828165
:100A300004E082894DF6FF731A4082817047F0B559
:100A400003460024002600250020A1F510676A3F18
:100A500000D100BF1846C1F3421401F01F06012760
:100A600007FA06F5012C01D10C3004E0022C01D16B
:100A7000103000E014301AB107682F43076002E01D
:100A80000768AF430760F0BD1AB1838A0B438382C6
:100A900002E0838A8B4383827047028A4FF6F073A9
:100AA0001A400282028A0A430282704782894FF208
:100AB000FF731A40828182890A438281704721B183
:100AC000828942F00202828104E082894FF6FD733E
:100AD0001A4082817047028A4FF6DF731A40028201
:100AE000028A0A430282704721B1028A42F480429C
:100AF000028204E0028A4BF6FF731A4002827047BA
:100B0000C1F308028280704701468888C0F308005C
:100B10007047818941F0010181817047028BD2B217
:100B20000283028B42EA012202837047028B02F4A5
:100B30007F420283028B0A430283704721B1828A7B
:100B400042F02002828204E0828A4FF6DF731A406C
:100B50008282704721B1828A42F01002828204E0D0
:100B6000828A4FF6EF731A408282704721B1828ADF
:100B700042F00802828204E0828A4FF6F7731A403C
:100B80008282704721B1828942F40042828103E06F
:100B90008289C2F30E028281704721B1828A42F4B7
:100BA0000062828204E0828A4FF2FF731A408282DE
:100BB0007047828A4FF6FB731A408282828A0A4308
:100BC0008282704721B1828A42F00202828204E06E
:100BD000828A4FF6FD731A408282704702460020D7
:100BE000B1F5007F00D100BF13880B4201D0012076
:100BF00000E00020704701F40072B2F5007F00D1E0
:100C000000BFCA430280704770B50246002400232B
:100C100000250020A1F510666A3E00D100BFC1F397
:100C2000421501F01F03012606FA03F3012D02D13C
:100C30009689334006E0022D02D1168A334001E046
:100C4000968A33400C12012606FA04F416883440C2
:100C500013B10CB1012000E0002070BD10B50022DE
:100C60000023A1F510646A3C00D100BF0A120124E0
:100C70009440A3B2DC43048010BD00000038014062
:100C80000044004000480040004C0040005000403C
:100C90000CB50020019000906B48006840F4803053
:100CA0006949086000BF6848006800F4003000909F
:100CB0000198401C0190009818B90198B0F5A06FF8
:100CC000F1D16148006810F4003F02D0012000908B
:100CD00001E0002000900098012842D15B480068A4
:100CE00040F01000594908600846006820F00300F1
:100CF00008600846006840F00200086052484068FA
:100D0000514948600846406848600846406840F4D9
:100D1000806048600846406820F47C1048600846BF
:100D2000406840F4E81048600846006840F0807071
:100D3000086000BF4448006810F0007FFAD04248C5
:100D4000406820F00300404948600846406840F091
:100D50000200486000BF3C48406800F00C000828D2
:100D6000F9D10CBD10B5FFF793FF10BD10B5364893
:100D7000006840F001003449086008464068344982
:100D800008403149486008460068324908402E4909
:100D900008600846006820F4802008600846406823
:100DA00020F4FE0048604FF41F008860FFF7DAFF70
:100DB0004FF000602849086010BD10B500210020E8
:100DC0000022214B5B6803F00C0121B1042906D0FD
:100DD000082928D107E0214B214C236027E01F4B35
:100DE0001F4C236023E0184B5B6803F47010164B14
:100DF0005B6803F48032022303EB904022B9194B65
:100E00004343174C23600DE00F4B5B6813F4003F26
:100E100004D0144B4343124C236003E00F4B434375
:100E20000F4C236003E00D4B0D4C236000BF00BF4F
:100E3000054B5B68C3F303130B4CE15C084B1B6869
:100E4000CB40074C236010BD001002400020024040
:100E50000000FFF8FFFFF6FE08ED00E000127A0048
:100E60001800002000093D001C00002008B50121E9
:100E70001820FFF7A1FC4FF40050ADF8000010203F
:100E80008DF8030003208DF8020069461D48FFF726
:100E9000DDF90120ADF8000010208DF803000320DB
:100EA0008DF8020069461848FFF7D0F90220ADF826
:100EB000000010208DF8030003208DF80200694621
:100EC0001148FFF7C3F908BD012806D10D49C968CB
:100ED00081F400510B4AD16012E0022808D10A497E
:100EE0000C31096881F00101074A0C32116007E0FA
:100EF00005490C31096881F00201034A0C32116086
:100F00007047000000100140000C014030B500BFE8
:100F10001F4800681F4AB0FBF2F1B1F1807F01D396
:100F200001201DE021F07F40401E4FF0E022506183
:100F300050170F22002807DA13071D0E164B00F07A
:100F40000F04241F1D5503E013071C0E134B1C54E4
:100F500000BF00204FF0E0229061072010610020C8
:100F60000028D5D130BD0E49088000BF0C49098842
:100F70000029FBD1704700B5024603E04FF47A70B8
:100F8000FFF7F1FF1000A2F101018AB2F6D100BD16
:100F90001800002040420F0018ED00E000E400E0DF
:100FA0000000002000B585B0012144F20400FFF7E5
:100FB00003FC4FF40070ADF8100018208DF81300FA
:100FC00003208DF8120004A92448FFF73FF94FF4DD
:100FD0008060ADF8100004208DF8130003208DF818
:100FE000120004A91D48FFF731F94FF41650009084
:100FF0000020ADF80400ADF80600ADF80800ADF82B
:101000000C000C20ADF80A0069461548FFF77FFC7C
:1010100040211348FFF7EFFD012240F2255110480F
:10102000FFF70DFD012240F227710D48FFF707FD84
:1010300001210B48FFF7F7FC05B000BD70B5044671
:101040000D46E1B20648FFF75BFD00BF40210448B2
:10105000FFF7C4FD0028F9D0204670BD000801400C
:101060000038014008B501210820FFF7A5FB40200A
:10107000ADF8000003208DF8020014208DF8030065
:1010800069468148FFF7E2F88020ADF800000320B0
:101090008DF8020014208DF8030069467A48FFF7A6
:1010A000D5F808BD322001E0411EC8B20028FBD1AE
:1010B000704710B580217448FFF773F940217248DA
:1010C000FFF76FF9FFF7EEFF80216F48FFF74FF949
:1010D00008B9002010BD80216B48FFF764F9FFF7C5
:1010E000E1FF80216848FFF742F908B10020F1E7ED
:1010F00080216548FFF757F9FFF7D4FF0120E9E7A2
:1011000010B540216048FFF74EF9FFF7CBFF802173
:101110005D48FFF748F9FFF7C5FF40215A48FFF740
:1011200040F9FFF7BFFF80215748FFF73AF9FFF773
:10113000B9FF10BD10B540215348FFF734F9FFF750
:10114000B1FF80215048FFF72EF9FFF7ABFF402198
:101150004D48FFF726F9FFF7A5FF40214A48FFF762
:1011600022F9FFF79FFF10BD10B540214648FFF759
:101170001AF9FFF797FF80214348FFF712F9FFF7AD
:1011800091FF40214048FFF70CF9FFF78BFF40210A
:101190003D48FFF708F9FFF785FF10BD10B5402166
:1011A0003948FFF700F9FFF77DFF80213648FFF748
:1011B000F8F8FFF777FF40213348FFF7F2F8FFF721
:1011C00071FF80213048FFF7D2F828B140212E4826
:1011D000FFF7E9F8002010BD40212B48FFF7E3F8A6
:1011E0000120F8E770B5044608251BE04021264899
:1011F000FFF7D9F8FFF756FF14F0800F04D08021D5
:101200002148FFF7CEF803E080211F48FFF7CBF815
:101210006006040EFFF746FF40211B48FFF7C1F8A8
:10122000FFF740FF2800A5F10101CDB2DED140213A
:101230001548FFF7B8F870BD70B508250024802167
:101240001148FFF7AEF814E06006040E40210E4886
:10125000FFF7A9F8FFF726FF40210B48FFF7A1F899
:10126000FFF720FF80210848FFF781F808B144F01C
:1012700001042800A5F10101CDB2E5D140210248C9
:10128000FFF791F8204670BD000C0140002107E0F7
:10129000002201E0531C9AB20B2AFBDB4B1C99B2D3
:1012A0008142F5DB704770B50446002505E042F643
:1012B000F820FFF7EBFF681C85B2A542F7DB70BD95
:1012C00070B505460C46FFF7F4FE08B9002070BD66
:1012D000EE20FFF787FFFFF761FF18B9FFF710FF58
:1012E0000020F4E72846FFF77DFFFFF757FF204671
:1012F000FFF778FFFFF752FFFFF702FF0120E6E755
:1013000070B506460C461546FFF7D3FE08B9002017
:1013100070BDEE20FFF766FFFFF740FF18B9FFF73B
:10132000EFFE0020F4E73046FFF75CFFFFF736FFE3
:10133000FFF7BFFEEF20FFF755FFFFF72FFF0CE091
:10134000FFF77AFF2870012C02D1FFF70DFF01E0B3
:10135000FFF7F0FE6D1C601E84B2002CF0D1FFF789
:10136000CFFE0120D4E708B5002000906A46012195
:10137000D020FFF7C5FF9DF80000552803D18CA0B1
:1013800000F0A8F902E08DA000F0A4F908BD2DE955
:10139000F04F99B0002018901790169000BF1821B8
:1013A00010A800F028F900BF00BF00BF00BF00BFB9
:1013B00000BF00BF00BF00BF00BF00BF00200690FD
:1013C00000BF00BF039000BF00BF00BF00BF00BF51
:1013D00000BF00BF002700BF00BF10AA1621AA202F
:1013E000FFF78EFF9DF841009DF8401000EB0120B3
:1013F0000FFA80FB9DF843009DF8421000EB01209E
:1014000000B20F909DF845009DF8441000EB0120BC
:1014100000B20E909DF847009DF8461000EB0120A9
:1014200080B209909DF849009DF8481000EB01201A
:1014300080B208909DF84B009DF84A1000EB012007
:1014400080B207909DF84D009DF84C1000EB0120F4
:1014500000B20D909DF84F009DF84E1000EB01205A
:1014600000B20C9000BF9DF853009DF8521000EBA5
:10147000012000B20B909DF855009DF8541000EB30
:10148000012000B20A902E21F420FFF719FF0A2054
:10149000FFF709FF06AA0221F620FFF731FF9DF8AA
:1014A00019009DF8181040EA012005903421F4201D
:1014B000FFF706FF0520FFF7F6FE03AA0221F6203C
:1014C000FFF71EFF9DF80C0000049DF80D1000EBC7
:1014D00001209DF80C100844000A04900799059813
:1014E000401A08994843C4130B98C1020A98204433
:1014F00091FBF0F56019029000BF0298A0F57A66A2
:1015000006FB06F000130C994843C4120F98704371
:10151000C51204EB050909EB8B01881CC11700EB10
:101520009171891001910E987043441306FB06F0E7
:1015300000130D99484305146019801C4FEAA00957
:1015400009F50041099848434FEAD03A01990498B7
:10155000401A4CF2503100FB01F8B8F1004F04D2B0
:101560004FEA4800B0FBFAF702E0B8FBFAF0470098
:10157000381200FB00F440F6DE30604304141348D8
:1015800078430514601900F6CF6007EB201010496E
:1015900008600846006819B0BDE8F08F10B5FFF785
:1015A000F6FE0B4801680BA000F094F810BD000097
:1015B000424D503138306F6B0D0A0A00424D5031A8
:1015C00038306572726F720D0A0A000043E3FFFF44
:1015D0002C0000204169725F7072657373757265CB
:1015E0003D256C640D0A0000D2B201E000F8012B29
:1015F000491EFBD270470022F6E710B513460A4693
:1016000004461946FFF7F0FF204610BD2DE9F05FB4
:101610000546002092469B46884606468146402461
:101620001BE0284641464746224600F042F8534612
:101630005A46C01A914110D311461846224600F06E
:1016400029F82D1A67EB01084F4622460120002198
:1016500000F020F817EB00094E41201EA4F1010410
:10166000DFDC484631462A464346BDE8F09F00008D
:10167000064C074D06E0E06840F0010394E80700DF
:1016800098471034AC42F6D3FEF734FD3C190008FD
:101690005C190008202A04DB203A00FA02F100203D
:1016A00070479140C2F1200320FA03F319439040A0
:1016B0007047202A04DB203A21FA02F0002170470B
:1016C00021FA02F3D040C2F12002914008431946AA
:1016D000704700000FB4054B10B503A9044A0298E7
:1016E00000F018F810BC5DF814FB00003D10000875
:1016F0003000002002E008C8121F08C1002AFAD1F9
:1017000070477047002001E001C1121F002AFBD181
:10171000704700002DE9FF4F8BB09A460F460446F4
:10172000002601E1252851D10025641C824AA946E2
:1017300001212378203B01FA03F0104202D0054337
:10174000641CF6E720782E2817D114F8010F45F015
:1017500004052A280ED06FF02F022078A0F1300166
:1017600009290AD809EB890102EB410100EB0109C3
:10177000641CF2E757F8049B641C20786C280DD099
:1017800004DC4C2812D06A2811D104E074280DD052
:101790007A280CD10AE045F4001507E0617845F499
:1017A0008015814202D1641C05F58015641C2078E7
:1017B00069283FD006DC002871D063280CD064284B
:1017C00004D137E0732811D075285CD052460D99AA
:1017D000904706F10106A6E017F8040B8DF800000B
:1017E00000208DF80100E846012003E057F8048B43
:1017F0004FF0FF3069074FF0000501D40AE06D1C7F
:101800004D450DDA8542FADB18F805100029F6D1AE
:1018100006E06D1C8542FCDB18F805100029F8D1A4
:101820002E4404E018F8010B52460D9990476D1EA6
:10183000F8D278E000200A90C5F302504FF00A0B6E
:1018400002280AD001CFC11700290DDA0023D0EBFE
:10185000030063EB01012D2209E007F1070727F0E0
:101860000707F7E80201EFE72A0504D52B228DF8D8
:101870002420012203E0EA070FD02022F7E70DF130
:10188000200808921AE000200A90C5F302504FF099
:101890000A0B022804D001CF00210022EFE747E025
:1018A000FF1D27F00707F7E80201F6E75A460A9BF3
:1018B000FFF7ACFE02F1300208F8012D50EA0102F8
:1018C000F4D1ADEB080000F1200B680701D44FF014
:1018D0000109D94502DDA9EB0B0000E0002081469B
:1018E000002506E009A85246405D0D999047761CF8
:1018F0006D1C08988542F5DB04E0302052460D99B6
:101900009047761CB9F10001A9F10109F5DC05E069
:1019100018F8010B52460D999047761CBBF1000157
:10192000ABF1010BF4DC641C207800287FF4FAAEE4
:101930000FB03046BDE8F08F092801005C1900089F
:101940000000002034000000F41600089019000880
:101950003400002004040000041700080000000008
:10196000000001020304010203040607080902043F
:101970000608000000A24A04000000000000000069
:10198000010203040607080900000000000000002F
:04000005080000ED02
:00000001FF
