:020000040800F2
:1000000048060020010100086D0300086F03000886
:1000100073030008770300087B030008000000005A
:100020000000000000000000000000007F03000846
:100030008103000800000000830300088503000816
:100040001B0100081B0100081B0100081B01000820
:100050001B0100081B0100081B0100081B01000810
:100060001B0100081B0100081B0100081B01000800
:100070001B0100081B0100081B0100081B010008F0
:100080001B0100081B0100081B0100081B010008E0
:100090001B0100081B0100081B0100081B010008D0
:1000A0001B0100081B0100081B0100081B010008C0
:1000B0001B0100081B0100081B0100081B010008B0
:1000C0001B0100081B0100081B0100081B010008A0
:1000D0001B0100081B0100081B0100081B01000890
:1000E0001B0100081B0100081B010008DFF80CD0F1
:1000F00002F07CF80048004725010008480600206F
:100100000648804706480047FEE7FEE7FEE7FEE7B1
:10011000FEE7FEE7FEE7FEE7FEE7FEE789120008DE
:10012000ED0000081CB50026002401F0DDF901F007
:100130008BF901F029F91EE063A002F0F9F84FF401
:10014000FA7001F006FA64A002F0F2F84FF4FA70C7
:1001500001F0FFF93CB1E043C4B20122510362480F
:1001600000F02BFA07E0E043C4B200224FF4005144
:100170005D4800F022FA01F07BFB0028DCD101F0A1
:10018000BBFC0546294659A002F0D2F85D4801782B
:100190005DA002F0CDF85B480078042834D101F06E
:1001A000ABFC019001F0D8FD83464FF0894101F08E
:1001B00093FD82464FF0894101F08EFD814601F0AA
:1001C000D0FD07463A460B4653A002F0B1F801F0C5
:1001D00093FC009001F0C0FD4FF08941019001F0C7
:1001E0007BFD83464FF0894101F076FD82464FF05A
:1001F000894101F071FD814601F0B3FD07463A46A1
:100200000B464AA002F094F83E48007806282AD10E
:1002100001F072FC834601F09FFD82464FF0894158
:1002200001F05AFD814601F09CFD07463A460B4617
:1002300039A002F07DF801F05FFC019001F08CFD27
:1002400083464FF0894101F047FD82464FF08941D6
:1002500001F042FD814601F084FD07463A460B4617
:1002600032A002F065F82EE01E2E17D101220021E7
:10027000334801F0C3FB80B932A002F059F80025E1
:1002800005E02F48415D33A002F052F86D1CB5F532
:10029000007FF6D330A002F04BF80026701CC6B2E7
:1002A000C82001F056F93CB1E043C4B2002201215C
:1002B0002D4800F082F906E0E043C4B20122114665
:1002C000294800F07AF9CFE7534420436172642053
:1002D0004661696C65642100506C656173652043FB
:1002E0006865636B2100000000100140205344202A
:1002F000536563746F722053697A653A25780D0AE5
:10030000000000002C000020534420BFA8B0E6B13C
:10031000BEA3BA25640D0A00534420BFA8C8DDC19E
:10032000BF284D29A3BA25660D0A0000534420BFFB
:10033000A8C8DDC1BF284729A3BA25660D0A000059
:1003400034000020534543544F5220302044415440
:10035000413A0A00257820000A4441544120454E84
:100360004445440A00000000000C0140704700BFF3
:10037000FEE700BFFEE700BFFEE700BFFEE77047F5
:10038000704770470448008820B103480088401E29
:1003900001490880704700000000002010B50446A5
:1003A000CA48844208D10121042000F027FB002123
:1003B000042000F023FB46E0C548844208D1012117
:1003C000082000F01BFB0021082000F017FB3AE09A
:1003D000C048844208D10121102000F00FFB002109
:1003E000102000F00BFB2EE0BB48844208D1012115
:1003F000202000F003FB0021202000F0FFFA22E083
:10040000B648844208D10121402000F0F7FA0021CB
:10041000402000F0F3FA16E0B148844208D10121EF
:10042000802000F0EBFA0021802000F0E7FA0AE0DB
:10043000AC48844207D10121801500F0DFFA002189
:10044000A01500F0DBFA10BD10B50121084600F040
:10045000D5FA0021012000F0D1FA10BD2DE9F041BC
:10046000024600250026002000230024002791F8E2
:1004700003C00CF00F0591F803C01CF0100F03D05F
:1004800091F802C04CEA050591F800C0BCF1000FDC
:1004900031D0146800202BE04FF0010C0CFA00F36F
:1004A000B1F800C00CEA03069E4220D183004FF051
:1004B0000F0C0CFA03F7BC4305FA03FC4CEA0404E6
:1004C00091F803C0BCF1280F06D14FF0010C0CFAD3
:1004D00000FCC2F814C00AE091F803C0BCF1480F58
:1004E00005D14FF0010C0CFA00FCC2F810C0401C02
:1004F0000828D1D31460B1F800C0BCF1FF0F34DD7F
:10050000546800202EE000F1080C4FF0010808FAB2
:100510000CF3B1F800C00CEA03069E4221D183001F
:100520004FF00F0C0CFA03F7BC4305FA03FC4CEA3E
:10053000040491F803C0BCF1280F05D100F1080CA8
:1005400008FA0CF8C2F8148091F803C0BCF1480F07
:1005500007D100F1080C4FF0010808FA0CF8C2F8B6
:100560001080401C0828CED35460BDE8F0814FF6BF
:10057000FF710180022181700421C1707047024621
:10058000002093680B4201D0012000E0002070475A
:100590000146886880B2704702460020D3680B424B
:1005A00001D0012000E0002070470146C86880B2F9
:1005B000704701617047416170470AB1016100E015
:1005C00041617047C16070474FF480320A438261D5
:1005D0008161826182698269704702460020424BD4
:1005E00018684FF68073184040EA021008433E4BEB
:1005F000186070473D49C8617047F0B50A4600234E
:1006000000240021002500F00046B6F1004F02D181
:10061000354EF16901E0344E7168C0F3034583B291
:1006200000F44016B6F5401F08D121F070612E4E3F
:10063000766826F070662C4F7E6012E000F480161B
:10064000B6F5801F06D1032606FA05F4A14341F052
:10065000706106E0460D360103FA06F6B14341F03B
:10066000706122B1460D360103FA06F6314300F0FF
:100670000046B6F1004F02D11B4EF16101E01A4E67
:100680007160F0BD30B500228B071C0F0F2303FAF9
:1006900004F2154B08338C1053F824309343124C5A
:1006A00008348D1044F8253023468C1053F824303C
:1006B0008C07240F00FA04F423430B4C08348D10EC
:1006C00044F8253030BD0A490860704700080140F1
:1006D000000C0140001001400014014000180140CE
:1006E000001C0140002001400000014000002042A9
:1006F000DC002042DD48006840F00100DB49086072
:1007000008464068DA490840D84948600846006809
:10071000D8490840D54908600846006820F4802080
:1007200008600846406820F4FE0048604FF41F004F
:1007300088607047CD49096821F48031CB4A116047
:100740001146096821F480211160B0F5803F03D083
:10075000B0F5802F0ED106E0C449096841F480311C
:10076000C24A116007E0C149096841F4A021BF4AAB
:10077000116000E000BF00BF704710B501460022C5
:10078000002300204A11012A02D1B84C236806E058
:10079000022A02D1B54C236A01E0B44C636A01F02D
:1007A0001F02012494401C4201D0012000E00020DF
:1007B00010BD38B5002000900024002500BF312076
:1007C000FFF7DBFF05460098401C00900098B0F54D
:1007D000A06F01D0002DF2D03120FFF7CEFF08B17D
:1007E000012400E00024204638BD014600209F4A35
:1007F000106820F0F80040EAC100106070479E4980
:100800000860704702460020984B586820F47C101E
:1008100042EA01031843954B5860704796490866B1
:10082000704701460020914A506820F003000843B9
:10083000506070478D48406800F00C0070470146DA
:1008400000208A4A506820F0F0000843506070474A
:1008500001460020854A506820F4E060084350605B
:10086000704701460020814A506820F4605040EAF9
:10087000C1005060704729B17C4A527A02437B4BD9
:100880005A7204E0794A527A8243784B5A7270471E
:100890007A490860704701460020744A506820F485
:1008A00040400843506070470021754A11706F4AFC
:1008B00082F82010012802D0042808D103E0012189
:1008C0006F4A117004E005216D4A117000E000BF0D
:1008D00000BF70476B49086070476449096A01436B
:1008E000624A11627047674944390860704730B501
:1008F00000210022002400235C4D6D6805F00C01EE
:1009000021B1042905D0082923D105E05E4D0560F9
:1009100022E05D4D05601FE0544D6D6805F47012D6
:10092000524D6D6805F48034022505EB92421CB9E6
:10093000564D554305600BE04C4D6D6815F4003F76
:1009400003D0524D5543056002E04F4D55430560BD
:1009500002E04D4D056000BF00BF444D6D6805F0DD
:10096000F00109094A4D6B5C0568DD4045603F4D6B
:100970006D6805F4E061090A454D6B5C4568DD4032
:1009800085603A4D6D6805F46051C90A404D6B5C55
:100990004568DD40C560354D6D6805F44041890B03
:1009A0003C4D6B5CC568B5FBF3F5056130BD29B105
:1009B0002E4A526902432D4B5A6104E02B4A526978
:1009C00082432A4B5A61704729B1284A92690243EF
:1009D000264B9A6104E0254A92698243234B9A612F
:1009E000704729B1214AD2690243204BDA6104E001
:1009F0001E4AD26982431D4BDA61704729B11B4AF6
:100A0000D2680243194BDA6004E0184AD268824384
:100A1000164BDA60704729B1144A12690243134B2E
:100A20001A6104E0114A12698243104B1A6170473F
:100A300014494039086070470F49C86470470B4932
:100A4000C87170470948406A40F0807007494862A1
:100A5000704701460020054A92680A4201D00120F1
:100A600000E0002070470149887270470010024082
:100A70000000FFF8FFFFF6FE00004242D8004242AD
:100A8000201002408004424200127A0000093D001A
:100A9000020000201200002010B50446BE48844227
:100AA00008D101218014FFF7A9FF0021A014FFF74E
:100AB000A5FF16E0B948844208D101210014FFF7D0
:100AC000AAFF00212014FFF7A6FF0AE0B4488442E1
:100AD00007D10121C013FFF79EFF0021E013FFF7AC
:100AE0009AFF10BD10B50022028802F441520B8813
:100AF0004C8823438C882343CC8823430C8923438D
:100B00004C8923438C892343CC8923431A43028095
:100B1000838B4FF2FF74234083830B8A038210BDC3
:100B20002DE9F04F85B005460C464FF0000902272D
:100B30004FF000084FF0010B0026B246A88B4FF291
:100B400040010840A88302202884B5F81C90A068C2
:100B5000022801D100BF38E0A08810B94FF0010B86
:100B600001E04FF0020B8D48854200D100E000BF4C
:100B70006846FFF7BCFEDDF800A0E088B0F5007F16
:100B80000AD14FEA1A2000EB80004000A168B0FBB8
:100B9000F1F0401D86B20BE04FEA4B10BAFBF0F0CB
:100BA00000EB80004000A168B0FBF1F0401D86B270
:100BB0000A20B6FBF0F606F00108A6EB0800C0F329
:100BC0004F074FF6FF7000EA0828022F01DBFF2FC6
:100BD00002DD02274FF00008E08840EA08003843B1
:100BE0002884A088A1890843618808432188084394
:100BF00040F4006040EA0909A5F81C9005B0BDE882
:100C0000F08F0021018041808180C180018141817C
:100C10008181C181072101827047002101804180CB
:100C20008180C1800221816000218181704721B1D2
:100C3000028842F04002028004E002884FF6BF734F
:100C40001A400280704721B1828B42F48062828315
:100C500004E0828B4FF6FF331A408283704730B531
:100C6000002400230C110125A540ABB21AB18588E0
:100C70001D43858002E085889D43858030BD1AB183
:100C800083880B43838002E083888B438380704793
:100C900081817047014688897047A1F57E42FF3AFD
:100CA00004D0028842F48072028004E002884FF689
:100CB000FF631A400280704721B1828842F004022B
:100CC000828004E082884FF6FB731A40828070476E
:100CD00002884FF2FF731A40028002880A430280A2
:100CE0007047018841F480510180704721B102882A
:100CF00042F40052028004E002884DF6FF731A406D
:100D00000280704702460020012901D0108B00E0CC
:100D1000908A70470146088A7047B1F5804F04D128
:100D2000028842F48042028004E002884BF6FF739E
:100D30001A40028070470246002013890B4201D0FE
:100D4000012000E000207047CA4302817047F0B5DF
:100D50000246002000240023002501F00F07012691
:100D6000BE40B4B20B1101269E40B3B2968806EA8B
:100D700003051689264202D00DB1012000E00020B3
:100D8000F0BD10B5002201F00F040123A3409AB278
:100D9000D343038110BD0000003001400038004003
:100DA000003C004010B50446FB48844209D10121B3
:100DB0008803FFF723FE00214FF48040FFF71EFE5B
:100DC00032E0F648844209D101214804FFF723FEAE
:100DD00000214FF40030FFF71EFE25E0F04884426A
:100DE00009D101218804FFF716FE00214FF480206D
:100DF000FFF711FE18E0EB48844209D10121C80435
:100E0000FFF709FE00214FF40020FFF704FE0BE07E
:100E1000E548844208D101210805FFF7FCFD0021C7
:100E20004FF48010FFF7F7FD10BD2DE9F04786B0B5
:100E300005460E460024A24600BFA1460027B08901
:100E400000B100BF2F462C8A4CF6FF700440F0889A
:100E500004432C82AC894EF6F3100440B0883189EB
:100E60000843718908430443AC81AC8A4FF6FF40C4
:100E70000440B0890443AC8201A8FFF738FDC6489E
:100E8000874202D1DDF810A001E0DDF80CA0A889AE
:100E900010F4004F08D00AEBCA0000EB0A103168CA
:100EA0004900B0FBF1F807E00AEBCA0000EB0A10BA
:100EB00031688900B0FBF1F86420B8FBF0F0040160
:100EC0002009642101FB1089A88910F4004F08D083
:100ED000322000EBC900B0FBF1F000F00700044342
:100EE00008E0322000EB09106421B0FBF1F000F0C3
:100EF0000F0004432C8106B0BDE8F0874FF4165173
:100F0000016000218180C18001810C21418100218B
:100F10008181704710B502460020108A4FF2FF030E
:100F200018400B884C8823438C882343CC88234368
:100F30001843108210BD0021018041808180C18052
:100F4000704721B1828942F40052828104E0828993
:100F50004DF6FF731A4082817047F0B503460024B6
:100F6000002600250020A1F510676A3F00D100BFD0
:100F70001846C1F3421401F01F06012707FA06F5CF
:100F8000012C01D10C3004E0022C01D1103000E022
:100F900014301AB107682F43076002E00768AF43B7
:100FA0000760F0BD1AB1838A0B43838202E0838A13
:100FB0008B4383827047028A4FF6F0731A40028295
:100FC000028A0A430282704782894FF2FF731A40F5
:100FD000828182890A438281704721B1828942F0ED
:100FE0000202828104E082894FF6FD731A408281F9
:100FF0007047028A4FF6DF731A400282028A0A4360
:101000000282704721B1028A42F48042028204E0E7
:10101000028A4BF6FF731A4002827047C1F308023E
:101020008280704701468888C0F308007047818934
:1010300041F0010181817047028BD2B20283028BA1
:1010400042EA012202837047028B02F47F4202834C
:10105000028B0A430283704721B1828A42F0200248
:10106000828204E0828A4FF6DF731A4082827047E0
:1010700021B1828A42F01002828204E0828A4FF615
:10108000EF731A408282704721B1828A42F00802CF
:10109000828204E0828A4FF6F7731A408282704798
:1010A00021B1828942F40042828103E08289C2F345
:1010B0000E028281704721B1828A42F400628282EC
:1010C00004E0828A4FF2FF731A4082827047828A5C
:1010D0004FF6FB731A408282828A0A4382827047EB
:1010E00021B1828A42F00202828204E0828A4FF6B3
:1010F000FD731A408282704702460020B1F5007FDE
:1011000000D100BF13880B4201D0012000E0002075
:10111000704701F40072B2F5007F00D100BFCA43EE
:101120000280704770B5024600240023002500208D
:10113000A1F510666A3E00D100BFC1F3421501F06F
:101140001F03012606FA03F3012D02D196893340CD
:1011500006E0022D02D1168A334001E0968A334020
:101160000C12012606FA04F41688344013B10CB1AF
:10117000012000E0002070BD10B500220023A1F581
:1011800010646A3C00D100BF0A1201249440A3B24B
:10119000DC43048010BD00000038014000440040E2
:1011A00000480040004C0040005000400CB50020BA
:1011B000019000906B48006840F4803069490860F5
:1011C00000BF6848006800F4003000900198401C9F
:1011D0000190009818B90198B0F5A06FF1D161485D
:1011E000006810F4003F02D00120009001E00020D0
:1011F00000900098012842D15B48006840F0100040
:10120000594908600846006820F003000860084655
:10121000006840F002000860524840685149486048
:101220000846406848600846406840F4806048606E
:101230000846406820F47C1048600846406840F446
:10124000E81048600846006840F08070086000BF01
:101250004448006810F0007FFAD04248406820F00F
:101260000300404948600846406840F0020048607A
:1012700000BF3C48406800F00C000828F9D10CBDC4
:1012800010B5FFF793FF10BD10B53648006840F069
:101290000100344908600846406834490840314933
:1012A000486008460068324908402E4908600846F0
:1012B000006820F4802008600846406820F4FE00A2
:1012C00048604FF41F008860FFF7DAFF4FF00060BE
:1012D0002849086010BD10B5002100200022214BD4
:1012E0005B6803F00C0121B1042906D0082928D13C
:1012F00007E0214B214C236027E01F4B1F4C23604C
:1013000023E0184B5B6803F47010164B5B6803F422
:101310008032022303EB904022B9194B4343174C10
:1013200023600DE00F4B5B6813F4003F04D0144BB7
:101330004343124C236003E00F4B43430F4C2360A5
:1013400003E00D4B0D4C236000BF00BF054B5B68F5
:10135000C3F303130B4CE15C084B1B68CB40074CF9
:10136000236010BD00100240002002400000FFF882
:10137000FFFFF6FE08ED00E000127A0018000020E2
:1013800000093D001C00002000B585B0012144F299
:101390000400FFF719FB4FF40070ADF8100018209F
:1013A0008DF8130003208DF8120004A92448FFF7DC
:1013B00055F84FF48060ADF8100004208DF813004C
:1013C00003208DF8120004A91D48FFF747F84FF4D9
:1013D000165000900020ADF80400ADF80600ADF8FE
:1013E0000800ADF80C000C20ADF80A00694615485D
:1013F000FFF71BFD40211348FFF78BFE012240F24F
:1014000025511048FFF7A9FD012240F227710D4830
:10141000FFF7A3FD01210B48FFF793FD05B000BDC9
:1014200070B504460D46E1B20648FFF7F7FD00BF70
:1014300040210448FFF760FE0028F9D0204670BD27
:10144000000801400038014008B501211820FFF7CD
:10145000BBFA4FF40050ADF8000010208DF80300E7
:1014600003208DF8020069461D48FEF7F7FF0120B2
:10147000ADF8000010208DF8030003208DF8020065
:1014800069461848FEF7EAFF0220ADF80000102078
:101490008DF8030003208DF8020069461148FEF71D
:1014A000DDFF08BD012806D10D49C96881F400514E
:1014B0000B4AD16012E0022808D10A490C310968B0
:1014C00081F00101074A0C32116007E005490C3137
:1014D000096881F00201034A0C3211607047000074
:1014E00000100140000C014030B500BF1F480068EB
:1014F0001F4AB0FBF2F1B1F1807F01D301201DE062
:1015000021F07F40401E4FF0E022506150170F2223
:10151000002807DA13071D0E164B00F00F04241FD6
:101520001D5503E013071C0E134B1C5400BF002075
:101530004FF0E02290610720106100200028D5D1F3
:1015400030BD0E49088000BF0C4909880029FBD135
:10155000704700B5024603E04FF47A70FFF7F1FFE1
:101560001000A2F101018AB2F6D100BD18000020DE
:1015700040420F0018ED00E000E400E00000002011
:1015800010B50446204600F011FB10BD10B5382000
:1015900000F08EFB10BD10B5002000F089FB10BDDF
:1015A00008B501210820FFF70FFA4FF40050ADF8FD
:1015B000000010208DF8030003208DF8020069461A
:1015C000F748FEF74BFF4FF40051F548FEF7F1FFE7
:1015D00000F013FB4FF40051F148FEF7EAFF08BD9D
:1015E00010B54FF40051EE48FEF7E3FFFF20FFF780
:1015F000C7FF10BD10B5002400BFFF20FFF7C0FFDC
:10160000FF2801D1002010BD641C6FF07F40844290
:10161000F3D30120F7E710B54FF40051E048FEF78F
:10162000CAFFFFF7E7FF08B9002010BDFFF7D8FF9A
:101630000120FAE770B5054640F6FF7401E0601E30
:1016400084B2FF20FFF79CFFA84201D0002CF6D106
:101650000CB9FF2070BD0020FCE770B504460D46B4
:10166000FE20FFF7E7FF08B1012070BD04E0FF2076
:1016700000F09CFA2070641C2800A5F101018DB2D5
:10168000F5D1FF20FFF77CFFFF20FFF779FF002057
:10169000EBE770B506460D46FFF7ACFF08B1012039
:1016A00070BD2846FFF76CFFFD2D19D0002404E023
:1016B000305D00F07BFA601C84B2B4F5007FF7DB8C
:1016C000FF20FFF75DFFFF20FFF75AFFFF20FFF726
:1016D00057FF044604F01F00052801D00220DFE771
:1016E0000020DDE72DE9F04105460C4617464FF096
:1016F0000008FFF775FFFFF78EFF10B1FF20BDE870
:10170000F08145F04000FFF73BFF200EFFF738FF68
:10171000C4F30740FFF734FFC4F30720FFF730FF9F
:10172000E0B2FFF72DFF3846FFF72AFF0C2D02D15C
:10173000FF20FFF725FF4FF01F0800BFFF20FFF736
:101740001FFF064616F0800F06D05FEA0800A8F1DA
:10175000010101F0FF08F1D13046D0E770B5054630
:10176000012200210A20FFF7BDFF044624B9102101
:101770002846FFF772FF0446FFF732FF0CB1012045
:1017800070BD0020FCE770B505460122002109204C
:10179000FFF7A8FF044624B910212846FFF75DFF94
:1017A0000446FFF71DFF0CB1012070BD0020FCE7CF
:1017B0007FB56846FFF7E7FF10B1002004B070BDA9
:1017C0009DF8000000F0C000402809D19DF80900F4
:1017D0009DF8081000EB0120401C84B2A50220E017
:1017E0009DF8050000F00F009DF80A1000EBD110E5
:1017F0009DF8091001F0030100EB4100861C9DF8E3
:10180000080080119DF8071000EB81009DF806107C
:1018100001F0030100EB8120441CA6F1090004FA49
:1018200000F52846CAE770B5002401E0601C84B2C8
:10183000B4F5706FFADB002404E0FF2000F0B6F985
:10184000601C84B20A2CF8DB002500BF9522002121
:101850000846FFF747FF0446681CC5B2012C01D0BB
:10186000C82DF3DBC82D01D1012070BD0020FCE79D
:10187000F8B5FFF795FEFFF789FE002504E0FF208D
:10188000FFF77EFE681C85B20A2DF8DB142600BF28
:10189000952200210846FFF725FF0446012C04D0BD
:1018A0003000A6F101018EB2F2D100203D4908704E
:1018B000012C4AD187224FF4D5710820FFF712FF7F
:1018C000012847D1002506E0FF20FFF759FE0DF85B
:1018D0000500681C85B2042DF6DB9DF80200012886
:1018E0007ED19DF80300AA287AD14FF6FE7600BF7C
:1018F000012200213720FFF7F5FE01229107292060
:10190000FFF7F0FE044624B13000A6F101018EB2CB
:10191000EED1002E64D0012200213A20FFF7E2FE32
:1019200000285DD1002506E0FF20FFF729FE0DF815
:101930000500681C85B2042DF6DB9DF8000010F050
:10194000400F03D006201749087049E004201549CC
:10195000087045E0012200213720FFF7C3FE012275
:1019600000212920FFF7BEFE0446012C1CDC0220CA
:101970000C4908704FF6FE7600BF01220021372087
:10198000FFF7B0FE012200212920FFF7ABFE04463D
:10199000E4B13000A6F101018EB2EED116E00000F4
:1019A000000C01402C00002001207F4908704FF6F8
:1019B000FE7600BF012200211046FFF793FE044689
:1019C00024B13000A6F101018EB2F3D12EB1012273
:1019D00051021020FFF786FE10B1002072490870F6
:1019E000FFF7FEFDFFF7D7FD6F48007808B1002034
:1019F000F8BD0CB12046FBE7AA20F9E72DE9F0413C
:101A000006460F46154668480078062800D07F0233
:101A1000012D0CD1012239461120FFF763FE044647
:101A2000FCB969023046FFF718FE044619E00122AE
:101A300039461220FFF756FE044600BF4FF40071EE
:101A40003046FFF70AFE044606F50076681EC0B26F
:101A5000050001D0002CF1D0012200210C20FFF75D
:101A600041FEFFF7BDFD2046BDE8F0812DE9F041C4
:101A700006460F4615464C480078062800D07F02DF
:101A8000012D0CD1012239461820FFF72BFE044608
:101A90006CBBFE213046FFF7FCFD044627E04248C0
:101AA0000078012809D0012200213720FFF71AFE13
:101AB000012229461720FFF715FE01223946192079
:101AC000FFF710FE044694B900BFFC213046FFF733
:101AD000E0FD044606F50076681EC0B2050001D0A0
:101AE000002CF2D0FD210020FFF7D3FD0446FFF7C4
:101AF00077FD2046BDE8F0812DE9FF416846FFF7FC
:101B000042FE18B1002004B0BDE8F0819DF800004D
:101B100000F0C00040280BD19DF809009DF8081086
:101B200000EB0120401C1FFA80F84FEA482738E0FC
:101B30009DF8060000F003044FF6FF7000EA04244D
:101B40009DF8070004444FF6FF7000EA84049DF8F6
:101B5000080004EB90149DF8090000F003067600DD
:101B60009DF80A0006EBD016B61C012505E04FF6DD
:101B7000FF7000EA4505701EC6B2002EF7D1601C4A
:101B800000FB05F79DF8050000F00F04012505E0B6
:101B90004FF6FF7000EA4505601E84B2002CF7D1B5
:101BA0006F433846AFE700002C00002070B50546B3
:101BB000002405E0601CC4B2C82C01DD002070BD0B
:101BC00002214248FFF7B7F80028F3D029463F48E2
:101BD000FFF75EF8002400BF01213C48FFF7ABF897
:101BE0000028F9D0601CC4B2C82C01DD0020E6E753
:101BF0003648FFF74FF8C0B2E1E708B50121080306
:101C0000FEF7E2FE01210420FEF7DEFE2020ADF803
:101C1000000018208DF8030003208DF802006946AB
:101C20002B48FEF71BFC4020ADF8000018208DF873
:101C3000030003208DF8020069462548FEF70EFCDC
:101C40008020ADF8000018208DF8030003208DF8E7
:101C5000020069461E48FEF701FC20211C48FEF7E1
:101C6000A8FC40211A48FEF7A4FC80211848FEF782
:101C7000A0FC0020174908804FF4827048800020A3
:101C800088800220C88001200881400248813820D5
:101C900088810020C881072008820C48FEF722FFB7
:101CA00001210A48FEF7C3FFFF20FFF77FFF08BDB1
:101CB00010B504460748848101460448FEF712FF28
:101CC00001210248FEF7B3FF10BD000000300140C3
:101CD000000801403402002030B480EA010202F022
:101CE000004530F0004221F0004015D0A0B1C0F313
:101CF000C753C2F3C754C2F31601C0F31600E41A67
:101D000041F4000140F400027D34914201D3641C8F
:101D100000E04900002C02DA30BC002070474FF48C
:101D200000000023914201D3891A034340084FEA7F
:101D30004101F7D151B1914202D14FF0004105E08C
:101D400002D24FF0010101E06FF0010103EBC4503A
:101D5000284430BC00F05FB896230022114600F002
:101D600063B800F0004230F000400AD0C10D01F528
:101D70006071C0F3160042EA0151C20840071143E6
:101D8000704700200146704730B50B4601460020E1
:101D90002022012409E021FA02F59D4205D303FA2D
:101DA00002F5491B04FA02F52844151EA2F10102AE
:101DB000F1DC30BD2DE9F05F0546002092469B46E0
:101DC00088460646814640241BE028464146474651
:101DD000224600F02CFA53465A46C01A914110D3BD
:101DE00011461846224600F013FA2D1A67EB010837
:101DF0004F4622460120002100F00AFA17EB0009A5
:101E00004E41201EA4F10104DFDC484631462A463B
:101E10004346BDE8F09F0029A8BF7047401C490019
:101E200008BF20F00100704710B4B0FA80FC00FA3F
:101E30000CF050EA010404BF10BC704749B1CCF16A
:101E4000200421FA04F411FA0CF118BF01212143F6
:101E50000843A3EB0C01CB1D0106000A002BBEBFFB
:101E6000002010BC704700EBC35010440029A4BFF1
:101E700010BC7047401C490008BF20F0010010BC96
:101E800070472DE9FE4F804681EA0300C00F0C46E3
:101E9000009021F0004123F00045B8EB0200A94179
:101EA00005D24046214690461C460B46024623F08A
:101EB0000040104304D14046214603B0BDE8F08FF6
:101EC000270DC7F30A00C3F30A510290401A01908C
:101ED000402866DAC3F3130040F4801B0098924652
:101EE00020B10023D2EB030A63EB0B0B0198594698
:101EF000C0F14002504600F08BF906460D465046B0
:101F00005946019A00F0A3F910EB08006141002442
:101F100087EA115284EAE7731A433BD0009A3AB336
:101F2000019A012A4FEA075210DC001B61EB020103
:101F30004FF0004202EA0752CDE90042001C41F591
:101F4000801132462B4600F0A1F9B6E7001B61EB89
:101F50000201001C41F5801300185B412018A2F516
:101F6000001747EB030140EAD570B6196D4111E047
:101F70006D084FEA360645EAC0754FEA0752001B66
:101F800061EB0201001C41F5801149084FEA300065
:101F90000019514132462B4603B0BDE8F04F00F026
:101FA00068B90098012240000023D0EB020263EBE5
:101FB000E073009821464FEAE074B8EB000061EB53
:101FC0000401E9E783F000435BE781F0004158E753
:101FD0002DE9FE4F81EA030404F0004421F00041A2
:101FE00000944FF0000B23F0004350EA010402D0AC
:101FF00052EA030404D10020014603B0BDE8F08F8B
:10200000C3F30A54C1F30A552C44A4F2F3340194E7
:10201000A0FB0254C1F3130141F48011C3F3130375
:1020200043F4801301FB024400FB034E840A970A29
:1020300044EA815447EA8357A4FB076802958D0A56
:1020400005FB07854FEA932C04FB0C542705029DE2
:102050004FEA065847EA1637B5EB08056EEB070C52
:10206000870E920E47EA811742EA8312A7FB02010C
:10207000B6EB0B0164EB00042B0D43EA0C335E1846
:1020800044EB1C50DA465146E7FB0201C5F313044A
:102090004FEA0B3343EA14534FEA0432019C43EAFC
:1020A0000603A4F10C040294009CCDE900B400F0F6
:1020B000EDF8A2E72DE9F04D81EA030404F0004BAE
:1020C00021F0004514464FF0000A23F0004150EA89
:1020D000050220D054EA01021DD0C5F30A5702467A
:1020E000C5F31303C1F31300C1F30A5640F480157E
:1020F00043F48013A7EB0608101BD64608F2FD3800
:1021000073EB050002D308F1010801E092185B416E
:10211000B8F1000F03DA00200146BDE8F08D002081
:102120004FF48011064684460EE0171B73EB05073B
:1021300005D3121B63EB050306434CEA010C490867
:102140004FEA300092185B4150EA0107EDD152EAA4
:10215000030012D082EA040083EA0501084303D198
:1021600000224FF0004308E0101BAB4102D20122D5
:10217000002302E06FF0010253101AEB06004CEB53
:10218000085110EB0A0041EB0B01BDE8F04D00F0E7
:1021900070B8C1F30A52C1F3130140F2FF3341F4A6
:1021A00080119A4202DA00200146704740F2334320
:1021B0009A42A2F2334202DC524200F038B800F0F8
:1021C00027B8000030B5002904DB4FF0004440423E
:1021D00064EB0101002B04DB4FF00044524264EB3E
:1021E0000303994208BF904230BD0000064C074DE2
:1021F00006E0E06840F0010394E8070098471034D7
:10220000AC42F6D3FDF776FF142C0008342C0008FE
:10221000202A04DB203A00FA02F1002070479140A6
:10222000C2F1200320FA03F3194390407047202A9B
:1022300004DB203A21FA02F00021704721FA02F370
:10224000D040C2F120029140084319467047202A2D
:1022500006DBCB17203A41FA02F043EAE07306E0CE
:1022600041FA02F3D040C2F12002914008431946DE
:10227000704710B5002B08DA401C41F1000192189C
:102280005B411A4301D120F0010010BD2DE9F04D52
:1022900092469B4611B1B1FA81F202E0B0FA80F2A7
:1022A00020329046FFF7B4FF04460F4640EA0A008A
:1022B00041EA0B0153465A46084303D120463946AA
:1022C000BDE8F08D114653EA010015D0C8F1400277
:1022D0005046FFF7ACFF05460E465046594642466B
:1022E000FFF796FF084301D0012000E000200543DE
:1022F00046EAE0762C4337430A984FEA4453A0EB72
:1023000008004FEAD4240A304FF0000244EA475450
:102310004FEAD72502D500200146D1E70105101963
:102320006941DDE9084500196941BDE8F04DA0E7C4
:102330000FB4054B10B503A9044A029800F0C6F883
:1023400010BC5DF814FB00002114000830000020D0
:1023500002E008C8121F08C1002AFAD1704770476E
:10236000002001E001C1121F002AFBD170470000CC
:102370002DE9FF5FDDE90220010DDDF838B00243F1
:1023800010D10F9801244CA2012808D000210098F8
:102390000F9BC0E90021C0E90243BDE8FF9F6FEA3F
:1023A0000B01F4E7A1F2FF3144F6105041430D1444
:1023B0000F9801280ED0A5EB0B00401C4FF0000435
:1023C0003E4EDFF8FC90B0F1000AA04605DACAF1F3
:1023D000000717E0CBF10000F0E7074612E0F8072E
:1023E00007D02246334640464946FFF7F1FD804676
:1023F00089462246334610461946FFF7E9FD044652
:102400000E467F10002FEAD1DDE90201BAF1000F7C
:1024100042464B4602DAFFF7DBFD01E0FFF74AFEDA
:1024200004460E460022274BFFF7CCFE03D84FF0A0
:10243000FF30014607E00022234B20463146FFF7DC
:1024400020FDFFF7A6FE102409E0002C0ADB0A227B
:102450000023FFF7AFFC019B30321A55641E50EA8F
:102460000102F2D1641C019AC4F1110314440F9AC1
:10247000012A09D00122084301D15B450FDD4FF04D
:10248000000205F101050DE0084303D1A3EB0B05A4
:102490006D1E09E000204FF0110B0F9088E701DA64
:1024A00000226D1E002A83D000980F99C0E90231E6
:1024B000C0E9004571E70000300000000000244042
:1024C0000000F03F0000F0430000E03F2DE9FF4F27
:1024D00095B09B4689460646002512E2252878D10C
:1024E0000024761CF94A2746012105943378203BC5
:1024F00001FA03F0104202D00443761CF6E730786C
:102500002A2811D06FF02F033078A0F13002092A69
:1025100016D8059A44F0020402EB820203EB420251
:102520001044761C0590EFE759F8042B0592002A19
:1025300003DA504244F40054059044F00204761C3F
:1025400030782E2816D116F8010F44F004042A28FA
:102550000DD06FF02F023078A0F13003092B09D88D
:1025600007EB870302EB4303C718761CF3E759F820
:10257000047B761C30786C280FD006DC4C2817D0F2
:1025800068280DD06A2814D104E0742810D07A2865
:102590000FD10DE044F400140AE044F4801401E08B
:1025A00044F440147278824202D1761C04F58014FF
:1025B000761C307866280BD013DC582877D009DCDD
:1025C000002875D04528F6D04628F4D047281AD1DF
:1025D0009FE118E0632835D0642879D0652812D1AE
:1025E00097E1702873D008DC6728F1D069286FD094
:1025F0006E280DD06F2806D1B5E073282CD0752831
:1026000075D0782874D05A46179990476D1C76E19A
:10261000C4F30250022809D003280DD0D9F80010C5
:1026200004280DD00D6009F1040968E1D9F8001003
:10263000EA17C1E90052F6E7D9F800100D80F2E779
:102640000D70F0E719F8041B8DF8001000208DF8CC
:102650000100EA46012003E059F804AB4FF0FF30D7
:1026600061074FF0000102D40DE008F10101884636
:10267000B9420FDA8045F8DB1AF808100029F4D1C6
:1026800008E008F1010188468142FADB1AF80810D7
:102690000029F6D105985B46A0EB0807214638468D
:1026A000179A00F09EFA284400EB080507E04DE079
:1026B0002BE10DE01AF8010B5A4617999047B8F133
:1026C0000108F7D25B4621463846179A14E142E0EA
:1026D0000A220092C4F302524FF0000A022A08D0E4
:1026E00059F804CB032A4FEAEC710AD00DE029E037
:1026F0002AE009F1070121F00702F2E802C1914640
:1027000009E00FFA8CFC4FEAEC71042A03D14FFA6E
:102710008CFC4FEAEC71002907DA0A460021DCF153
:10272000000C61EB02012D2202E0220504D52B22D0
:102730008DF80420012203E0E20701D02022F7E710
:10274000904653E00A2102E010220DE010214FF0E4
:10275000000A00910BE010224FF0000A44F004043C
:102760000827009203E008224FF0000A0092C4F309
:102770000252022A05D059F804CB0021032A08D0BE
:1027800009E009F1070121F00702F2E802C19146D0
:1027900005E01FFA8CFC042A01D10CF0FF0C4FF06D
:1027A0000008220722D5702827D0009B83F0100351
:1027B00053EA0A0309D15CEA010206D030228DF8FF
:1027C00004208DF8050002229046009B83F0080348
:1027D00053EA0A030AD15CEA010201D1620705D576
:1027E00030228DF804204FF001087F1E582809D0B0
:1027F00037A003900EA8029013E040228DF8042029
:102800000122E1E737A0F4E753466046009AFFF75C
:10281000D1FA84460398825C0298A0F101000290EC
:1028200002705CEA0100EFD1029806A9A1EB00005A
:1028300000F1200A600702D524F4803400E001276B
:10284000574502DDA7EB0A0000E0002000EB0A017B
:10285000009005984144A0EB01000590E00306D4E8
:102860005B462146179A059800F0BBF905440027FE
:1028700006E001A85A46C05D179990476D1C7F1C61
:102880004745F6DBE0030CD55B462146179A0598D1
:1028900000F0A7F9054404E030205A461799904704
:1028A0006D1C0099481E00900029F5DC08E0029894
:1028B00002995A460078491C0291179990476D1C5D
:1028C000BAF10001AAF1010AF1DC6BE1092801006B
:1028D0003031323334353637383961626364656696
:1028E0000000000030313233343536373839414258
:1028F000434445460000000000F060F9054406F13D
:102900000106307800287FF4E9AD19B02846BDE80B
:10291000F08F620700D4062709F1070222F0070CA6
:10292000FCE80223E14603F000485FEA080C02D00D
:102930000FF27C2C0DE05FEA045C02D50FF2742CE0
:1029400007E05FEAC47C02D00FF26C2C01E0AFF22A
:10295000700C4FF0FF3823F00043CDF850C06528CD
:102960000CD006DC452809D046281DD047283ED18A
:102970003EE0662818D0672839D139E00021112FB0
:1029800001DB112000E0781CCDE9000106A90EA8AA
:10299000FFF7EEFCDDE90F010E9A03910021009292
:1029A00007F1010A04914EE04FF000400097CDE995
:1029B000011006A90EA8FFF7DBFCDDE90F02039268
:1029C0000E9B11990022DDF80CA00093049219B916
:1029D00007F1010100EB010AB7EB0A0004D4C0F1D2
:1029E000FF3007F1010A0490AAEB0700019046E0CE
:1029F000012F00DA01270021112F01DD112000E055
:102A00003846CDE9000106A90EA8FFF7B1FCDDE9C3
:102A10000F010E9A0391002104910092BA462107FA
:102A20000CD40399514500DA8A46BAF1010F05DD4D
:102A3000009AAAF10101515C302908D0B84202DAAB
:102A400010F1040F06DA0121CDE9011017E0AAF117
:102A50000101E9E7002805DC049901440491AAEB8F
:102A6000000102E0411C514500DD8A460499A0EBBB
:102A7000010000F1010001904FF00040029020079A
:102A800004D40198504501DBCDF8048000208DF876
:102A90004F0002980DF14F07B0F1004F25D02B20C9
:102AA0000E9002984FF0020800280CDA4042029083
:102AB0002D200E9007E00A210298FFF765F93031CA
:102AC000029007F8011DB8F10001A8F10108F2DC3D
:102AD00002980028EFD1791E0E980870307800F027
:102AE000200040F0450007F8020D12A8A0EB0700F7
:102AF00000F107081498007800B1012000EB0A01EA
:102B0000019801EBE07105984144A0EB0100A0F1B0
:102B100001000590E00306D45B462146179A05980C
:102B200000F05FF805441498007820B15A461799D0
:102B3000904705F10105E00323D55B462146179A2E
:102B4000059800F04EF805441BE00498002807DBC8
:102B5000DDE90301884203DD0098405C179901E03C
:102B6000179930205A46904704986D1C401C0490D9
:102B70000198401E019004D12E205A461799904783
:102B80006D1CBAF10001AAF1010ADEDC05E017F8BC
:102B9000010B5A46179990476D1CB8F10001A8F136
:102BA0000108F4DC5B462146179A0598A4E600006C
:102BB0002D0000002B000000200000002DE9F04156
:102BC000044600251E461746880405D406E039460B
:102BD0002020B04705F10105641EF8D52846BDE860
:102BE000F0812DE9F041044600251E469046C803B9
:102BF00001D5302700E02027880405D506E04146AE
:102C00003846B04705F10105641EF8D52846BDE8F1
:102C1000F0810000342C0008000000203400000087
:102C200050230008682C000834000020140600001F
:102C300060230008000000000000010203040102FC
:102C400003040607080902040608000000A24A045B
:102C5000000000000000000001020304060708094C
:082C600000000000000000006C
:04000005080000ED02
:00000001FF
