:020000040800F2
:10000000B0040020750C0008890B00088B0B000859
:100010008D0B00088F0B0008910B000800000000FA
:10002000000000000000000000000000930B00082A
:10003000950B000800000000970B0008990B0008C2
:10004000B50C0008B90C0008BD0C0008C10C000874
:10005000C50C0008C90C0008CD0C0008D10C000824
:10006000D50C0008D90C0008DD0C0008E10C0008D4
:10007000E50C0008E90C0008ED0C0008F10C000884
:10008000F50C0008F90C0008FD0C0008010D000833
:10009000050D0008090D00080D0D0008110D0008E0
:1000A000150D0008190D00081D0D0008210D000890
:1000B000250D0008290D00082D0D0008310D000840
:1000C000350D0008390D00083D0D0008410D0008F0
:1000D000450D0008490D00084D0D0008510D0008A0
:1000E000550D0008590D00085D0D00080021002184
:1000F000002200215149096811F00C01002904D0A7
:10010000042905D0082906D021E04E49016020E0ED
:100110004C4901601DE04949096811F47011474AD2
:10012000126812F48032890C891C002A03D1464AD5
:10013000514301600AE0414A1268920303D5424AE2
:100140005143016002E03F4A5143016001E03D49F3
:1001500001603A49096811F0F00109093B4A895CDC
:1001600002681300CB4043603449096811F4E06130
:10017000090A364A895C42681300CB4083602F49E4
:10018000096811F46051C90A304A895C4268130059
:10019000CB40C3602949096811F44041890B2C4ABE
:1001A000895CC268B2FBF1F101617047C9B20029F4
:1001B00005D02849096808432649086005E0254913
:1001C000096831EA0000234908607047C9B2002974
:1001D00005D02149096808431F49086005E01E4908
:1001E000096831EA00001C490860704700210022BC
:1001F0000021C0B24109C9B2012902D10E490A68E1
:1002000006E0022902D10E490A6801E013490A6892
:10021000C0B210F01F011000C840C00701D5012175
:1002200000E000210800C0B270470C48006850F0A0
:1002300080700A49086070470010024004100240B4
:100240002010024000127A0000093D00400000200A
:1002500050000020181002401C10024024100240E0
:1002600070B586B004000D000020002000210021A0
:100270000026A88900282600208A4CF6FF71084035
:10028000E98808432082A0894EF6F3110840A98826
:100290002A8911436A8911430843A081A08A4FF635
:1002A000FF410840A9890843A08200A8FFF71EFF6C
:1002B0001A48864201D1039800E00298A1890904F6
:1002C00006D51921484329684900B0FBF1F105E042
:1002D0001921484329688900B0FBF1F16420B1FB82
:1002E000F0F000010209642303FB1211A289120439
:1002F00008D5C90032316422B1FBF2F111F00701D7
:10030000084307E0090132316422B1FBF2F111F038
:100310000F010843208106B070BD00000038014085
:10032000C9B2002904D0818951F40051818104E0CF
:1003300081894DF6FF7211408181704730B40023EE
:1003400000240024002589B240F66A139942050072
:100350000800C0B24309DBB289B211F01F040120CA
:1003600010FA04F4012B01D10C3504E0022B01D169
:10037000103500E01435D2B2002A03D0286820439B
:10038000286002E02868A043286030BC7047C90597
:10039000C90D81807047002289B2B1F5007F0088C5
:1003A000084201D0012200E000221000C0B27047D4
:1003B00089B28A0589B2C9430180704780B54F4828
:1003C000006850F001004D4908604D4800684D49F3
:1003D00008404B490860494800684B490840474974
:1003E00008604648006830F480204449086044486A
:1003F000006830F4FE00424908605FF41F00434982
:10040000086000F005F85FF000604149086001BD38
:1004100080B500F001F801BD82B0002001900020FD
:1004200000903648006850F4803034490860334802
:10043000006810F4003000900198401C0190009872
:10044000002803D10198B0F5A06FF0D12B480068C7
:10045000800302D50120009001E000200090009868
:10046000012847D12B48006850F010002949086046
:1004700028480068800880002649086025480068F0
:1004800050F00200234908601D4800681C490860BC
:100490001B4800681A4908601948006850F48060D9
:1004A000174908601648006830F47C101449086049
:1004B0001348006850F4E810114908600F480068BC
:1004C00050F080700D4908600C4800688001FBD531
:1004D0000B480068800880000949086008480068E7
:1004E00050F00200064908600548006810F00C0052
:1004F0000828F9D102B07047000000000010024047
:10050000041002400000FFF8FFFFF6FE0810024052
:1005100008ED00E00020024070B504461E000846C9
:10052000154604D015F8011BA047761EFAD170BD00
:100530002DE9F04784B08246894614461F460DF1E6
:10054000000807E00123224649465046FFF7E4FF32
:100550008146641C207810B904B0BDE8F0872528D6
:10056000F0D16078A41C2528014618D058285CD00A
:1005700063280ED0642818BF692814D06F2854D07F
:10058000702858D073285DD0752818BF78284CD0B3
:10059000E0E73868386050F8041B3860C9B2484654
:1005A000D0478146D6E73868386050F8045B386039
:1005B000002D03D52D214846D047814664206F2861
:1005C00008BF082205D040F02001782914BF0A2274
:1005D00010220B216428AC4603D1002D48BFCCF17A
:1005E000000CBCFBF2F502FB15CC0CF1300C5FFAF1
:1005F0008CFC4B1EBCF13A0FA4BFA0F1510EF44489
:1006000003F808C019465FEA050C01D00129E8DAB1
:1006100000A80D184846D1F10B09C2D015F8011BEE
:10062000D047B9F10109F9D1BBE73968396051F810
:10063000045B3960C3E73868386050F8045B3860A1
:100640007820BCE73868386050F8045B386028468A
:1006500000F00AF806004846A3D015F8011BD04761
:10066000761EFAD19DE7000000F10103810704D056
:1006700010F8011B89B18107FAD10268B2F101318A
:10068000914311F0803F04BF50F8042FF6E710F8B3
:10069000011B11B110F8011BFBE7C01A70470000E5
:1006A00070B4002200250023002600240025CA780B
:1006B00012F00F02CB78DB0601D58B781A430B784A
:1006C0001B0621D00468002306E0CD78482D02D116
:1006D00001259D4005615B1C082B14D2012515FAEC
:1006E00003F60D883540B542F5D19E000F25B54083
:1006F000AC4312FA06F52C43CD78282DE5D101251F
:100700009D404561E7E704600B88FF2B26DD4468C8
:10071000002320E0012513F1080615FA06F60D88DE
:100720003540B54216D19E000F25B540AC4312FAB4
:1007300006F52C43CD78282D04D1012513F10806A8
:10074000B5404561CD78482D04D1012513F1080647
:10075000B54005615B1C082BDCD3446070BC70475E
:100760000022806889B2084201D0012200E0002204
:100770001000C0B27047D2B2002A02D089B2016123
:1007800001E089B24161704700B585B0012144F2B2
:100790000400FFF70BFD4FF40070ADF800001820C7
:1007A0008DF8030003208DF8020000A92648FFF70A
:1007B00077FF4FF48060ADF8000004208DF803004F
:1007C00003208DF8020000A91F48FFF769FF4FF4CE
:1007D000165001900020ADF808000020ADF80A0086
:1007E0000020ADF80C000020ADF810000C20ADF892
:1007F0000E0001A91548FFF733FD40211348FFF70C
:10080000D7FD012240F225511048FFF797FD012244
:1008100040F227710D48FFF791FD01210B48FFF7CA
:100820007FFD05B000BD10B504002100C9B289B23A
:100830000648FFF7ACFD40210448FFF7ACFD002857
:10084000F9D0200010BD0000000801400038014030
:1008500040B2002808D509011A4A40B210F00F0032
:10086000801800F8041C03E00901174A40B28154C3
:10087000704780B5411EB1F1807F01D301200EE0A9
:10088000401E124908600F215FF0FF30FFF7E0FFC4
:1008900000200F49086007200E490860002002BDB3
:1008A00080B50D4800680D49B0FBF1F0FFF7E1FF9E
:1008B0000028F6D101BD0A490880094800880028AF
:1008C000FBD1704718ED00E000E400E014E000E028
:1008D00018E000E010E000E05400002040420F006B
:1008E000A800002010B5040003E04FF47A70FFF771
:1008F000E2FF2000441E80B20028F6D110BD0000A7
:1009000080B501211820FFF751FC4FF40050ADF8DD
:10091000000010208DF8030003208DF8020000A9CC
:100920001C48FFF7BDFE0120ADF8000010208DF837
:10093000030003208DF8020000A91748FFF7B0FE5E
:100940000220ADF8000010208DF8030003208DF880
:10095000020000A91048FFF7A3FE01BDC0B20128A4
:1009600006D10E48006890F400500C4908600FE072
:10097000C0B2022806D10A48006890F00100084978
:10098000086005E00648006890F00200044908602D
:100990007047000000100140000C01400C100140A5
:1009A0000C0C014080B5FFF7ABFF00F03FF8FFF7FC
:1009B000EBFEFFF775FF7E20FFF718FC002810D034
:1009C000174800F05BF801224FF400511548FFF77B
:1009D000D2FE012201211448FFF7CDFEFFF725FCCE
:1009E0000AE000224FF400510E48FFF7C4FE002237
:1009F00001210D48FFF7BFFE00F052F80320FFF77A
:100A0000ADFF2D20FFF76EFF4FF480410648FFF742
:100A1000A7FE0028F2D17F2000F070F8EEE700BFBB
:100A2000640C000800100140000C014080B5012159
:100A30000820FFF7BBFB4FF48040ADF800004820D2
:100A40008DF8030000A90C48FFF72AFE4FF4004080
:100A5000ADF8000048208DF8030000A90648FFF714
:100A60001FFE2020ADF8000048208DF8030000A9EB
:100A70000148FFF715FE01BD000C01400EB400B5A2
:100A800082B003A90091024600AB012103487844DB
:100A90000A30FFF74DFD06BC5DF810FBA501000014
:100AA00080B501214FF40060FFF790FB4FF4C07058
:100AB00000F008F8502000F00EF87F2000F024F835
:100AC00001BD000000211349096831F4C0710143E0
:100AD00010480160704781B0002100910D490968FC
:100AE000C909C90100910099C0B210F07F00084304
:100AF000009000980749086001B07047C0B210F03C
:100B00007F00054908607047C0B250F0800002497C
:100B100008607047042C0040002C004019E050F899
:100B2000041BCB0744BFA9F101035918121F00236E
:100B3000042A41F8043BF9D25FEA827C0B4604D5D3
:100B40004FF0000CA1F800C09B1CD10744BF00214E
:100B5000197050F8042B002AE1D1704710B450F8F6
:100B6000041B79B10268436812180830DC0744BFDF
:100B7000A9F10104E31852F8044B43F8044B091F90
:100B8000F9D1ECE710BC70477047FEE7FEE7FEE7DF
:100B9000FEE770477047704704480088002804D07B
:100BA00002480088401E014908807047A8000020C4
:100BB00010B5074979441831064C7C44163404E0DA
:100BC0000A68081D511888470146A142F8D110BD96
:100BD000080000002800000045FFFFFF540000004F
:100BE000580000200000000075FFFFFF58000000C3
:100BF00070010000000000200000000000F00BF871
:100C0000002801D0FFF7D4FF0020C046C046FFF700
:100C1000C9FE00F002F80120704700F001B80000A2
:100C20000746384600F002F8FBE7000080B5C046F2
:100C3000C046024A11001820ABBEFBE726000200A6
:100C400038B504460D46284600F006F8A84218BFFD
:100C50000024204632BD00000149FFF7E4BD00BF7B
:100C600000000020575744472052657365740D0AF1
:100C7000000000000148804701480047BD0300080C
:100C8000850C0008C046C046C046C046FFF7B6FF08
:100C9000FFF77ABFFFF779BFFFF778BFFFF777BF9E
:100CA000FFF776BFFFF775BFFFF774BFFFF773BF9E
:100CB000FFF772BFFFF7FEBFFFF7FEBFFFF7FEBFF4
:100CC000FFF7FEBFFFF7FEBFFFF7FEBFFFF7FEBF58
:100CD000FFF7FEBFFFF7FEBFFFF7FEBFFFF7FEBF48
:100CE000FFF7FEBFFFF7FEBFFFF7FEBFFFF7FEBF38
:100CF000FFF7FEBFFFF7FEBFFFF7FEBFFFF7FEBF28
:100D0000FFF7FEBFFFF7FEBFFFF7FEBFFFF7FEBF17
:100D1000FFF7FEBFFFF7FEBFFFF7FEBFFFF7FEBF07
:100D2000FFF7FEBFFFF7FEBFFFF7FEBFFFF7FEBFF7
:100D3000FFF7FEBFFFF7FEBFFFF7FEBFFFF7FEBFE7
:100D4000FFF7FEBFFFF7FEBFFFF7FEBFFFF7FEBFD7
:100D5000FFF7FEBFFFF7FEBFFFF7FEBFFFF7FEBFC7
:100D60000204010158000020A800002058000020C3
:100D700058000020580000203D00002024000020E2
:100D80000000000000000000000000000000000063
:100D90000000000000000000000000000000000053
:100DA0000000000001020304010203040607080911
:080DB0000204060800A24A0437
:0400000508000C855E
:00000001FF
