:020000040800F2
:10000000A8040020750F0008610F0008630F0008A6
:10001000650F0008670F0008690F00080000000066
:100020000000000000000000000000006B0F00084E
:100030006D0F0008000000006F0F0008710F00082E
:10004000B50F0008B90F0008BD0F0008C10F000868
:10005000C50F0008C90F0008CD0F0008D10F000818
:10006000D50F0008D90F0008DD0F0008E10F0008C8
:10007000E50F0008E90F0008ED0F0008F10F000878
:10008000F50F0008F90F0008FD0F00080110000827
:1000900005100008091000080D10000811100008D4
:1000A00015100008191000081D1000082110000884
:1000B000110A0008291000082D100008311000084E
:1000C00035100008391000083D10000841100008E4
:1000D00045100008491000084D1000085110000894
:1000E00055100008591000085D10000880B5DFF8B1
:1000F000001388420AD101214FF4006000F018FA81
:1001000000214FF4006000F013FADDE0B0F1804F01
:1001100008D10121012000F01BFA0021012000F08C
:1001200017FAD1E0DFF8CC12884208D10121022071
:1001300000F00EFA0021022000F00AFAC4E0DFF815
:10014000B812884208D10121042000F001FA0021F0
:10015000042000F0FDF9B7E0DFF8A012884208D1D2
:100160000121082000F0F4F90021082000F0F0F946
:10017000AAE0DFF88C12884208D10121102000F09B
:10018000E7F90021102000F0E3F99DE0DFF8741298
:10019000884208D10121202000F0DAF90021202036
:1001A00000F0D6F990E0DFF8601288420AD1012110
:1001B0004FF4005000F0BCF900214FF4005000F063
:1001C000B7F981E0DFF8441288420AD101215FF4D7
:1001D000002000F0ADF900215FF4002000F0A8F944
:1001E00072E0DFF82C1288420AD101215FF48010FE
:1001F00000F09EF900215FF4801000F099F963E0AF
:10020000DFF8101288420AD101215FF4001000F0DB
:100210008FF900215FF4001000F08AF954E0DFF854
:10022000F811884208D10121402000F091F9002105
:10023000402000F08DF947E0DFF8E011884208D156
:100240000121802000F084F90021802000F080F955
:100250003AE0DFF8CC1188420AD101214FF48070D6
:1002600000F076F900214FF4807000F071F92BE076
:10027000DFF8B01188420AD101215FF4803000F02C
:1002800057F900215FF4803000F052F91CE0DFF8EC
:10029000981188420AD101215FF4003000F048F93A
:1002A00000215FF4003000F043F90DE0DFF87C112D
:1002B000884209D101215FF4802000F039F9002142
:1002C0005FF4802000F034F901BD00220288DFF8DD
:1002D0002031984212D0DFF8303198420ED0B0F180
:1002E000804F0BD0DFF80C31984207D0DFF808318F
:1002F000984203D0DFF80431984204D14FF68F734F
:100300001A404B881A43DFF8F830984208D0DFF8DB
:10031000F430984204D04FF6FF431A40CB881A437A
:1003200002808A8882850A880285DFF8C42090428C
:100330000FD0DFF8D42090420BD0DFF8E8209042B5
:1003400007D0DFF8E420904203D0DFF8E0209042AD
:1003500001D1097A0186012181827047C9B2002941
:1003600004D0018851F00101018004E001884FF6BA
:10037000FE72114001807047D2B2002A03D08289F8
:100380001143818103E0828932EA01018181704752
:1003900001894FF6F872114001817047C9B20029F6
:1003A00004D0018851F08001018004E001884FF6FB
:1003B0007F7211400180704789B2C9430182704742
:1003C000002200220023028A0A40808911EA0003E9
:1003D00092B2002A04D09BB2002B01D0012200E08F
:1003E00000221000C0B2704789B2C9430182704731
:1003F000002C01400004004000080040000C0040B8
:10040000001000400014004000340140004C014046
:10041000005001400054014000180040001C004002
:1004200000200040004001400044014000480140DD
:1004300000210021002200214D49096811F00C0122
:10044000002904D0042905D0082906D021E0494913
:10045000016020E0474901601DE04549096811F449
:100460007011434A126812F48032890C891C002AE8
:1004700003D1414A514301600AE03D4A12689203A8
:1004800003D53D4A5143016002E03A4A51430160BD
:1004900001E0384901603649096811F0F0010909A5
:1004A000364A895C02681300CB40436030490968D2
:1004B00011F4E061090A314A895C42681300CB40BB
:1004C00083602B49096811F46051C90A2B4A895C81
:1004D00042681300CB40C3602549096811F44041CC
:1004E000890B274A895CC268B2FBF1F10161704750
:1004F000C9B2002905D02349096808432149086089
:1005000005E02049096831EA00001E49086070478B
:10051000C9B2002905D01C49096808431A49086076
:1005200005E01949096831EA000017490860704779
:10053000C9B2002905D01549096808431349086064
:1005400005E01249096831EA000010490860704767
:10055000C9B2002905D00E49096808430C49086052
:1005600005E00B49096831EA000009490860704755
:100570000410024000127A0000093D0040000020F3
:1005800050000020181002401C1002400C100240C5
:100590001010024080B54F48006850F001004D49EE
:1005A00008604D4800684D4908404B49086049487B
:1005B00000684B490840474908604648006830F4E5
:1005C0008020444908604448006830F4FE004249F5
:1005D00008605FF41F004349086000F005F85FF011
:1005E00000604149086001BD80B500F001F801BD1F
:1005F00082B000200190002000903648006850F43E
:100600008030344908603348006810F400300090AE
:100610000198401C01900098002803D10198B0F582
:10062000A06FF0D12B480068800302D50120009014
:1006300001E0002000900098012847D12B48006875
:1006400050F01000294908602848006880088000A0
:10065000264908602548006850F0020023490860D8
:100660001D4800681C4908601B4800681A4908605A
:100670001948006850F480601749086016480068FF
:1006800030F47C10144908601348006850F4E810F6
:10069000114908600F48006850F080700D490860EB
:1006A0000C4800688001FBD50B480068800880007A
:1006B000094908600848006850F0020006490860CF
:1006C0000548006810F00C000828F9D102B0704706
:1006D0000000000000100240041002400000FFF87B
:1006E000FFFFF6FE0810024008ED00E00020024087
:1006F00070B504461E000846154604D015F8011BC7
:10070000A047761EFAD170BD2DE9F04784B082462D
:10071000894614461F460DF1000807E001232246D2
:1007200049465046FFF7E4FF8146641C207810B923
:1007300004B0BDE8F0872528F0D16078A41C2528F6
:10074000014618D058285CD063280ED0642818BF02
:10075000692814D06F2854D0702858D073285DD0E1
:10076000752818BF78284CD0E0E73868386050F812
:10077000041B3860C9B24846D0478146D6E738687E
:10078000386050F8045B3860002D03D52D214846B1
:10079000D047814664206F2808BF082205D040F06A
:1007A0002001782914BF0A2210220B216428AC46AC
:1007B00003D1002D48BFCCF1000CBCFBF2F502FBCD
:1007C00015CC0CF1300C5FFA8CFC4B1EBCF13A0FCF
:1007D000A4BFA0F1510EF44403F808C019465FEA23
:1007E000050C01D00129E8DA00A80D184846D1F11E
:1007F0000B09C2D015F8011BD047B9F10109F9D195
:10080000BBE73968396051F8045B3960C3E7386881
:10081000386050F8045B38607820BCE7386838608E
:1008200050F8045B3860284600F00AF80600484695
:10083000A3D015F8011BD047761EFAD19DE7000022
:1008400000F10103810704D010F8011B89B1810771
:10085000FAD10268B2F10131914311F0803F04BF37
:1008600050F8042FF6E710F8011B11B110F8011B26
:10087000FBE7C01A7047000070B586B004000D0099
:1008800000200020002100210026A8890028260041
:10089000208A4CF6FF710840E98808432082A0892D
:1008A0004EF6F3110840A9882A8911436A89114339
:1008B0000843A081A08A4FF6FF410840A989084358
:1008C000A08200A8FFF7B4FD1A48864201D1039820
:1008D00000E00298A189090406D519214843296836
:1008E0004900B0FBF1F105E019214843296889006E
:1008F000B0FBF1F16420B1FBF0F0000102096423C8
:1009000003FB1211A289120408D5C90032316422F6
:10091000B1FBF2F111F00701084307E009013231A0
:100920006422B1FBF2F111F00F010843208106B0FF
:1009300070BD000000380140C9B2002904D081898F
:1009400051F40051818104E081894DF6FF7211401C
:1009500081817047C905C90D81807047002289B225
:10096000B1F5007F0088084201D0012200E000229A
:100970001000C0B27047000080B54FF4E06000F096
:1009800075F81C208DF8000000208DF80100012072
:100990008DF8020001208DF8030000A800F06BF82C
:1009A00001BDE0B501210120FFF7B2FD5FF08040FD
:1009B000FFF79CFB5FF08040FFF7EAFC4FF47A7092
:1009C000ADF804004720ADF800000020ADF80600A7
:1009D0000020ADF8020000A95FF08040FFF775FC31
:1009E00001215FF08040FFF7E7FC00215FF08040CD
:1009F000FFF7D4FC012201215FF08040FFF7BCFC2F
:100A000001215FF08040FFF7A9FCFFF7B5FF07BDAC
:100A100080B501215FF08040FFF7D2FC002819D09B
:100A200001215FF08040FFF7DFFC0E480088401C8A
:100A30000C4908800C480088401E0B490880094872
:100A40000088B0F5FA7F05D1032000F081F800207E
:100A50000449088001BD0449088003480088002833
:100A6000FBD17047A6000020A40000201C490843C9
:100A70001C490860704710B4002200230F24C1787D
:100A8000002920D01749096811F4E061D1F5E0612F
:100A90000A0AD2F1040321000C00D440417811FA73
:100AA00003F2817821400A4312010F4903785A5416
:100AB0000121027812F01F0291400C4A0078401187
:100AC00042F8201009E00121027812F01F02914043
:100AD000074A0078401142F8201010BC704700000F
:100AE0000000FA050CED00E000E400E000E100E0A9
:100AF00080E100E080B501211820FFF7F9FC4FF4F8
:100B00000050ADF8000010208DF8030003208DF890
:100B1000020000A91C4800F03FF80120ADF80000D9
:100B200010208DF8030003208DF8020000A917485B
:100B300000F032F80220ADF8000010208DF803001C
:100B400003208DF8020000A9104800F025F801BD2F
:100B5000C0B2012806D10E48006890F400500C493C
:100B600008600FE0C0B2022806D10A48006890F081
:100B700001000849086005E00648006890F002009E
:100B8000044908607047000000100140000C01405B
:100B90000C1001400C0C014070B400220025002311
:100BA000002600240025CA7812F00F02CB78DB065D
:100BB00001D58B781A430B781B0621D004680023DB
:100BC00006E0CD78482D02D101259D4005615B1CD2
:100BD000082B14D2012515FA03F60D883540B542CD
:100BE000F5D19E000F25B540AC4312FA06F52C4313
:100BF000CD78282DE5D101259D404561E7E70460CA
:100C00000B88FF2B26DD4468002320E0012513F12B
:100C1000080615FA06F60D883540B54216D19E0035
:100C20000F25B540AC4312FA06F52C43CD78282D9C
:100C300004D1012513F10806B5404561CD78482D52
:100C400004D1012513F10806B54005615B1C082B92
:100C5000DCD3446070BC704700B585B0012144F21C
:100C60000400FFF745FC4FF40070ADF800001820B9
:100C70008DF8030003208DF8020000A91E48FFF73D
:100C80008BFF4FF48060ADF8000004208DF8030066
:100C900003208DF8020000A91748FFF77DFF4FF4ED
:100CA000165001900020ADF808000020ADF80A00B1
:100CB0000020ADF80C000020ADF810000C20ADF8BD
:100CC0000E0001A90D48FFF7D7FD01210B48FFF7E2
:100CD00033FE05B000BD10B504002100C9B289B2D1
:100CE0000648FFF737FE40210448FFF737FE00288B
:100CF000F9D0200010BD000000080140003801407C
:100D000080B5FFF7F7FEFFF74CFEFFF7A5FF0D4894
:100D100000F01EF80C4800F01BF80C4800F018F822
:100D2000094800F015F8074800F012F80120FFF715
:100D30000FFF0220FFF70CFF4FF47A70FFF78BFED6
:100D4000F4E700BF740D0008B80D0008FC0D0008A2
:100D50000EB400B582B003A90091024600AB012198
:100D6000034878440A30FFF7CFFC06BC5DF810FB5F
:100D7000CD0100002A2A2A2A2A2A2A2A2A2A2A2AAD
:100D80002A2A2A2A2A2A2A2A2A2A2A2A2A2A2A2AC3
:100D90002A2A2A2A2A2A2A2A2A2A2A2A2A2A2A2AB3
:100DA0002A2A2A2A2A2A2A2A2A2A2A2A2A2A2A2AA3
:100DB0002A2A2A2A2A0D0A002A2020202020202040
:100DC0002020202020202020202020202020202023
:100DD0002020202020202020202020202020202013
:100DE0002020202020202020202020202020202003
:100DF00020202020202020202A0D0A002A202054F4
:100E000068616E6B20796F7520666F7220757369EB
:100E10006E672054686520446576656C6F706D65FB
:100E20006E7420426F617264204F66205975616E46
:100E3000446920202021205E5F5E20202A0D0A00C8
:100E400019E050F8041BCB0744BFA9F1010359185E
:100E5000121F0023042A41F8043BF9D25FEA827C86
:100E60000B4604D54FF0000CA1F800C09B1CD10725
:100E700044BF0021197050F8042B002AE1D17047BB
:100E800010B450F8041B79B1026843681218083096
:100E9000DC0744BFA9F10104E31852F8044B43F8FE
:100EA000044B091FF9D1ECE710BC704710B5074996
:100EB00079441831064C7C44163404E00A68081D55
:100EC000511888470146A142F8D110BD0800000022
:100ED000280000006DFFFFFF5400000054000020B8
:100EE000000000009DFFFFFF54000000740100009F
:100EF000000000200000000000F00BF8002801D0E6
:100F0000FFF7D4FF0020C046C046FFF7F9FE00F00F
:100F100002F80120704700F001B80000074638468B
:100F200000F002F8FBE7000080B5C046C046024A68
:100F300011001820ABBEFBE72600020038B50446BE
:100F40000D46284600F006F8A84218BF00242046A7
:100F500032BD00000149FFF7BEBE00BF0000002007
:100F60007047FEE7FEE7FEE7FEE770477047704711
:100F70007047000001488047014800479505000878
:100F8000850F0008C046C046C046C046FFF7B4FF04
:100F9000FFF7E6BFFFF7E5BFFFF7E4BFFFF7E3BFEB
:100FA000FFF7E2BFFFF7E1BFFFF7E0BFFFF7DFBFEB
:100FB000FFF7DEBFFFF7FEBFFFF7FEBFFFF7FEBF85
:100FC000FFF7FEBFFFF7FEBFFFF7FEBFFFF7FEBF55
:100FD000FFF7FEBFFFF7FEBFFFF7FEBFFFF7FEBF45
:100FE000FFF7FEBFFFF7FEBFFFF7FEBFFFF7FEBF35
:100FF000FFF7FEBFFFF7FEBFFFF7FEBFFFF7FEBF25
:10100000FFF7FEBFFFF7FEBFFFF7FEBFFFF7FEBF14
:10101000FFF7FEBFFFF7FEBFFFF7FEBFFFF7FEBF04
:10102000FFF7FEBFFFF7F4BCFFF7FEBFFFF7FEBF01
:10103000FFF7FEBFFFF7FEBFFFF7FEBFFFF7FEBFE4
:10104000FFF7FEBFFFF7FEBFFFF7FEBFFFF7FEBFD4
:10105000FFF7FEBFFFF7FEBFFFF7FEBFFFF7FEBFC4
:101060000204010154000020A400002054000020CC
:1010700054000020540000203D00002024000020E7
:101080000000000000000000000000000000000060
:101090000000000000000000000000000000000050
:1010A000000000000102030401020304060708090E
:0410B0000204060828
:0400000508000F855B
:00000001FF
