:020000040800F2
:10000000B8040020B10F0008BD0D0008BF0D0008A6
:10001000C10D0008C30D0008C50D00080000000058
:10002000000000000000000000000000C70D0008F4
:10003000C90D000800000000CB0D0008CD0D000820
:10004000F10F0008F50F0008F90F0008FD0F000878
:100050000110000805100008091000080D10000824
:100060001110000815100008191000081D100008D4
:100070002110000825100008291000082D10000884
:100080003110000835100008391000083D10000834
:100090004110000845100008491000084D100008E4
:1000A0005110000855100008591000085D10000894
:1000B0006110000865100008691000086D10000844
:1000C0007110000875100008791000087D100008F4
:1000D0008110000885100008891000088D100008A4
:1000E00091100008951000089910000880B5DFF8FD
:1000F0009C1288420AD101215FF0007000F0D4F90F
:1001000000215FF0007000F0CFF909E001215FF0FD
:10011000806000F0C9F900215FF0806000F0C4F950
:1001200001BD10B400220023046834F0020404600E
:10013000046854F00104046000E05B1C4268D207CC
:1001400003D44FF6FF729342F7D14268D20701D42D
:1001500000226AE08A79012A04D1026852F0800202
:10016000026003E0026832F080020260CA79012A6C
:1001700004D1026852F04002026003E0026832F0EB
:10018000400202600A7A012A04D1026852F0200279
:10019000026003E0026832F0200202604A7A012A1B
:1001A00004D1026852F01002026003E0026832F0EB
:1001B000100202608A7A012A04D1026852F0080211
:1001C000026003E0026832F008020260CA7A012A83
:1001D00004D1026852F00402026003E0026832F0C7
:1001E000040202608A78CB781B0653EA82720B798C
:1001F00052EA03424B7952EA03520988491E1143DD
:10020000C1610168490849000160002300E05B1CEE
:100210004168C90703D54FF6FF718B42F7D140689B
:10022000C00701D5002200E001221000C0B210BCBE
:10023000704710B400210122837A9A401100DFF840
:100240005021126852F00102DFF844311A60DFF8E1
:10025000442112688A43DFF83C311A60027B002A8D
:1002600019D1DFF8342112688A43DFF82C311A6083
:10027000C288438853EA0242DFF82031847A43F887
:100280003420DFF81821837A12EBC30283880488B4
:1002900054EA03435360027B012A19D1DFF8F820A6
:1002A00012680A43DFF8F0301A600288438853EA84
:1002B0000242DFF8E830847A43F83420DFF8DC20AB
:1002C000837A12EBC3028388C48854EA03435360E1
:1002D000C27A002A07D1DFF8C82012688A43DFF803
:1002E000C0301A6006E0DFF8B82012680A43DFF871
:1002F000B0301A600289002A06D1DFF8A8201268FF
:100300008A43DFF8A0301A600289012A06D1DFF89B
:10031000942012680A43DFF88C301A60407B012871
:1003200006D1DFF8700000680843DFF86810086045
:10033000DFF85C00006840084000DFF854100860F7
:1003400010BC7047002181710021C1710021017230
:1003500000214172002181720021C172002181704F
:100360000021C1700321017102214171012101802D
:100370007047D2B2002A03D042691143416103E0C1
:10038000426932EA010141617047000000640040A7
:10039000006600401C6600400C660040406600405D
:1003A000046600401466004030B40022002100239F
:1003B0000024454D2D6815F00C052A00002A04D0B4
:1003C000042A05D0082A06D021E04049016020E037
:1003D0003E4901601DE03C49096811F470113A4A38
:1003E000126812F48033890C891C002B03D1384A1F
:1003F000514301600AE0344A1268920303D5344A3B
:100400005143016002E0314A5143016001E02F494C
:1004100001602D49096811F0F00212092D49545C60
:100420000168E14041602849096811F4E062120A5C
:100430002849545C4168E14081602349096811F40E
:100440006052D20A2349545C4168E140C1601E49B0
:10045000096811F44042920B1F49545CC168B1FB1A
:10046000F4F1016130BC7047C9B2002905D01B49C5
:10047000096808431949086005E01849096831EA24
:100480000000164908607047C9B2002905D0144918
:10049000096808431249086005E01149096831EA12
:1004A00000000F4908607047C9B2002905D00D4906
:1004B000096808430B49086005E00A49096831EA00
:1004C00000000849086070470410024000127A00DA
:1004D00000093D004000002050000020181002409C
:1004E0001C1002401010024080B54F48006850F0C8
:1004F00001004D4908604D4800684D4908404B498E
:100500000860494800684B49084047490860464828
:10051000006830F48020444908604448006830F4A2
:10052000FE00424908605FF41F004349086000F084
:1005300005F85FF000604149086001BD80B500F03A
:1005400001F801BD82B000200190002000903648E3
:10055000006850F48030344908603348006810F473
:10056000003000900198401C01900098002803D1B1
:100570000198B0F5A06FF0D12B480068800302D538
:100580000120009001E0002000900098012847D150
:100590002B48006850F0100029490860284800687E
:1005A00080088000264908602548006850F0020055
:1005B000234908601D4800681C4908601B48006802
:1005C0001A4908601948006850F4806017490860AB
:1005D0001648006830F47C1014490860134800681D
:1005E00050F4E810114908600F48006850F080701E
:1005F0000D4908600C4800688001FBD50B48006875
:1006000080088000094908600848006850F002002E
:10061000064908600548006810F00C000828F9D168
:1006200002B07047000000000010024004100240B9
:100630000000FFF8FFFFF6FE0810024008ED00E0A2
:1006400000200240F0B400220026002400250023F0
:10065000002791F803C01CF00F0C624691F803C00C
:100660005FEACC6C01D58B781A430B781B0621D03E
:100670000368002406E0CD78482D02D10125A5406D
:100680000561641C082C14D20125A5400E882E405B
:10069000AE42F6D1A5000F2616FA05F7BB4312FAB3
:1006A00005F52B43CD78282DE5D10125A5404561E1
:1006B000E7E703600B88FF2B26DD4368002420E07A
:1006C000012514F10806B5400E882E40AE4217D120
:1006D000A5000F2616FA05F7BB4312FA05F52B43C2
:1006E000CD78282D04D1012514F10806B5404561C7
:1006F000CD78482D04D1012514F10806B5400561D7
:10070000641C082CDCD34360F0BC704770B400223A
:10071000002400230025002802D51C4A136801E0AC
:100720001B4A1368C0F3034582B210F44014B4F5B9
:10073000401F08D133F07063154C246834F07064A6
:10074000134D2C600FE0C40205D50324AC40A34335
:1007500053F0706307E0440DE4B2240112FA04F48C
:10076000A34353F07063C9B2002905D0410DC9B24B
:10077000090112FA01F10B43002802D50348036076
:1007800001E00348036070BC704700001C0001409A
:100790000400014070B50446084615461E0004D00A
:1007A00015F8011BA047761EFAD170BD2DE9F04760
:1007B00084B08246894614461F460DF1000807E0C2
:1007C0000123224649465046FFF7E4FF8146641C58
:1007D000207810B904B0BDE8F0872528F0D1641C5A
:1007E00014F8010B0146252818D058285CD063283E
:1007F0000ED0642818BF692814D06F2854D07028F0
:1008000058D073285DD0752818BF78284CD0DFE702
:100810003868386050F8041B3860C9B24846D04781
:100820008146D5E73868386050F8045B3860002DA1
:1008300003D52D214846D047814664206F2808BF44
:10084000082205D040F02001782914BF0A22102286
:100850000B21AC46642803D1002D48BFCCF1000C1D
:10086000BCFBF2F502FB15CC0CF130064B1E5FFA17
:1008700086FC1946BCF13A0FA4BFA0F1510EF44416
:1008800003F808C05FEA050C01D00129E8DA00A8E6
:100890000D184846D1F10B09C2D015F8011BD047FD
:1008A000B9F10109F9D1BBE73968396051F8045B46
:1008B0003960C3E73868386050F8045B38607820E6
:1008C000BCE73868386050F8045B3860284600F0B0
:1008D00009F806004846A3D015F8011BD047761E3C
:1008E000FAD19DE700F10103810704D010F8011B44
:1008F00089B18107FAD10268B2F10131914311F057
:10090000803F04BF50F8042FF6E710F8011B11B127
:1009100010F8011BFBE7C01A704710B450F8041B15
:1009200081B102681218001D50F8043BDC0744BF77
:10093000A9F10104E31852F8044B43F8044B091FD2
:10094000F9D1EBE710BC7047F0B585B004000D009D
:1009500000200021002200230026AF89002F26005E
:10096000208A4CF6FF710840E98808432082A0895C
:100970004EF6F3110840A9882A8911436A89114368
:100980000843A081A08A4FF6FF410840A989084387
:10099000A08200A8FFF708FD1B48864201D10399F9
:1009A00000E00299A089000407D5192000FB01F09E
:1009B00029684900B0FBF1F206E0192000FB01F0C4
:1009C00029688900B0FBF1F26420B2FBF0F000016D
:1009D0000109642303FB1123A189090408D5D90067
:1009E00032316422B1FBF2F111F00701084307E054
:1009F000190132316422B1FBF2F111F00F01084309
:100A0000208105B0F0BD000000380140C9B20029C6
:100A100004D0818951F40051818104E081894DF62F
:100A2000FF72114081817047C905C90D81807047EF
:100A3000002289B2B1F5007F0088084201D001226E
:100A400000E000221000C0B2704789B28A0589B266
:100A5000C9430180704750F8041B61B150F8042B62
:100A6000D30744BFA9F101039A18002342F8043BBD
:100A7000091FFAD1EFE7704780B501210920FFF780
:100A8000F3FC01215FF00070FFF7FEFC01215FF431
:100A9000EA10FFF73BFE4FF48070ADF80000032032
:100AA0008DF8020004208DF8030000A93148FFF7FB
:100AB000C9FD4FF40070ADF8000018208DF8030058
:100AC00000A92C48FFF7BEFD01BD10B588B0FFF7A7
:100AD000D3FF2948FFF70AFB00A8FFF733FC0020EB
:100AE0008DF8060000208DF8070000208DF8080022
:100AF00000208DF8090000208DF80A0001208DF8F3
:100B00000B0000208DF8020000208DF80300032068
:100B10008DF8040002208DF805002D20ADF80000AE
:100B200000A91548FFF7FDFA040000208DF8160013
:100B300000208DF8170001208DF818000020ADF876
:100B40000C000020ADF80E000020ADF810000020D1
:100B5000ADF812000020ADF8140001208DF8190046
:100B6000012202210448FFF704FC03A8FFF761FB00
:100B700008B010BD000C01400064004080B500F0DA
:100B80006DF8FFF7A2FF00F07FF800F0EDF82048C5
:100B900000F002F91F4800F0FFF81F4800F0FCF8D1
:100BA0001E4800F0F9F81E4801881E4800F0F4F8CD
:100BB0001D4801781D4800F0EFF81D4801781D48D8
:100BC00000F0EAF81C4801781C4800F0E5F81C48E1
:100BD00001781C4800F0E0F81B4801781B4800F041
:100BE000DBF81B4801781B4800F0D6F8D8E710B5B1
:100BF00004002100C9B289B21748FFF715FF402150
:100C00001548FFF715FF0028F9D0200010BD00009F
:100C10000C0E0008300F0008E00E00081C0F000842
:100C2000AC000020400F0008B0000020500F00086A
:100C3000B1000020600F0008B2000020700F000813
:100C4000B3000020800F0008B4000020900F0008BF
:100C5000B5000020A00F00080038014080B5012138
:100C60001020FFF701FC4FF40050ADF800001020F9
:100C70008DF8030003208DF8020000A90148FFF75A
:100C8000E1FC01BD0010014000B585B0012144F236
:100C90000400FFF7E9FB4FF40070ADF800001820E6
:100CA0008DF8030003208DF8020000A91848FFF713
:100CB000C9FC4FF48060ADF8000004208DF80300FB
:100CC00003208DF8020000A91148FFF7BBFC4FF488
:100CD000165001900020ADF808000020ADF80A0081
:100CE0000020ADF80C000020ADF810000C20ADF88D
:100CF0000E0001A90748FFF727FE40210548FFF72E
:100D0000A4FE01210348FFF781FE05B000BD0000ED
:100D1000000801400038014040B2002808D5090110
:100D2000174A40B210F00F00801800F8041C03E0CE
:100D30000901144A40B28154704780B5411EB1F197
:100D4000807F01D301200EE0401E0F4908600F2173
:100D50005FF0FF30FFF7E0FF00200C49086007203C
:100D60000B490860002002BD80B50A4800684FF4B6
:100D70007A71B0FBF1F0FFF7E0FF0028F5D101BD7B
:100D800018ED00E000E400E014E000E018E000E00E
:100D900010E000E0540000200EB400B582B003A9BA
:100DA0000091024600AB0121034878440A30FFF766
:100DB000FDFC06BC5DF810FB410100007047FEE73A
:100DC000FEE7FEE7FEE77047704770470C48006893
:100DD000411C0B4A1160B0F5FA7F07D30020084987
:100DE000086008480078C043064908700648008833
:100DF000002804D004480088401E0349088070473A
:100E0000A8000020B6000020AE0000202A202054B8
:100E100068616E6B20796F7520666F7220757369DB
:100E20006E672054686520446576656C6F706D65EB
:100E30006E7420426F617264204F66205975616E36
:100E4000446920202021205E5F5E20202A0D0A00B8
:100E500010B5074979441831064C7C44163404E037
:100E60000A68081D511888470146A142F8D110BDF3
:100E70000800000028000000DFFBFFFF600000000A
:100E8000580000200000000093FAFFFF5800000007
:100E90000C020000000000200000000000F00BF831
:100EA000002801D0FFF7D4FF0020C046C046FFF75E
:100EB00065FE00F002F80120704700F001B8000064
:100EC0000746384600F002F8FBE7000080B5C04650
:100ED000C046024A11001820ABBEFBE72600020004
:100EE00043414E2D42757320537065656420313047
:100EF000306B487A200D0A0038B504460D46284666
:100F000000F006F8A84218BF0024204632BD0000B9
:100F10000149FFF76CBE00BF0000002043414E2096
:100F2000526563656976652044617461200D0A002D
:100F300043414E2D4275732054657374200D0A0091
:100F400043414E204944202578200D0A000000002E
:100F500043414E5F4441544130202578200D0A0022
:100F600043414E5F4441544131202578200D0A0011
:100F700043414E5F4441544132202578200D0A0000
:100F800043414E5F4441544133202578200D0A00EF
:100F900043414E5F4441544134202578200D0A00DE
:100FA00043414E5F4441544135202578200D0A00CD
:100FB0000148804701480047E9040008C10F0008C4
:100FC000C046C046C046C046FFF768FFFFF7F6BE02
:100FD000FFF7F5BEFFF7F4BEFFF7F3BEFFF7F2BE73
:100FE000FFF7F1BEFFF7F0BEFFF7EFBEFFF7EEBE73
:100FF000FFF7FEBFFFF7FEBFFFF7FEBFFFF7FEBF25
:10100000FFF7FEBFFFF7FEBFFFF7FEBFFFF7FEBF14
:10101000FFF7FEBFFFF7FEBFFFF7FEBFFFF7FEBF04
:10102000FFF7FEBFFFF7FEBFFFF7FEBFFFF7FEBFF4
:10103000FFF7FEBFFFF7FEBFFFF7FEBFFFF7FEBFE4
:10104000FFF7FEBFFFF7FEBFFFF7FEBFFFF7FEBFD4
:10105000FFF7FEBFFFF7FEBFFFF7FEBFFFF7FEBFC4
:10106000FFF7FEBFFFF7FEBFFFF7FEBFFFF7FEBFB4
:10107000FFF7FEBFFFF7FEBFFFF7FEBFFFF7FEBFA4
:10108000FFF7FEBFFFF7FEBFFFF7FEBFFFF7FEBF94
:10109000FFF7FEBFFFF7FEBFFFF7FEBF020401012F
:1010A00058000020A8000020580000205800002010
:1010B000580000203D000020240000200000000017
:1010C0000000000000000000000000000000000020
:1010D0000000000000000000000000000000000010
:1010E00001020304010203040607080902040608BA
:0410F00000A24A040C
:0400000508000FC11F
:00000001FF
