:020000040800F2
:10000000C80600201D110008B50F0008B70F000832
:10001000B90F0008BB0F0008BD0F0008000000006A
:10002000000000000000000000000000BF0F0008FA
:10003000C10F000800000000C30F0008C50F000832
:100040005D110008611100086511000869110008C0
:100050006D11000871110008751100087911000870
:100060007D11000881110008851100088911000820
:100070008D110008911100089511000899110008D0
:100080009D110008A1110008A5110008A911000880
:10009000AD110008B1110008B5110008B911000830
:1000A000BD110008C1110008C5110008C9110008E0
:1000B000CD110008D1110008D5110008D911000890
:1000C000DD110008E1110008E5110008E911000840
:1000D000ED110008F1110008F5110008F9110008F0
:1000E000FD110008011200080512000880B5C0B219
:1000F00000F093FA02BD80B5382000F081FA01BD0E
:1001000080B5002000F07CFA01BD80B501210420FB
:1001100000F010FB0121102000F00CFB1C20ADF8BA
:10012000000010208DF8030003208DF8020000A9C4
:10013000DFF8400400F01AFB1C21DFF8380400F05F
:1001400079FB4FF48060ADF8000010208DF80300BB
:1001500003208DF8020000A9DFF81C0400F006FB64
:100160004FF48061DFF8100400F064FB00F008FA3F
:100170004FF48061DFF8000400F05CFB01BD80B546
:100180004FF48061DFF8F00300F054FBFF20FFF72D
:10019000ADFF01BD80B54FF48061DFF8DC0300F0F6
:1001A0004CFB00F008F8002801D1002002E0FFF726
:1001B000E6FF012002BD10B50024FF20FFF796FFE7
:1001C000FF2801D1002005E0641C7FF07F408442BD
:1001D000F3D3012010BD38B5040040F6FF7500E0F0
:1001E0006D1EFF20FFF782FFE4B2A04202D0ADB245
:1001F000002DF5D1ADB2002D01D1FF2000E000208F
:1002000032BD38B504000D00FE20FFF7E4FF0028E2
:1002100006D0012010E0FF2000F0FFF92070641CE0
:100220002800451E80B20028F5D1FF20FFF75EFFB1
:10023000FF20FFF75BFF002032BDF8B504000D0082
:1002400016000027FFF79BFFFFF7A4FF002801D04F
:10025000FF202AE054F04000C0B2FFF747FF280E0D
:10026000C0B2FFF743FF280CC0B2FFF73FFF280AD8
:10027000C0B2FFF73BFF2800C0B2FFF737FF3000E6
:10028000C0B2FFF733FFE4B20C2C02D1FF20FFF71E
:100290002DFF1F27FF20FFF729FF010604D5390096
:1002A0004F1EC9B20029F5D1C0B2F2BD38B5040065
:1002B000012200210920FFF7C0FF0500EDB2002D4B
:1002C00004D110212000FFF79CFF0500FFF757FF26
:1002D000EDB2002D01D0012000E0002032BD00B5BC
:1002E00085B000A8FFF7E2FF002801D0002033E02E
:1002F0009DF8000010F0C000402809D19DF80900C9
:100300009DF8081010EB0120411C89B2880223E0FF
:100310009DF8050010F00F009DF80A10C9B210EB0F
:10032000D1109DF8091011F0030110EB4100801C61
:100330009DF80810C9B28909C9B29DF8072011EBD0
:1003400082019DF8062012F0030211EB8221491C64
:1003500089B2093811FA00F005B000BD38B5FFF7D1
:10036000D4FEFFF7C8FE002503E0FF20FFF7BEFE26
:100370006D1CADB20A2DF8DB14259522002100205A
:10038000FFF75BFF0400E4B2012C04D02800451EF7
:1003900080B20028F1D1002078490870E4B2012C25
:1003A00040F09E8087224FF4D5710820FFF745FF6B
:1003B00001284DD1002506E0FF20FFF797FE00A998
:1003C000ADB268546D1CADB2042DF5DB9DF8020092
:1003D000012840F085809DF80300AA2840F0808025
:1003E0004FF6FE75012200213720FFF726FF01227C
:1003F0005FF080412920FFF720FF0400E4B2002CC9
:1004000004D02800451E80B20028EBD1ADB2002DEB
:1004100066D0012200213A20FFF70FFF00285FD1AC
:10042000002506E0FF20FFF761FE00A9ADB2685489
:100430006D1CADB2042DF5DB9DF80000400603D520
:1004400006204E4908704BE004204C49087047E0F4
:10045000012200213720FFF7F0FE01220021292090
:10046000FFF7EBFE0400E4B2022C18DA0220434945
:1004700008704FF6FE75012200213720FFF7DDFEE0
:10048000012200212920FFF7D8FE0400E4B2002C4D
:1004900018D02800451E80B20028ECD112E00120BF
:1004A000364908704FF6FE75012200210120FFF742
:1004B000C4FE0400E4B2002C04D02800451E80B223
:1004C0000028F1D1ADB2002D07D001224FF4007108
:1004D0001020FFF7B2FE002802D000202749087044
:1004E000FFF74DFEFFF70CFE24480078002801D0EE
:1004F000002006E0E4B2002C02D02000C0B200E0F0
:10050000AA2032BD70B5040015001C4800780628EA
:1005100000D04902EDB2012D0ED101221120FFF7CA
:100520008CFE0600F6B2002E1FD14FF400712000A1
:10053000FFF767FE060018E001221220FFF77DFE9C
:1005400006004FF400712000FFF75BFE060014F573
:1005500000746D1EEDB2002D02D0F6B2002EF0D068
:10056000012200210C20FFF768FEFFF708FE300093
:10057000C0B270BD0008014000100140C60200205A
:1005800080B5012141F2040000F0D4F8E020ADF87C
:10059000000018208DF8030003208DF8020000A948
:1005A000314800F0E3F8E0212F4800F043F9002043
:1005B0002E4908804FF482702C49488000202B4936
:1005C000888002202949C8800120284908814FF4E9
:1005D0000070264948813820244988810020234919
:1005E000C8810720214908822049214800F028F9C4
:1005F00001211F4800F044F9FF2000F00EF801BD72
:1006000080B5C0B2194988811849194800F018F915
:100610000121174800F034F901BD38B50400002568
:100620000221134800F03EF9002805D16D1CEDB2FF
:10063000C92DF5DB002016E0E4B2210089B20C4898
:1006400000F02CF900250121094800F02BF90028C1
:10065000F9D06D1CEDB2C92D01DB002003E0044888
:1006600000F01EF9C0B232BD00080140A80200200F
:100670000030014030B40022002100230024354D19
:100680002D6815F00C052A00002A04D0042A05D094
:10069000082A06D021E03049016020E02E4901609F
:1006A0001DE02C49096811F470112A4A126812F4ED
:1006B0008033890C891C002B03D1284A51430160E7
:1006C0000AE0244A1268920303D5244A5143016088
:1006D00002E0214A5143016001E01F4901601D49C8
:1006E000096811F0F00212091D49545C0168E140EB
:1006F00041601849096811F4E062120A1849545C13
:100700004168E14081601349096811F46052D20ADE
:100710001349545C4168E140C1600E49096811F415
:100720004042920B0F49545CC168B1FBF4F1016186
:1007300030BC7047C9B2002905D00B49096808438D
:100740000949086005E00849096831EA00000649DE
:10075000086070470410024000127A0000093D0052
:10076000400000205000002018100240F0B4002289
:100770000026002400250023002791F803C01CF068
:100780000F0C624691F803C05FEACC6C01D58B7800
:100790001A430B781B0621D00368002406E0CD78AD
:1007A000482D02D10125A5400561641C082C14D2F6
:1007B0000125A5400E882E40AE42F6D1A5000F2699
:1007C00016FA05F7BB4312FA05F52B43CD78282D11
:1007D000E5D10125A5404561E7E703600B88FF2BC4
:1007E00026DD4368002420E0012514F10806B54009
:1007F0000E882E40AE4217D1A5000F2616FA05F737
:10080000BB4312FA05F52B43CD78282D04D10125E1
:1008100014F10806B5404561CD78482D04D1012575
:1008200014F10806B5400561641C082CDCD3436054
:10083000F0BC704789B20161704789B2416170476D
:1008400010B4002203881A0012F441520B884C881D
:1008500023438C882343CC8823430C8923434C892E
:1008600023438C892343CC8923431A430280828B00
:100870004FF2FF731A408283098A018210BC7047CD
:10088000C9B2002904D0018851F04001018004E080
:1008900001884FF6BF721140018070478181704717
:1008A0008089704700220089084201D0012200E0BF
:1008B00000221000C0B2704780B54F48006850F069
:1008C00001004D4908604D4800684D4908404B49BA
:1008D0000860494800684B49084047490860464855
:1008E000006830F48020444908604448006830F4CF
:1008F000FE00424908605FF41F004349086000F0B1
:1009000005F85FF000604149086001BD80B500F066
:1009100001F801BD82B0002001900020009036480F
:10092000006850F48030344908603348006810F49F
:10093000003000900198401C01900098002803D1DD
:100940000198B0F5A06FF0D12B480068800302D564
:100950000120009001E0002000900098012847D17C
:100960002B48006850F010002949086028480068AA
:1009700080088000264908602548006850F0020081
:10098000234908601D4800681C4908601B4800682E
:100990001A4908601948006850F4806017490860D7
:1009A0001648006830F47C10144908601348006849
:1009B00050F4E810114908600F48006850F080704A
:1009C0000D4908600C4800688001FBD50B480068A1
:1009D00080088000094908600848006850F002005B
:1009E000064908600548006810F00C000828F9D195
:1009F00002B07047000000000010024004100240E6
:100A00000000FFF8FFFFF6FE0810024008ED00E0CE
:100A10000020024070B50446084615461E0004D06A
:100A200015F8011BA047761EFAD170BD2DE9F047DD
:100A300084B08246894614461F460DF1000807E03F
:100A40000123224649465046FFF7E4FF8146641CD5
:100A5000207810B904B0BDE8F0872528F0D1641CD7
:100A600014F8010B0146252818D058285CD06328BB
:100A70000ED0642818BF692814D06F2854D070286D
:100A800058D073285DD0752818BF78284CD0DFE780
:100A90003868386050F8041B3860C9B24846D047FF
:100AA0008146D5E73868386050F8045B3860002D1F
:100AB00003D52D214846D047814664206F2808BFC2
:100AC000082205D040F02001782914BF0A22102204
:100AD0000B21AC46642803D1002D48BFCCF1000C9B
:100AE000BCFBF2F502FB15CC0CF130064B1E5FFA95
:100AF00086FC1946BCF13A0FA4BFA0F1510EF44494
:100B000003F808C05FEA050C01D00129E8DA00A863
:100B10000D184846D1F10B09C2D015F8011BD0477A
:100B2000B9F10109F9D1BBE73968396051F8045BC3
:100B30003960C3E73868386050F8045B3860782063
:100B4000BCE73868386050F8045B3860284600F02D
:100B500009F806004846A3D015F8011BD047761EB9
:100B6000FAD19DE700F10103810704D010F8011BC1
:100B700089B18107FAD10268B2F10131914311F0D4
:100B8000803F04BF50F8042FF6E710F8011B11B1A5
:100B900010F8011BFBE7C01A704710B450F8041B93
:100BA00081B102681218001D50F8043BDC0744BFF5
:100BB000A9F10104E31852F8044B43F8044B091F50
:100BC000F9D1EBE710BC704770B50025002600F0A6
:100BD000BFF800F0DFF800F0FBF805E0F6B2F643EE
:100BE00001213E48FFF729FEFFF7B8FB002817D088
:100BF0003B4800F035F94FF4FA7000F0B5F8394889
:100C000000F02EF94FF4FA7000F0AEF8F6B2002EB4
:100C1000E4D1F6B2F64301213048FFF70BFEE3E7DB
:100C2000FFF75DFB040021002F4800F019F907E0F1
:100C3000F6B2F64302212948FFF7FCFD00F02AF83E
:100C4000EDB21E2D18D1012200212848FFF75AFCD1
:100C5000002810D1264800F003F9002405E02348BD
:100C6000215C1DA000F0FCF8641CB4F5007FF6D3F5
:100C7000204800F0F5F800256D1CC82000F074F83D
:100C8000F6B2002ED4D0F6B2F64302211348FFF795
:100C9000D4FDD3E780B518480078002805D04FF47C
:100CA00000510E48FFF7C9FD04E04FF400510B4816
:100CB000FFF7C0FD01BD10B504002100C9B289B223
:100CC0000E4800F04FF940210C4800F04FF9002881
:100CD000F9D0200010BD0000257820000010014050
:100CE000DC100008EC100008C810000858000020B4
:100CF000FC1000080C110008C70200200038014059
:100D000040B2002808D509011B4A40B210F00F007C
:100D1000801800F8041C03E00901184A40B281540D
:100D2000704780B5411EB1F1807F01D301200EE0F4
:100D3000401E134908600F215FF0FF30FFF7E0FF0E
:100D400000201049086007200F490860002002BDFC
:100D500080B50E4800684FF47A71B0FBF1F0FFF7F0
:100D6000E0FF0028F5D101BD094908800848008846
:100D70000028FBD17047000018ED00E000E400E01F
:100D800014E000E018E000E010E000E05400002073
:100D9000C402002080B501211020FFF7CBFC42F2F5
:100DA0000300ADF8000010208DF8030003208DF83B
:100DB000020000A90548FFF7D9FC01210348FFF70D
:100DC00039FD02210148FFF735FD01BD001001404A
:100DD00000B585B0012144F20400FFF7ABFC4FF4ED
:100DE0000070ADF8000018208DF8030003208DF886
:100DF000020000A91848FFF7B9FC4FF48060ADF875
:100E0000000004208DF8030003208DF8020000A9E3
:100E10001148FFF7ABFC4FF4165001900020ADF8DD
:100E200008000020ADF80A000020ADF80C000020FA
:100E3000ADF810000C20ADF80E0001A9074800F035
:100E400021F84021054800F09EF80121034800F0F8
:100E50007BF805B000BD00BF00080140003801402C
:100E60000EB400B582B003A90091024600AB012187
:100E7000034878440A30FFF7D9FD06BC5DF810FB43
:100E800025020000F0B585B004000D00002000210F
:100E9000002200230026AF89002F2600208A4CF66E
:100EA000FF710840E98808432082A0894EF6F311BB
:100EB0000840A9882A8911436A8911430843A081FF
:100EC000A08A4FF6FF410840A9890843A08200A8E4
:100ED000FFF7D0FB1B48864201D1039900E002993D
:100EE000A089000407D5192000FB01F029684900FA
:100EF000B0FBF1F206E0192000FB01F0296889003F
:100F0000B0FBF1F26420B2FBF0F0000101096423B0
:100F100003FB1123A189090408D5D90032316422C9
:100F2000B1FBF2F111F00701084307E0190132317A
:100F30006422B1FBF2F111F00F010843208105B0EA
:100F4000F0BD000000380140C9B2002904D08189F9
:100F500051F40051818104E081894DF6FF72114006
:100F600081817047C905C90D81807047002289B20F
:100F7000B1F5007F0088084201D0012200E0002284
:100F80001000C0B2704789B28A0589B2C943018096
:100F9000704750F8041B61B150F8042BD30744BFCD
:100FA000A9F101039A18002342F8043B091FFAD162
:100FB000EFE770477047FEE7FEE7FEE7FEE77047A2
:100FC000704770470F480068411C0E4A1160B0F529
:100FD000FA7F0CD30C480068401C0B4908600020C5
:100FE0000849086009480078C04308490870084863
:100FF0000088002804D006480088401E0449088064
:1010000070470000C0020020BC020020C702002080
:10101000C402002010B5074979441831064C7C44BD
:10102000163404E00A68081D511888470146A14299
:10103000F8D110BD080000002800000057FFFFFF96
:101040007002000058000020000000004FFBFFFF6E
:1010500058000000B4010000000000200000000063
:1010600000F00BF8002801D0FFF7D4FF0020C046A5
:10107000C046FFF7A9FD00F002F80120704700F01C
:1010800001B800000746384600F002F8FBE7000010
:1010900080B5C046C046024A11001820ABBEFBE72F
:1010A0002600020038B504460D46284600F006F832
:1010B000A84218BF0024204632BD00000149FFF7B6
:1010C000FABD00BF00000020205344205365637424
:1010D0006F722053697A653A25780A005344204399
:1010E000617264204661696C65642100506C6561C1
:1010F000736520436865636B2100000053454354CA
:101100004F52203020444154413A0A000A4441548D
:101110004120454E4445440A0000000001488047F4
:1011200001480047B90800082D110008C046C04614
:10113000C046C046FFF794FFFFF73CBFFFF73BBF39
:10114000FFF73ABFFFF739BFFFF738BFFFF737BFE9
:10115000FFF736BFFFF735BFFFF734BFFFF7FEBF1E
:10116000FFF7FEBFFFF7FEBFFFF7FEBFFFF7FEBFB3
:10117000FFF7FEBFFFF7FEBFFFF7FEBFFFF7FEBFA3
:10118000FFF7FEBFFFF7FEBFFFF7FEBFFFF7FEBF93
:10119000FFF7FEBFFFF7FEBFFFF7FEBFFFF7FEBF83
:1011A000FFF7FEBFFFF7FEBFFFF7FEBFFFF7FEBF73
:1011B000FFF7FEBFFFF7FEBFFFF7FEBFFFF7FEBF63
:1011C000FFF7FEBFFFF7FEBFFFF7FEBFFFF7FEBF53
:1011D000FFF7FEBFFFF7FEBFFFF7FEBFFFF7FEBF43
:1011E000FFF7FEBFFFF7FEBFFFF7FEBFFFF7FEBF33
:1011F000FFF7FEBFFFF7FEBFFFF7FEBFFFF7FEBF23
:10120000FFF7FEBFFFF7FEBF0204010158020020F6
:10121000A802002058020020580200205802002096
:101220003D0000202400002000000000000000001D
:1012300000000000000000000000000000000000AE
:101240000000000000000000000000000102030494
:1012500001020304060708090204060800A24A0462
:040000050800112DB1
:00000001FF
