:020000040800F2
:100000004807002051280008E5260008E7260008D8
:10001000E9260008EB260008ED2600080000000095
:10002000000000000000000000000000EF260008B3
:10003000F126000800000000F3260008F52600085D
:100040009128000895280008992800089D28000894
:10005000A1280008A5280008A9280008AD28000844
:10006000B1280008B5280008B9280008BD280008F4
:10007000C1280008C5280008C9280008CD280008A4
:10008000D1280008D5280008D9280008DD28000854
:10009000E1280008E5280008E9280008ED28000804
:1000A000F1280008F5280008F9280008FD280008B4
:1000B0000129000805290008092900080D29000860
:1000C0001129000815290008192900081D29000810
:1000D0002129000825290008292900082D290008C0
:1000E0003129000835290008392900082DE9F04F89
:1000F000A1B08046002017461D4602910B900DF1DD
:10010000440A6FF000490AE017F8011B0298C04743
:100110000028029000F0A5820B98401C0B903878C4
:1001200008B90B989FE22528EED100200590069093
:100130000790089009900A9001E040F0010017F83C
:10014000011F2029F9D023290DD02B2904D02D29D6
:1001500006D030290AD00CE040F0020080B2EEE771
:1001600040F00400FAE740F00800F7E740F0100024
:10017000F4E72A290ED12968296051F8042B296057
:10018000002A0D9204D5514240F004000D9180B236
:100190007F1C11E000210D9109E00D99494505D022
:1001A00001EB810302EB430130390D917F1C3A785A
:1001B000A2F130010A29F0D339782E2903D04FF06B
:1001C000FF310C911DE017F8011F2A2907D129687A
:1001D00029607F1C51F8042B29600C9211E000214A
:1001E0000C9109E00C99494505D001EB810302EB24
:1001F000430130390C917F1C3A78A2F130010A2971
:10020000F0D3ADF838000FF6C020397800F06AFD61
:1002100008B117F8010B8DF83A009DF83A006828EC
:1002200002BF39786829622005D06C2804BF38786D
:100230006C2803D171208DF83A007F1C11A804901E
:1002400017F8014BB4F1250023D02038022840F2E2
:10025000BB80133800F0E0800B3800F04A81401E6C
:1002600000F02381401E022840F2AE80001F00F003
:100270001C81401F79D0401E00F0CE80401E24D04B
:10028000C01E0BD0801E00F0C780C01E00F0C480CE
:1002900039E125208DF8440001203DE128682860DF
:1002A00050F8046B286003960C9C002C04D5304653
:1002B00000F024FD044606E022460021304600F00E
:1002C00039FD00B1841B069427E1296829603C248C
:1002D00051F8040B29600021CDE9000111A8039019
:1002E000DDE90001049E11B908B90C9AB2B1020609
:1002F000120FA0EB02123032D2B2631E3A2AA8BF0C
:100300002732000940EA017009099A5508BF002800
:100310001C4603D0039AA3199A42E8D3A01903906C
:10032000C4F13C010C980691814209DA401A089008
:100330004FF6EF71BDF838000840ADF83800ECE03A
:10034000002840F1EA809DF8380000F014001028E1
:1003500040F0E3800D98059A801A089A801A441A92
:10036000012CC0F2DA800894D7E09DF83A006228A8
:100370001AD0682806D06A280CD06C281CD07128A6
:1003800008D019E02868286050F8041B28600B98F2
:100390000880C2E02868286050F8042B28600B9879
:1003A000C117C2E90001B8E02868286050F8041BB2
:1003B00028600B980870B0E02868286050F8041B8B
:1003C00028600B980860A8E02868C01D20F007028C
:1003D0002A60D2E9000108322A60CDE90001002933
:1003E00002D505982D210AE0BDF83800810702D515
:1003F00005982B2103E0C00705D50598202100F8BA
:100400000A10401C059011A8059908180390214670
:1004100000A800F0E5F980E09DF83A006C280DD0C6
:10042000712818BF6A2809D12868C01D20F007026A
:100430002A60D2E9000108322A6005E029682960B3
:1004400051F8040B29600021CDE900019DF83A0024
:10045000682803D1DDE9000180B20BE0622803D1F6
:10046000DDE90001C0B205E0742818BF7A2804D184
:10047000DDE900010021CDE900019DF83800000709
:100480002ED5DDE90001002908BF002828D044F05E
:100490002000782824D10598302100F80A10401C4B
:1004A000411C059100F80A401AE09DF83A002946DF
:1004B00000F0DCF8CDE90001002902DA05982D21D1
:1004C0000AE0BDF83800810702D505982B2103E02A
:1004D000C00705D50598202100F80A10401C05909A
:1004E00011A8059908180390214600A800F0F5F816
:1004F00013E0012005902868286050F8041B28604C
:100500008DF8441009E025208DF844000120059065
:100510001CB18AF80140022005900D980599401AF7
:100520000899401A0699401A0999401A0799401AE1
:100530000A99441A9DF83800400710D420208DF8FD
:100540004000002609E0012310AA00A9404600F05F
:10055000A3FB002840F08580761CA642F3DB059EB5
:100560000DF1440B0AE01BF8011B0298C04700285C
:10057000029076D00B98401C0B90761E002EF2D184
:1005800030208DF840004FF0000B089E09E0012359
:1005900010AA00A9404600F07FFB002861D10BF1B2
:1005A000010BB345F3DB069EDDF80CB00AE01BF847
:1005B000011B0298C0470028029052D00B98401CA3
:1005C0000B90761E002EF2D130208DF840004FF0B7
:1005D000000B099E09E0012310AA00A9404600F083
:1005E0005BFB00283DD10BF1010BB345F3DB039816
:1005F0000699079E01EB000B09E01BF8011B02980E
:10060000C047029068B30B98401C0B90761E002EDA
:10061000F3D130208DF840004FF0000B0A9E08E027
:10062000012310AA00A9404600F036FBC8B90BF11F
:10063000010BB345F4DB9DF8380040077FF56FAD43
:1006400020208DF84000002600E0761CA642BFF670
:1006500066AD012310AA00A9404600F01DFB00284A
:10066000F3D04FF0FF3021B0BDE8F08F622826D0E4
:1006700068281DD06A2808D06C2827D0712804D09B
:10068000742823D07A280CD020E00868C01D20F000
:1006900007000860D0E900230830086019461046BA
:1006A00070470A680A6052F8040B0A60002170471C
:1006B0000A680A6052F8040B0A6000B20BE00A688C
:1006C0000A6052F8040B0A6040B204E00A680A604B
:1006D00052F8040B0A60C11770472DE9FA4E05461F
:1006E0000A462F696F2A08BF082405D041F0200070
:1006F000782814BF0A2410243C26D5E90001642A76
:1007000018BF692A81468A4605D1002903DAD9F142
:1007100000096AEB4A0ABAF1000F08BFB9F1000FED
:100720000CD1286B50B9082C36D195F83800000749
:1007300032D530203B2687F83B002DE0E3174846B2
:100740005146224600F022FBA4FB0023A9EB020243
:100750003032D2B2A6F1010B3A2A5E4603DB9DF895
:100760000030513B9A1881465FEA010A0BF80720D6
:1007700008BFB9F1000F03D0E868F1198842DDD352
:10078000082C09D195F83800000705D5F05D302810
:1007900002D0761E3020F055C6F13C00A861F11958
:1007A000E960296B884208DA081A28624FF6EF716F
:1007B000288F08402887BDE8F38E00290ED595F8CC
:1007C000381001F01401102908D1696B6A69891A7F
:1007D0002A6A891A0E1A012EA8BF2E62BDE8F38E6E
:1007E0002DE9F34F8BB0D0E90089006B002801AFF1
:1007F00048BF062005D404BF41F02000672802D17D
:1008000001200B99086340F2FF720B984168C1F315
:100810000A50904220D1080302BF0B9800680028BC
:100820000AD10B99032088619DF8300061381A289D
:1008300058D30FF2A84109E00B99032088619DF875
:10084000300061381A284AD30FF288410B98C068EB
:10085000032200F013FB00E1012807DA0B9800F0F7
:1008600048FB012802DB00230026EDE00B9ADFF8AD
:1008700054B1526840F2FE3161F31E520B994A6046
:1008800040F2FE31461A404649460022002300F05D
:1008900051FB38BF89F0004936B247F29750704398
:1008A000494990FBF1F636B2C6F10707012F92468F
:1008B0001BDBF80707D552465B464046494600F029
:1008C00051FB804689465046594652465B467F104A
:1008D00000F048FB002F82468B46EAD126E00FF25B
:1008E000F031B3E70FF2F031B0E77F420024374D2B
:1008F00012E0F80707D552465B462046294600F02D
:1009000031FB04460D465046594652465B4600F0C0
:1009100029FB7F1082468B46002FEAD1404649468C
:1009200022462B4600F0F0FB804689469DF83000B9
:100930000B99DFF89CB0096B40F02005662D0CBFC9
:1009400006F10A0006204718142FA8BF13273020ED
:100950008DF804000DF10504012F3BDB40464946AC
:1009600000F0FEFC014604F1080204234FF00A0CDB
:10097000B1FBFCFC0CEB8C04A1EB4401303102F820
:10098000011C0A21BCFBF1FE0EEB8E04ACEB44040F
:1009900030345B1E714602F8024DE7D1083F012F4B
:1009A00002F10804D8DB00F0F1FC02460B46404699
:1009B000494600F0F9FC00225B4600F0D3FA80467D
:1009C0008946CBE700002440A08601000000F03FEC
:1009D00084D797410DF10500201A0DF1050702E0BB
:1009E000401E761E7F1C39783029F9D0662D02D141
:1009F00036B2711C03E0652D0CBF012100210B9A5A
:100A0000126B8B181BB29842B8BF03461BB2190079
:100A10001AD4814204DAC85D3528A8BF392000DA2B
:100A20003020CA19521E00E05B1E12F80159491EFF
:100A30008542F9D0392802D1C85D401CC85500292B
:100A400002D57F1E5B1C761C36B29DF830100B98C9
:100A500000961BB23A4600F003F80DB0BDE8F08FE7
:100A60002DE9F04786B006468A4690461D4600F0BE
:100A700078FD012D406A376B90F8009002DA01256D
:100A80000FF25C284AF02000BDF93840662808BF04
:100A9000641C13D0672840F0888014F1040F73DBC6
:100AA000BC4271DA96F83800641C000702D4BD42DB
:100AB000B8BF2F4624B23F1B48BF002724B2F068BE
:100AC000B169012C21DA4A1C30230B54012F03DABF
:100AD00096F83810090702D502F80090521CE74238
:100AE000B8BF7C4224B2E7196142AF42B261716281
:100AF000B8BF3D46B3692DB2F5612A464146181884
:100B000000F0BCF9781BB062AFE00818A54216DA15
:100B10002A46414600F0B2F9B1696918601B012FFD
:100B2000B161706203DA96F83800000705D5F06805
:100B300001F80090F069401CF061B76295E0224630
:100B4000414600F09BF9B06920182D1B012F03DAF4
:100B500096F83810090703D5F16800F80190401C99
:100B6000B0612DB2AF42B8BF3D46F068B3692DB257
:100B70002A4604EB0801181800F080F9B06928181B
:100B8000B061781B706270E0BD4204DA96F83810EC
:100B9000090758BF2F467F1E48BF0027BAF1670FCD
:100BA0000CBF4FF0650A4FF0450AB169F06818F8BC
:100BB000013B0B544A1C012F05DA96F8381009073F
:100BC00058BFB26115D502F80090531C012FB361D4
:100BD0000FDB6D1E2DB2AF42B8BF3D462DB22A4687
:100BE0004146181800F04AF9B0692818B061781B1E
:100BF0007062F068B1690918200081F800A004D47F
:100C00002B20487001F1020804E02D224A7001F106
:100C100002086442002502AF08E00A2200A800F0A2
:100C2000B9FC019807F8010B6D1C009C21B2012949
:100C3000F3DA022D06DA4AF02000652804BF3020DE
:100C400008F8010B4DB9302008F8010B07E06D1EC4
:100C500002A8285C303008F8010B012DF7DAF068A3
:100C6000B1690818A8EB0000F06196F8380000F0B0
:100C7000140010280DD17069B1690818716A08183C
:100C8000F1690818B16A0818716B8842BCBF081A6C
:100C9000306206B0BDE8F087F8B504460D4616464A
:100CA0001F46002004E0E86A401CE8627F1E002026
:100CB00047B116F8011BA868A0470028A860F2D128
:100CC0004FF0FF30F2BD0000686A6C747A4C00008F
:100CD0006E616E004E414E00696E6600494E4600E0
:100CE000300000000278C9B28A421AB11CBF10F865
:100CF000012FF9E718BF00207047000000F1010341
:100D0000810704D010F8011B89B18107FAD102686C
:100D1000B2F10131914311F0803F04BF50F8042F2C
:100D2000F6E710F8011B11B110F8011BFBE7C01A20
:100D300070470000C9B2830706D0521E22D310F8B4
:100D4000013B9942F7D11FE0083A13D302F10402A4
:100D500041EA012141EA014150F8043B121F21BF41
:100D60004B40A3F1013C2CEA030C1CF0803FF3D074
:100D7000C9B2001F083210F8013B521E28BF91EA89
:100D8000030FF8D818BF0120401E70471B4213D133
:100D9000094236D12AB18446B0FBF2F002FB10C200
:100DA000704700F0FFBBFCD30022002370470B000C
:100DB0000200002100207047904271EB030CF6D333
:100DC00070B5B1FA81F4B3FA83F52C1BA340C4F1DA
:100DD000200532FA05F63343A2405FF00046E640B4
:100DE00002E05B085FEA3202841A71EB030524BF5C
:100DF000204629467641F4D302000B003000002142
:100E000070BD012ACFD970B5140C20D0B1FA81F48D
:100E1000B2FA82F5C4F120046419B4F12006D6D3E5
:100E2000B2405FF00044F440002502E052085FEA5F
:100E30003303C61A71EB020E24BF3046714664417B
:100E40006D41F3D302000B002000290070BD0C4659
:100E5000B1FBF2F102FB11452D0445EA1045B5FB4B
:100E6000F2F402FB145580B240EA0545B5FBF2F0FE
:100E700002FB105240EA044070BD000062B38B07D1
:100E800008D0521E11F8013B00F8013B00F024800D
:100E90008B07F6D1830740F0208000BF103A07D3BC
:100EA00030B4B1E83810103AA0E83810F9D230BCAC
:100EB000530724BFB1E80810A0E8081044BF51F858
:100EC000043B40F8043BD20724BF31F8022B20F842
:100ED000022B44BF0B7803707047083A07D3B1E880
:100EE0000810083A40F8043B40F804CBF7D2530707
:100EF000E4E730B4436803F0004201211B031B0BFD
:100F0000436004BF0368002B08D10DE00368DD0FC8
:100F100045EA440444605B000360491E4468E30200
:100F2000F4D523031B0B436043681A434260084611
:100F300030BC70474FF4001C1CEB410F94BF1CEBFE
:100F4000430F09E041EA030C50EA4C0C52EA0C0C46
:100F500003D2994208BF9042704714BF8B4282422D
:100F600070470000B0B581EA030C0CF0004C40F271
:100F7000FF7515EA11541DBF15EA1357AC42AF4275
:100F800039E0E41923EA455343F48013C90241F0E0
:100F9000004141EA505EC7021100A7FB020200288F
:100FA0004FF00000EEFB01204FF00001E3FB0721B2
:100FB00018BF42F00102401800214941E3FB0E0135
:100FC000A4F580640F0302D252004041494154F11C
:100FD00001046CDD470872F1004250F1000051EB52
:100FE0000451A1F580115CBF41EA0C01B0BD4CEA8F
:100FF00005510020B0BD05EA1357AC4214BFAF4203
:1010000041E050EA410E1CBF52EA430E02E0614645
:101010000020B0BD24423C441BD15FEA070EF6D04D
:10102000090302BF01460020AEF1140EB1FA81F7A8
:10103000AEEB070401FA07FE0C37C7F1200100FAF6
:1010400007F7C8404EEA000E23EA455343F48013E5
:10105000A2E733F00043B3FA83F704BFB2FA82FE8B
:1010600077440B3FE41BB7F1200E2FBF02FA0EF3BB
:10107000BB40C7F1200E22FA0EFE38BF43EA0E0332
:10108000BA40641C82E750EA410E14BF52EA430E94
:101090006FF000014FF4001717EB430F8ABF19469A
:1010A00017EB410FB5E74CEA05510020B0BDD4F174
:1010B0000104B4F120070FDAC4F12007520828BF59
:1010C00042F0010210FA07F501FA07F7E1BF2A43DF
:1010D000E0403843E1400FE0352C98DCC7F12004B4
:1010E00052EA400220FA07F218BF42F0010231FA38
:1010F00007F0A1400A43002172F1004250F10000C4
:1011000051EB0C01B0BD00002DE9F04140F2FF753C
:1011100081EA030C0CF0004C15EA11541DBF15EACE
:101120001357AC42AF42E9E0BC41C1F31301C3F332
:101130001303801A994143F4801304D2641E4000C3
:10114000494180185941C90241EA5051B1FBF3F6B7
:1011500003FB1611A2FB0675D7EBC020A94102D2F2
:10116000761E80185941C90241EA5051B1FBF3FE85
:1011700003FB1E11A2FB0E75D7EBC020A94103D2C1
:10118000AEF1010E80185941890241EA905176056D
:1011900046EA8E2EB1FBF3F603FB1611A2FB067591
:1011A000D7EB8020A94102D2761E80185941C9028E
:1011B00041EA50514EEA060EB1FBF3F603FB16115D
:1011C000A2FB0675D7EBC020A94102D2761E80187B
:1011D0005941C90241EA5051B1FBF3F703FB171122
:1011E000A2FB0735D3EBC020A94167F100070CBF74
:1011F000004247F0010766F3D5274FEA1E31B808D1
:1012000014F5806414DDBD0775F1004250EB0E50FB
:1012100051EB045111F5801F5CBF41EA0C01BDE8A0
:10122000F0814CF07F6141F0E0410020BDE8F081A9
:10123000BD076D0840EA0E5041F48011D4F101045D
:10124000B4F120060ADAC4F120060200E04001FAF7
:1012500006F3E1401843B24015430EE0342C14DC91
:10126000C6F1200445EA40056D0820FA06F2154350
:1012700021FA06F0A1400D43002175F1004250F122
:10128000000051EB0C01BDE8F08100205FEA0C0189
:10129000BDE8F081CFB992185B41B3FA83F704BF80
:1012A000B2FA82F6BF190B3FB7F120062FBF02FA40
:1012B00006F3BB40C7F1200622FA06F638BF3343D7
:1012C000BA401CB1E419641E2FE77F4231F000419F
:1012D000B1FA81F404BFB0FA80F6A4190B3CB4F162
:1012E00020062FBF00FA06F1A140C4F1200620FA23
:1012F00006F638BF3143A0403C1B16E7AC421ABF8C
:1013000005EA1357AF4214E050EA41061CBF52EA07
:101310004306BFE750EA4107304661461CBF41EA39
:101320000551BDE8F08152EA430C08BFC143BDE856
:10133000F08100204FF4001616EB410F98BF16EB1A
:10134000430F08BF16EB410F24BFC14305E016EB66
:10135000430F0CBF61464CEA0551BDE8F081000027
:10136000400D40EAC120490080F00D8040F000406F
:10137000490DA1F58061491C05D4D1F11F0154BF6D
:10138000C840C01770474FF000007047010000BF11
:1013900009D0B0FA80F18840C91CC1F58461090503
:1013A00001EBD02140057047F0B44FF0004591EAC1
:1013B000030F44BF6B4000F0F7B800BF841A71EB15
:1013C000030604D26E40001BB141121973414FF461
:1013D000001C1CEB410F34BF7CEB430684E00C0D7A
:1013E000A4EB1356362E7DDC012E43DC45EAC323E5
:1013F00043EA525312BFD20292025B08240545EA27
:10140000C12141EA5051D2EBC020994125D407D1E6
:10141000B0FA80F610FA06F164D00020203608E019
:10142000B1FA81F6B140C6F1200220FA02F211436E
:10143000B0404FEAF474B4EB465434F001064FEA7E
:1014400074040AD8D6F50016760D04F00044F04076
:1014500061FA06F25040F1404840C00A40EA41506B
:1014600021F0004128BF5FEA500550F1000044EB35
:10147000D12137E045EAC323DB0A45EAC121C90A85
:10148000B6F120050EDD42EA0242120CC5F120063B
:1014900003FA06F6EB4042EA06056D42984161F117
:1014A00000010DE062FA06F5F240554063FA06FCD1
:1014B00082EA0C02F3405A406D42904161EB030115
:1014C00011F4801F05D1641E620502D06D004041F9
:1014D000494121F48011430875F1004350F10000A7
:1014E00041EB0451F0BC70471CEB410F15D223F0C7
:1014F000004352EA43060BD04FEA4C0CBCEB410FC1
:1015000004D80C0D661E342EB7DDEBE7801A994126
:1015100050EA410608BF0021E4E708BF1CEB430F77
:1015200028BF6FF00001DDE780B5134800F0A6F892
:101530000FF24C020FF244010160426241600FF26F
:101540004402826381600FF24402C1600161416123
:1015500081618162C16201634163C263016441646C
:1015600001BD10B5044800F089F80446206808B9A8
:10157000FFF7DAFF204610BD000000200000000049
:101580002E00000066616C73650000007472756562
:101590000000000091FBF2F303FB1211C0E90031DF
:1015A0007047000070470000841A71EB030603D2F5
:1015B000001BB141121973414FF4001C1CEB410F89
:1015C00034BF7CEB430443E00C0DA4EB1356352EE3
:1015D00050DC45EAC323DB0A45EAC121C912B6F152
:1015E00020050DDD63FA05F6EB4086EA030512429D
:1015F00018BF45F00105C01851F100010CD213E0ED
:1016000062FA06F5F2405540F3415A40B340F340C8
:101610005A408018594107D349085FEA30005FEA11
:10162000350528BF45F0010501F58011420875F127
:10163000004250F1000041EB0451F0BC4FF4001C9B
:101640001CEB410F38BF70470020090D090570479A
:101650001CEB410F10D252EA43060BD0BCEB410FFA
:1016600005D80C0DAB43661E342EB5DD02E0AB434E
:1016700080185941F0BC7047F0BC704770470000BB
:1016800080B5C0B200F0B3FA02BD80B5382000F0DA
:10169000A1FA01BD80B5002000F09CFA01BD80B523
:1016A0000121082000F030FB4FF40050ADF800009D
:1016B00010208DF8030003208DF8020000A9DFF848
:1016C0009C0300F03DFB4FF40051DFF8900300F065
:1016D00097FB00F019FA4FF40051DFF8800300F097
:1016E0008FFB01BD80B54FF40051DFF8700300F0AF
:1016F00087FBFF20FFF7C4FF01BD80B54FF4005109
:10170000DFF8580300F07FFB00F008F8002801D153
:10171000002002E0FFF7E6FF012002BD10B5002423
:10172000FF20FFF7ADFFFF2801D1002005E0641C7A
:101730007FF07F408442F3D3012010BD38B5040010
:1017400040F6FF7500E06D1EFF20FFF799FFE4B241
:10175000A04202D0ADB2002DF5D1ADB2002D01D125
:10176000FF2000E0002032BD38B504000D00FE204F
:10177000FFF7E4FF002806D0012010E0FF2000F072
:1017800036FA2070641C2800451E80B20028F5D16E
:10179000FF20FFF775FFFF20FFF772FF002032BD2B
:1017A000F8B504000D0016000027FFF79BFFFFF7B8
:1017B000A4FF002801D0FF202AE054F04000C0B26E
:1017C000FFF75EFF280EC0B2FFF75AFF280CC0B229
:1017D000FFF756FF280AC0B2FFF752FF2800C0B239
:1017E000FFF74EFF3000C0B2FFF74AFFE4B20C2C07
:1017F00002D1FF20FFF744FF1F27FF20FFF740FF24
:10180000010604D539004F1EC9B20029F5D1C0B276
:10181000F2BD38B50400012200210920FFF7C0FF06
:101820000500EDB2002D04D110212000FFF79CFF30
:101830000500FFF757FFEDB2002D01D0012000E0B9
:10184000002032BD38B5FFF72AFFFFF71EFF002545
:1018500003E0FF20FFF714FF6D1CADB20A2DF8DB8B
:101860001425952200210020FFF79AFF0400E4B21E
:10187000012C04D02800451E80B20028F1D10020A0
:1018800077490870E4B2012C40F09E8087224FF423
:10189000D5710820FFF784FF01284DD1002506E00F
:1018A000FF20FFF7EDFE00A9ADB268546D1CADB28C
:1018B000042DF5DB9DF80200012840F085809DF89D
:1018C0000300AA2840F080804FF6FE750122002117
:1018D0003720FFF765FF01225FF080412920FFF7E5
:1018E0005FFF0400E4B2002C04D02800451E80B243
:1018F0000028EBD1ADB2002D66D0012200213A20A4
:10190000FFF74EFF00285FD1002506E0FF20FFF71C
:10191000B7FE00A9ADB268546D1CADB2042DF5DB65
:101920009DF80000400603D506204D4908704BE0A5
:1019300004204B49087047E0012200213720FFF7BF
:101940002FFF012200212920FFF72AFF0400E4B223
:10195000022C18DA0220424908704FF6FE75012267
:1019600000213720FFF71CFF012200212920FFF76B
:1019700017FF0400E4B2002C18D02800451E80B2E6
:101980000028ECD112E00120354908704FF6FE75B1
:10199000012200210120FFF703FF0400E4B2002C24
:1019A00004D02800451E80B20028F1D1ADB2002D30
:1019B00007D001224FF400711020FFF7F1FE00283C
:1019C00002D0002026490870FFF78CFEFFF762FE68
:1019D00023480078002801D0002006E0E4B2002C63
:1019E00002D02000C0B200E0AA2032BD70B50400D1
:1019F00015001B480078062800D04902EDB2012DE1
:101A00000ED101221120FFF7CBFE0600F6B2002E08
:101A10001FD14FF400712000FFF7A6FE060018E06A
:101A200001221220FFF7BCFE06004FF400712000D7
:101A3000FFF79AFE060014F500746D1EEDB2002D3E
:101A400002D0F6B2002EF0D0012200210C20FFF7C8
:101A5000A7FEFFF747FE3000C0B270BD000C01408A
:101A60004603002000B585B000A8FFF7D2FE00288D
:101A700001D0002045E09DF8000010F0C000402893
:101A80000BD19DF809009DF8081010EB0120401CB7
:101A900080B24FF40071484333E09DF8060010F027
:101AA000030109029DF80700411889009DF808000C
:101AB000C0B28009C0B241189DF8090010F00300BF
:101AC00040009DF80A20D2B210EBD210801C0122F7
:101AD00002E092B25200401EC0B20028F9D189B291
:101AE000481C92B250439DF8051011F00F010122DD
:101AF00002E092B25200491E89B20029F9D192B295
:101B0000504305B000BD000080B501214FF4805066
:101B100000F0FAF80121042000F0F6F82020ADF8DA
:101B2000000018208DF8030003208DF8020000A9A2
:101B3000424800F005F94020ADF8000018208DF86B
:101B4000030003208DF8020000A93C4800F0F8F8DB
:101B50008020ADF8000018208DF8030003208DF8D8
:101B6000020000A9354800F0EBF82021334800F0CE
:101B700047F94021314800F043F980212F4800F017
:101B80003FF900202E4908804FF482702C4948808C
:101B900000202B49888002202949C880012028493B
:101BA00008814FF4007026494881382024498881F3
:101BB00000202349C8810720214908822049214863
:101BC00000F02EF901211F4800F049F9FF2000F034
:101BD0000EF801BD80B5C0B219498881184919486D
:101BE00000F01EF90121174800F039F901BD38B5A0
:101BF000040000250221134800F043F9002805D114
:101C00006D1CEDB2C92DF5DB002016E0E4B2210019
:101C100089B20C4800F031F900250121094800F093
:101C200030F90028F9D06D1CEDB2C92D01DB002080
:101C300003E0044800F023F9C0B232BD00080140BF
:101C4000300300200030014000210021002200214B
:101C50003549096811F00C01002904D0042905D088
:101C6000082906D021E03149016020E02F490160B8
:101C70001DE02D49096811F470112B4A126812F405
:101C80008032890C891C002A03D1294A5143016002
:101C90000AE0254A1268920303D5254A51430160A0
:101CA00002E0224A5143016001E0204901601E49DF
:101CB000096811F0F00109091E4A895C02681300E5
:101CC000CB4043601849096811F4E061090A194AD8
:101CD000895C42681300CB4083601349096811F4A2
:101CE0006051C90A134A895C42681300CB40C36043
:101CF0000D49096811F44041890B0F4A895CC2689B
:101D0000B2FBF1F101617047C9B2002905D00B495E
:101D1000096808430949086005E00849096831EA8B
:101D200000000649086070470410024000127A0063
:101D300000093D00C8000020D80000201810024013
:101D400070B4002200250023002600240025CA7854
:101D500012F00F02CB78DB0601D58B781A430B7893
:101D60001B0621D00468002306E0CD78482D02D15F
:101D700001259D4005615B1C082B14D2012515FA35
:101D800003F60D883540B542F5D19E000F25B540CC
:101D9000AC4312FA06F52C43CD78282DE5D1012568
:101DA0009D404561E7E704600B88FF2B26DD446812
:101DB000002320E0012513F1080615FA06F60D8828
:101DC0003540B54216D19E000F25B540AC4312FAFE
:101DD00006F52C43CD78282D04D1012513F10806F2
:101DE000B5404561CD78482D04D1012513F1080691
:101DF000B54005615B1C082BDCD3446070BC7047A8
:101E000089B20161704789B241617047D2B2002A3C
:101E100002D089B2016101E089B2416170470000DE
:101E200010B40022028812F441520B884C882343DC
:101E30008C882343CC8823430C8923434C89234338
:101E40008C892343CC8923431A430280828B4FF22F
:101E5000FF731A408283098A018210BC7047C9B29D
:101E6000002904D0018851F04001018004E001887C
:101E70004FF6BF72114001807047818170478089A1
:101E8000704700220089084201D0012200E00022B0
:101E90001000C0B27047000070B50024002500F0AB
:101EA00001F900F02FF900F05FF907E0EDB2ED4322
:101EB00001224FF400515B48FFF7A8FFFFF7C2FC77
:101EC000002819D0584800F0B3F94FF4FA7000F028
:101ED0000BF9564800F0ACF94FF4FA7000F004F931
:101EE000EDB2002DE2D1EDB2ED4300224FF40051EE
:101EF0004C48FFF78BFFE1E7FFF7B4FD0600310028
:101F00004B4800F095F94B4801784B4800F090F9A8
:101F100048480078042829D1FFF7A4FD00F09AF979
:101F20005FF0894100F0A6F95FF0894100F0A2F965
:101F300000F01EFA02000B00404800F079F9FFF7AC
:101F400091FD00F087F95FF0894100F093F95FF0AF
:101F5000894100F08FF95FF0894100F08BF900F0C2
:101F600007FA02000B00364800F062F931480078A9
:101F7000062829D1FFF776FD00F06CF95FF0894162
:101F800000F078F900F0F4F902000B002B4800F0A3
:101F90004FF9FFF767FD00F05DF95FF0894100F050
:101FA00069F95FF0894100F065F900F0E1F902009C
:101FB0000B00234800F03CF906E0EDB2ED430022AF
:101FC00001212048FFF722FFE4B21E2C18D1012284
:101FD00000211D48FFF70AFD002810D11B4800F022
:101FE00027F9002605E01848315C0DA000F020F923
:101FF000761CB6F5007FF6D3154800F019F90024D9
:10200000641CC82000F070F8EDB2002DD5D1EDB2FF
:10201000ED43012201210B48FFF7F8FED4E700BF92
:102020002578200000100140002800081028000832
:102030009C2700084603002020280008D827000815
:10204000EC270008000C0140E000002030280008C8
:102050004028000840B2002808D509011A4A40B2B9
:1020600010F00F00801800F8041C03E00901174A63
:1020700040B28154704780B5411EB1F1807F01D3D9
:1020800001200EE0401E124908600F215FF0FF3072
:10209000FFF7E0FF00200F49086007200E490860A5
:1020A000002002BD80B50D4800680D49B0FBF1F07D
:1020B000FFF7E1FF0028F6D101BD0A490880094871
:1020C00000880028FBD1704718ED00E000E400E034
:1020D00014E000E018E000E010E000E0DC00002088
:1020E00040420F004403002010B5040003E04FF409
:1020F0007A70FFF7E2FF2000441E80B20028F6D17C
:1021000010BD000080B501211820FFF7FDFD4FF440
:102110000050ADF8000010208DF8030003208DF86A
:10212000020000A90E48FFF70BFE0120ADF80000E9
:1021300010208DF8030003208DF8020000A9094843
:10214000FFF7FEFD0220ADF8000010208DF803001F
:1021500003208DF8020000A90248FFF7F1FD01BD40
:1021600000100140000C014000B585B0012144F28F
:102170000400FFF7C9FD4FF40070ADF8000018200F
:102180008DF8030003208DF8020000A92648FFF710
:10219000D7FD4FF48060ADF8000004208DF80300F7
:1021A00003208DF8020000A91F48FFF7C9FD4FF476
:1021B000165001900020ADF808000020ADF80A008C
:1021C0000020ADF80C000020ADF810000C20ADF898
:1021D0000E0001A9154800F0F3F84021134800F063
:1021E00097F9012240F22551104800F057F90122D9
:1021F00040F227710D4800F051F901210B4800F021
:102200003FF905B000BD10B504002100C9B289B284
:10221000064800F06CF94021044800F06CF90028F1
:10222000F9D0200010BD0000000801400038014036
:102230000EB400B582B003A90091024600AB0121A3
:10224000034878440A30FDF751FF06BC5DF810FBE7
:1022500065050000002800BF0AD0B0FA80F1884070
:10226000D1F19D01C905020672F1004241EB102037
:102270007047000010B5FF2313EAD0541DBF13EAC6
:10228000D1529C429A4239E0A41ADA0780EA01034B
:10229000134042EA012142EA0020421A3CBF641E78
:1022A00001EB4202090AB2FBF1FE01FB1E221202FF
:1022B000B2FBF1F001FB10226EF30F201202B2FB11
:1022C000F1FE4EEA00207F3406DDFE2C24DA53EACC
:1022D000500050EBC45010BDD4F1020401FB1E228B
:1022E00040F08071192C1DDC21FA04F0C4F12004A7
:1022F000A140114371F10042584110BD9C421ABFE8
:1023000003EAD1529A420FE080EA010E0EF0004338
:10231000400004D0490016D143F0FF4010BD4900F1
:1023200008BFD343180010BD9C4205D1D21AF7D084
:1023300001F00041484010BD4A0212BF0846484023
:1023400000F0004010BD4AB90902B1FA81F2914093
:1023500044B1A418C00140F000409EE7C90141F01B
:10236000004152420002B0FA80F4A040141B94E7EE
:102370005FF0FF0C1CEAD05114BF614506E0C110AC
:10238000400721F0E04101F16051704779B900F058
:10239000004100020AD0B0FA80FC00FA0CF001F112
:1023A0006051A1EB0C5101EBD02140057047410277
:1023B0000CBF40F4E0016FF0000100207047000006
:1023C00070B586B004000D0000200020002100211F
:1023D0000026A88900282600208A4CF6FF710840B4
:1023E000E98808432082A0894EF6F3110840A988A5
:1023F0002A8911436A8911430843A081A08A4FF6B4
:10240000FF410840A9890843A08200A8FFF71CFCEF
:102410001A48864201D1039800E00298A189090474
:1024200006D51921484329684900B0FBF1F105E0C0
:102430001921484329688900B0FBF1F16420B1FB00
:10244000F0F000010209642303FB1211A2891204B7
:1024500008D5C90032316422B1FBF2F111F0070155
:10246000084307E0090132316422B1FBF2F111F0B7
:102470000F010843208106B070BD00000038014004
:10248000C9B2002904D0818951F40051818104E04E
:1024900081894DF6FF7211408181704730B400236D
:1024A00000240024002589B240F66A1399420500F1
:1024B0000800C0B24309DBB289B211F01F04012049
:1024C00010FA04F4012B01D10C3504E0022B01D1E8
:1024D000103500E01435D2B2002A03D0286820431A
:1024E000286002E02868A043286030BC7047C90516
:1024F000C90D81807047002289B2B1F5007F008844
:10250000084201D0012200E000221000C0B2704752
:1025100089B28A0589B2C9430180704780B54F48A6
:10252000006850F001004D4908604D4800684D4971
:1025300008404B490860494800684B4908404749F2
:1025400008604648006830F48020444908604448E8
:10255000006830F4FE00424908605FF41F00434900
:10256000086000F005F85FF000604149086001BDB7
:1025700080B500F001F801BD82B00020019000207C
:1025800000903648006850F4803034490860334881
:10259000006810F4003000900198401C01900098F1
:1025A000002803D10198B0F5A06FF0D12B48006846
:1025B000800302D50120009001E0002000900098E7
:1025C000012847D12B48006850F0100029490860C5
:1025D000284800688008800026490860254800686F
:1025E00050F00200234908601D4800681C4908603B
:1025F0001B4800681A4908601948006850F4806058
:10260000174908601648006830F47C1014490860C7
:102610001348006850F4E810114908600F4800683A
:1026200050F080700D4908600C4800688001FBD5AF
:102630000B48006880088000094908600848006865
:1026400050F00200064908600548006810F00C00D0
:102650000828F9D102B070470000000000100240C5
:10266000041002400000FFF8FFFFF6FE08100240D1
:1026700008ED00E00020024019E050F8041BCB07F1
:1026800044BFA9F101035918121F0023042A41F87D
:10269000043BF9D25FEA827C0B4604D54FF0000C74
:1026A000A1F800C09B1CD10744BF0021197050F84D
:1026B000042B002AE1D1704710B450F8041B79B103
:1026C0000268436812180830DC0744BFA9F101040E
:1026D000E31852F8044B43F8044B091FF9D1ECE717
:1026E00010BC70477047FEE7FEE7FEE7FEE7704765
:1026F0007047704704480088002804D002480088CA
:10270000401E0149088070474403002010B5074966
:1027100079441831064C7C44163404E00A68081DDC
:10272000511888470146A142F8D110BD08000000A9
:102730002800000045FFFFFF68020000E0000020C5
:102740000000000075FFFFFFE0000000F001000046
:10275000000000200000000000F00BF8002801D06D
:10276000FFF7D4FF0020C046C046FFF795FB00F0FE
:1027700002F80120704700F001B800000746384613
:1027800000F002F8FBE7000080B5C046C046024AF0
:1027900011001820ABBEFBE72600020020534420A6
:1027A000536563746F722053697A653A25780D0A10
:1027B0000000000038B504460D46284600F006F833
:1027C000A84218BF0024204632BD00000149FFF78F
:1027D0001ABD00BF88000020534420BFA8C8DDC137
:1027E000BF284D29A3BA25660D0A0000534420BF17
:1027F000A8C8DDC1BF284729A3BA25660D0A000075
:1028000053442043617264204661696C6564210011
:10281000506C6561736520436865636B210000003F
:10282000534420BFA8B0E6B1BEA3BA25640D0A0088
:10283000534543544F52203020444154413A0A00FA
:102840000A4441544120454E4445440A00000000DA
:1028500001488047014800471D25000861280008FD
:10286000C046C046C046C046FFF776FFFFF73ABFF6
:10287000FFF739BFFFF738BFFFF737BFFFF736BFA6
:10288000FFF735BFFFF734BFFFF733BFFFF732BFA6
:10289000FFF7FEBFFFF7FEBFFFF7FEBFFFF7FEBF6C
:1028A000FFF7FEBFFFF7FEBFFFF7FEBFFFF7FEBF5C
:1028B000FFF7FEBFFFF7FEBFFFF7FEBFFFF7FEBF4C
:1028C000FFF7FEBFFFF7FEBFFFF7FEBFFFF7FEBF3C
:1028D000FFF7FEBFFFF7FEBFFFF7FEBFFFF7FEBF2C
:1028E000FFF7FEBFFFF7FEBFFFF7FEBFFFF7FEBF1C
:1028F000FFF7FEBFFFF7FEBFFFF7FEBFFFF7FEBF0C
:10290000FFF7FEBFFFF7FEBFFFF7FEBFFFF7FEBFFB
:10291000FFF7FEBFFFF7FEBFFFF7FEBFFFF7FEBFEB
:10292000FFF7FEBFFFF7FEBFFFF7FEBFFFF7FEBFDB
:10293000FFF7FEBFFFF7FEBFFFF7FEBF000000007E
:102940000000000000000000000000000000000087
:102950000000000000000000FFFFFFFFFFFFFFFF7F
:102960000000000000000000000000000000000067
:102970000000000000000000000000000000000057
:1029800000000000FFFFFFFFFFFF0000000000004D
:102990000000000000000000000000000000000037
:1029A0000000000000000000000000000000000027
:1029B0000000000000000000000000000000000017
:1029C0000000000002040101E002002030030020AA
:1029D000E0020020E0020020E0020020C50000200C
:1029E000AC0000200000000000000000000000001B
:1029F00000000000000000000000000000000000D7
:102A000000000000000000000102030401020304B2
:0C2A1000060708090204060800A24A0498
:040000050800286166
:00000001FF
